:100000000C942A000C94660C0C94990C0C94CC0C57
:100010000C9447000C9447000C9447000C9449083A
:100020000C9447000C9447000C94170A0C94740A23
:100030000C9447000C9447000C9447000C94470024
:100040000C9447000C9447000C9447000C94470014
:100050000C94470011241FBECFE5D8E0DEBFCDBF12
:1000600012E0A0E6B0E0E0EBF4E502C005900D92EE
:10007000AC33B107D9F712E0ACE3B2E001C01D9296
:10008000A037B107E1F70E94BA210C94562A0C94CC
:100090000000EF92FF920F931F937B018C0120E0F1
:1000A00030E040E05FE40E94490388238CF0C801FF
:1000B000B70120E030E040E05FE40E94C1010E940F
:1000C000A9039B01AC01205030404040504806C07D
:1000D000C801B7010E94A9039B01AC01B901CA0183
:1000E0001F910F91FF90EF900895A0E0B0E0EBE733
:1000F000F0E00C941F2ADC012B01FA019C91923054
:1001000008F439C1EB018881823008F433C194309E
:1001100069F4843009F02FC111969C91119789815F
:10012000981709F428C1A6E1B1E025C1843009F48B
:1001300021C18230A9F4923009F01DC19A01AD01AC
:1001400088E0EA010990AE01E90109929E0181501F
:10015000C1F7E201898111969C918923818308C1AD
:10016000923009F407C112962D903C901397EB0141
:100170008A819B811496AD90BD90CD90DC901797AD
:10018000EC80FD800E811F819101281B390BB90184
:1001900037FF04C066277727621B730B6032710537
:1001A0000CF061C0121613066CF537014801062EDB
:1001B00004C096948794779467940A94D2F721E0C8
:1001C00030E040E050E004C0220F331F441F551FB1
:1001D0006A95D2F721503040404050402E213F21B7
:1001E00040235123211531054105510521F021E01E
:1001F00030E040E050E079018A01E628F72808293C
:1002000019293CC0232BD1F1260E371E350146019A
:10021000062E04C096948794779467940A94D2F734
:1002200021E030E040E050E004C0220F331F441FC3
:10023000551F6A95D2F721503040404050402A2146
:100240003B214C215D21211531054105510521F04E
:1002500021E030E040E050E059016A01A628B728CB
:10026000C828D9280BC0821593052CF01C01AA249C
:10027000BB24650103C0EE24FF24870111969C91E5
:10028000D20111968C91981709F445C0992339F041
:10029000A80197012A193B094C095D0906C0A6016E
:1002A00095012E193F09400B510B57FD08C01182D3
:1002B0003382228224833583468357831DC081E0A5
:1002C00081833382228288279927DC01821B930B4A
:1002D000A40BB50B84839583A683B7830DC0220F2F
:1002E000331F441F551F24833583468357838281E0
:1002F000938101979383828324813581468157813D
:10030000DA01C9010197A109B1098F5F9F4FAF4F72
:10031000BF4328F30BC0918333822282EA0CFB1C7B
:100320000C1D1D1DE482F5820683178383E0808304
:10033000248135814681578157FF1AC0C901AA27F8
:1003400097FDA095BA2F81709070A070B0705695EF
:10035000479537952795822B932BA42BB52B848318
:100360009583A683B7838281938101969383828349
:10037000DF0101C0D201CD01CDB7DEB7E2E10C94BF
:100380003B2AA0E2B0E0E7ECF1E00C942B2A698371
:100390007A838B839C832D833E834F835887E9E048
:1003A000EE2EF12CEC0EFD1ECE010196B7010E943F
:1003B0009A058E010F5E1F4FCE010596B8010E946F
:1003C0009A058A8991E089278A8BC701B801AE0115
:1003D000475E5F4F0E9475000E94C504A096E6E04C
:1003E0000C94472AA0E2B0E0E8EFF1E00C942B2A4D
:1003F00069837A838B839C832D833E834F835887C5
:10040000F9E0EF2EF12CEC0EFD1ECE010196B701A6
:100410000E949A058E010F5E1F4FCE010596B8010E
:100420000E949A05C701B801AE01475E5F4F0E9466
:1004300075000E94C504A096E6E00C94472AA0E24D
:10044000B0E0E5E2F2E00C941F2A69837A838B83A3
:100450009C832D833E834F835887CE010196BE0136
:10046000675F7F4F0E949A05CE010596BE016F5EC1
:100470007F4F0E949A059985923088F08989823051
:10048000C8F0943019F4823051F404C0843029F457
:10049000923081F486E191E0C6C0923049F420E0C8
:1004A0009A858A89981321E02A87CE010996BBC0D4
:1004B000823049F420E09A858A89981321E02A8BBA
:1004C000CE014196B0C02D843E844F8458886D88FB
:1004D0007E888F88988CEE24FF248701AA24BB2471
:1004E000650140E050E060E070E0E0E0F0E0C10174
:1004F00081709070892BE9F0E60CF71C081D191D1E
:100500009A01AB012A0D3B1D4C1D5D1D80E090E062
:10051000A0E0B0E0E614F7040805190520F481E036
:1005200090E0A0E0B0E0BA01A901480F591F6A1F8E
:100530007B1FAA0CBB1CCC1CDD1C97FE08C081E0F5
:1005400090E0A0E0B0E0A82AB92ACA2ADB2A3196B6
:10055000E032F10549F0660C771C881C991C569412
:10056000479437942794C3CFFA85EA892B893C892D
:100570008B859C85280F391F2E5F3F4F17C0CA01FE
:1005800081709070892B61F016950795F794E79428
:1005900080E090E0A0E0B0E8E82AF92A0A2B1B2BC3
:1005A00076956795579547952F5F3F4F77FDE7CF36
:1005B0000CC0440F551F661F771F17FD4160EE0CDE
:1005C000FF1C001F111F21503040403090E05907A0
:1005D00090E0690790E4790760F32B8F3C8FDB0193
:1005E000CA018F779070A070B07080349105A1051A
:1005F000B10561F447FD0AC0E114F10401051105DC
:1006000029F0405C5F4F6F4F7F4F40781A8EFE1786
:1006100011F081E08A8F4D8F5E8F6F8F78A383E01A
:10062000898FCE0149960E94C504A096E2E10C9400
:100630003B2AA8E1B0E0EFE1F3E00C942B2A6983B8
:100640007A838B839C832D833E834F83588789E0F5
:10065000E82EF12CEC0EFD1ECE010196B7010E9492
:100660009A058E010F5E1F4FCE010596B8010E94BC
:100670009A058985823040F08989823028F0C70147
:10068000B8010E94120601C08FEF6896E6E00C9454
:10069000472AA8E1B0E0EFE4F3E00C942B2A698349
:1006A0007A838B839C832D833E834F83588789E095
:1006B000E82EF12CEC0EFD1ECE010196B7010E9432
:1006C0009A058E010F5E1F4FCE010596B8010E945C
:1006D0009A058985823040F08989823028F0C701E7
:1006E000B8010E94120601C08FEF6896E6E00C94F4
:1006F000472AA8E1B0E0EFE7F3E00C942B2A6983E6
:100700007A838B839C832D833E834F83588789E034
:10071000E82EF12CEC0EFD1ECE010196B7010E94D1
:100720009A058E010F5E1F4FCE010596B8010E94FB
:100730009A058985823040F08989823028F0C70186
:10074000B8010E94120601C081E06896E6E00C94B0
:10075000472AACE0B0E0EFEAF3E00C942F2A69837B
:100760007A838B839C83CE010196BE016B5F7F4FA2
:100770000E949A058D81823061F1823050F184307F
:1007800021F48E81882351F12EC02F81388537FDC9
:1007900020C06E812F3131051CF06623F9F023C093
:1007A0008EE190E0821B930B29853A854B855C8511
:1007B00004C056954795379527958A95D2F76623B5
:1007C000B1F050954095309521953F4F4F4F5F4F79
:1007D0000EC020E030E040E050E009C02FEF3FEFD6
:1007E0004FEF5FE704C020E030E040E050E8B9019F
:1007F000CA012C96E2E00C944B2AA8E0B0E0E3E0BA
:10080000F4E00C94272A7B018C01611571058105A8
:10081000910519F482E0898360C083E089838EE1C9
:10082000C82ED12CDC82CB82ED82FE820F8318870A
:10083000C801B7010E947604FC013197F7FF3BC065
:10084000222733272E1B3F0B57016801022E04C0BD
:10085000D694C794B794A7940A94D2F740E050E096
:1008600060E070E081E090E0A0E0B0E004C0880FBC
:10087000991FAA1FBB1F2A95D2F70197A109B10999
:100880008E219F21A023B1230097A105B10521F05E
:1008900041E050E060E070E04A295B296C297D2945
:1008A0004D835E836F8378878EE190E08E1B9F0B74
:1008B0009C838B8312C0309781F00E2E04C0EE0C07
:1008C000FF1C001F111F0A94D2F7ED82FE820F83D6
:1008D0001887CE1ADF0ADC82CB821A82CE010196FB
:1008E0000E94C5042896EAE00C94432AEF92FF92F6
:1008F0000F931F937B018C0180E0E81680E0F806DF
:1009000081E0080780E0180788F48FEFE816F1040B
:100910000105110531F028F088E090E0A0E0B0E09A
:1009200017C080E090E0A0E0B0E012C080E0E816E0
:1009300080E0F80680E0080781E0180728F088E1E9
:1009400090E0A0E0B0E004C080E190E0A0E0B0E082
:1009500020E230E040E050E0281B390B4A0B5B0BF3
:1009600004C016950795F794E7948A95D2F7F70196
:10097000E25EFE4F8081281B310941095109C901FE
:100980001F910F91FF90EF900895DF92EF92FF92E9
:100990000F931F93FC01E480F58006811781D180BD
:1009A0008081823048F480E090E0A0E1B0E0E82A65
:1009B000F92A0A2B1B2BA5C0843009F49FC0823072
:1009C00021F4EE24FF24870105C0E114F1040105A0
:1009D000110519F4E0E0F0E096C0628173819FEFA9
:1009E000623879070CF05BC022E83FEF261B370B1B
:1009F0002A3131052CF020E030E040E050E02AC000
:100A0000B801A701022E04C07695679557954795C2
:100A10000A94D2F781E090E0A0E0B0E004C0880F33
:100A2000991FAA1FBB1F2A95D2F70197A109B109E7
:100A30008E219F21A023B1230097A105B10521F0AC
:100A400081E090E0A0E0B0E09A01AB01282B392BC7
:100A50004A2B5B2BDA01C9018F779070A070B070C0
:100A600080349105A105B10539F427FF09C0205C48
:100A70003F4F4F4F5F4F04C0215C3F4F4F4F5F4F81
:100A8000E0E0F0E02030A0E03A07A0E04A07A0E470
:100A90005A0710F0E1E0F0E079018A0127C06038E0
:100AA000710564F5FB01E158FF4FD801C7018F774D
:100AB0009070A070B07080349105A105B10539F433
:100AC000E7FE0DC080E490E0A0E0B0E004C08FE35A
:100AD00090E0A0E0B0E0E80EF91E0A1F1B1F17FF10
:100AE00005C016950795F794E794319687E016951B
:100AF0000795F794E7948A95D1F705C0EE24FF2473
:100B00008701EFEFF0E06E2F679566276795902FCE
:100B10009F77D794DD24D7948E2F8695492F462B27
:100B2000582F5D29B701CA011F910F91FF90EF90D7
:100B3000DF900895FC01DB01408151812281622F09
:100B40006F7770E0221F2227221F9381892F880F41
:100B5000822B282F30E0991F9927991F11969C937B
:100B6000119721153105A9F541155105610571054B
:100B700011F482E037C082E89FEF13969C938E9326
:100B800012979A01AB0167E0220F331F441F551FD4
:100B90006A95D1F783E08C930DC0220F331F441F59
:100BA000551F12968D919C911397019713969C93C4
:100BB0008E931297203080E0380780E0480780E469
:100BC000580758F314962D933D934D935C931797C4
:100BD00008952F3F310579F44115510561057105DF
:100BE00019F484E08C93089564FF03C081E08C9332
:100BF00012C01C9210C02F57304013963C932E9376
:100C0000129783E08C9387E0440F551F661F771F70
:100C10008A95D1F7706414964D935D936D937C9390
:100C2000179708951F93DC01FB019C91923008F403
:100C300047C08081823008F443C0943051F411964B
:100C40001C91843099F58181682F70E0611B7109D6
:100C50003FC0843021F0923031F48230B9F181818B
:100C6000882389F12DC011961C9111978230F1F0E3
:100C700081811817D9F412962D913C911397828196
:100C800093818217930794F028173907BCF01496C4
:100C90008D919D910D90BC91A02D2481358146812F
:100CA0005781281739074A075B0718F4112341F0C9
:100CB0000AC082179307A407B50740F4112319F05F
:100CC00061E070E005C06FEF7FEF02C060E070E0B0
:100CD000CB011F910895DF93CF93CDB7DEB7AFE47B
:100CE000B0E0EFE4F0E080818E7F8C93AFE4B0E081
:100CF000EFE4F0E080818D7F8C93AEE4B0E0EEE431
:100D0000F0E0808188608C93AEE4B0E0EEE4F0E047
:100D100080818F7E8C93AFE4B0E0EFE4F0E08081DF
:100D20008F7B8C93AFE4B0E0EFE4F0E080818068EB
:100D30008C93A9E5B0E0E9E5F0E0808180618C93D7
:100D4000AFE5B0E0EFE5F0E0808180688C93CF9173
:100D5000DF910895EF92FF920F931F93DF93CF934C
:100D6000CDB7DEB72A970FB6F894DEBF0FBECDBF62
:100D70006F83788789879A8784E090E0A0E0B0E06D
:100D80008B839C83AD83BE838F819885A985BA852B
:100D900028EE33E040E050E0BC01CD010E94AF29D5
:100DA000DC01CB012B813C814D815E81BC01CD01F9
:100DB0000E94E229DA01C90180934402909345021E
:100DC000A0934602B09347028FEF9FEF9A838983E7
:100DD00005C089819A8101979A838983E0904402B2
:100DE000F0904502009146021091470289819A8154
:100DF0009C0140E050E0C801B7010E94E229DC01FB
:100E0000CB010097A105B10521F7E0904402F090D5
:100E10004502009146021091470289819A819C0106
:100E200040E050E0C801B7010E94E229DA01C9019F
:100E300080933C0290933D02A0933E02B0933F0208
:100E4000EAE4F0E089819A810197918380832A9670
:100E50000FB6F894DEBF0FBECDBFCF91DF911F91CB
:100E60000F91FF90EF900895DF93CF93CDB7DEB74A
:100E7000AEE4B0E0EEE4F0E0808181608C93AEE41B
:100E8000B0E0EEE4F0E080818D7F8C93AEE4B0E0E2
:100E9000EEE4F0E0808184608C93CF91DF9108953F
:100EA000DF93CF93CDB7DEB7AEE4B0E0EEE4F0E091
:100EB00080818E7F8C93AEE4B0E0EEE4F0E0808140
:100EC0008D7F8C93AEE4B0E0EEE4F0E080818B7F28
:100ED0008C93CF91DF910895DF93CF93CDB7DEB799
:100EE000A1E3B0E0E1E3F0E0808180628C93AFE4C5
:100EF000B0E0EFE4F0E080818E7F8C93AFE4B0E06F
:100F0000EFE4F0E0808182608C93AEE4B0E0EEE448
:100F1000F0E0808182608C93AEE4B0E0EEE4F0E03B
:100F2000808182608C93AFE4B0E0EFE4F0E08081F8
:100F30008F7B8C93AFE4B0E0EFE4F0E080818068D9
:100F40008C93CF91DF9108950F931F93DF93CF93ED
:100F500000D000D0CDB7DEB769837A838B839C83C2
:100F60000AE410E089819A81AB81BC8128E331E0F9
:100F700040E050E0BC01CD010E94AF29DC01CB0173
:100F800024E630E040E050E0BC01CD010E94E229BF
:100F9000DA01C9010197F801918380830F900F90C6
:100FA0000F900F90CF91DF911F910F9108950F93A4
:100FB0001F93DF93CF9300D000D0CDB7DEB7698306
:100FC0007A838B839C8306E410E089819A81AB81CC
:100FD000BC8120E930ED43E050E0BC01CD010E942E
:100FE000AF29DC01CB01F801918380830F900F9032
:100FF0000F900F90CF91DF911F910F910895DF9384
:10100000CF93CDB7DEB7AEE4B0E0EEE4F0E08081A0
:1010100081608C93AEE4B0E0EEE4F0E080818D7FFF
:101020008C93AEE4B0E0EEE4F0E0808184608C93D9
:10103000CF91DF910895DF93CF93CDB7DEB7AEE4C4
:10104000B0E0EEE4F0E080818E7F8C93AEE4B0E01F
:10105000EEE4F0E080818D7F8C93AEE4B0E0EEE4CE
:10106000F0E080818B7F8C93CF91DF910895DF93A7
:10107000CF9300D0CDB7DEB79A83898389819A81D7
:1010800090936802809367020F900F90CF91DF9149
:1010900008951F920F920FB60F9211242F933F9332
:1010A0004F935F936F937F938F939F93AF93BF9370
:1010B000EF93FF93DF93CF93CDB7DEB780914802D4
:1010C00090914902A0914A02B0914B020196A11D54
:1010D000B11D8093480290934902A0934A02B093B5
:1010E0004B02209148023091490240914A025091AE
:1010F0004B0280913C0290913D02A0913E02B09142
:101100003F02281739074A075B0769F4E091670235
:10111000F0916802099510924802109249021092CB
:101120004A0210924B02CF91DF91FF91EF91BF9154
:10113000AF919F918F917F916F915F914F913F916F
:101140002F910F900FBE0F901F901895DF93CF93A4
:10115000CDB7DEB7A3E5B0E0E3E5F0E080818F7BBB
:101160008C93A3E5B0E0E3E5F0E08081877F8C938A
:10117000A9E5B0E0E9E5F0E0808181608C93AFE51E
:10118000B0E0EFE5F0E0808180688C93CF91DF9153
:101190000895DF93CF93CDB7DEB728970FB6F894B5
:1011A000DEBF0FBECDBF6D837E838F83988780E4C3
:1011B00090E0A0E0B0E089839A83AB83BC838D810B
:1011C0009E81AF81B88528EE33E040E050E0BC015D
:1011D000CD010E94AF29DC01CB0129813A814B81ED
:1011E0005C81BC01CD010E94E229DA01C901809332
:1011F000540290935502A0935602B09357028091E7
:10120000540290915502A0915602B0915702892F35
:101210009A2FAB2FBB278093500290935102A0933B
:101220005202B09353028091540290915502A091C2
:101230005602B09157029070A070B0700097A1054F
:10124000B105F9F0E2E5F0E0809154029091550289
:10125000A0915602B09157028195808380915002EF
:1012600090915102A0915202B09153020196A11D9A
:10127000B11D8093500290935102A0935202B093FB
:10128000530228960FB6F894DEBF0FBECDBFCF91A4
:10129000DF910895DF93CF93CDB7DEB7A3E5B0E03C
:1012A000E3E5F0E0808181608C93A3E5B0E0E3E5C5
:1012B000F0E080818D7F8C93A3E5B0E0E3E5F0E082
:1012C000808184608C93CF91DF910895DF93CF93D9
:1012D000CDB7DEB7A3E5B0E0E3E5F0E080818E7F37
:1012E0008C93A3E5B0E0E3E5F0E080818D7F8C9303
:1012F000A3E5B0E0E3E5F0E080818B7F8C93CF91B4
:10130000DF910895DF93CF93CDB7DEB7A3E5B0E0CB
:10131000E3E5F0E0808180648C93A3E5B0E0E3E551
:10132000F0E08081877F8C93A3E5B0E0E3E5F0E017
:1013300080818F7E8C93A3E5B0E0E3E5F0E08081CF
:1013400080628C93CF91DF9108950F931F93DF9369
:10135000CF9300D000D0CDB7DEB769837A838B837B
:101360009C830CE510E089819A81AB81BC812FEFD1
:1013700030E040E050E0BC01CD010E94AF29DC012B
:10138000CB0124E630E040E050E0BC01CD010E94FA
:10139000E229DA01C901F80180830F900F900F90C4
:1013A0000F90CF91DF911F910F910895DF93CF930D
:1013B000CDB7DEB70E944A09CF91DF910895DF9340
:1013C000CF93CDB7DEB70E946609CF91DF91089524
:1013D000DF93CF9300D0CDB7DEB79A83898389811D
:1013E0009A8190936C0280936B020F900F90CF9133
:1013F000DF910895DF93CF9300D000D0CDB7DEB753
:101400009A8389837C836B8389819A8190936E020E
:1014100080936D028B819C8190936A028093690214
:101420000F900F900F900F90CF91DF9108951F9222
:101430000F920FB60F9211242F933F934F935F9308
:101440006F937F938F939F93AF93BF93EF93FF938C
:10145000DF93CF93CDB7DEB78091580290915902B8
:10146000A0915A02B0915B020196A11DB11D80931B
:10147000580290935902A0935A02B0935B022091B4
:1014800058023091590240915A0250915B0280916A
:101490004C0290914D02A0914E02B0914F0228173C
:1014A00039074A075B0769F4E0916B02F0916C021F
:1014B0000995109258021092590210925A021092F5
:1014C0005B02CF91DF91FF91EF91BF91AF919F911F
:1014D0008F917F916F915F914F913F912F910F90DD
:1014E0000FBE0F901F9018951F920F920FB60F927C
:1014F00011242F933F934F935F936F937F938F9319
:101500009F93AF93BF93EF93FF93DF93CF93CDB7A9
:10151000DEB780915C0290915D02A0915E02B09175
:101520005F020196A11DB11D80935C0290935D0244
:10153000A0935E02B0935F0220915C0230915D0245
:1015400040915E0250915F02809150029091510251
:10155000A0915202B0915302281739074A075B073E
:10156000C9F4E0916B02F0916C02099510925C0253
:1015700010925D0210925E0210925F02E2E5F0E0CE
:101580008091540290915502A0915602B091570259
:1015900081958083CF91DF91FF91EF91BF91AF91C2
:1015A0009F918F917F916F915F914F913F912F917B
:1015B0000F900FBE0F901F901895DF93CF93CDB76C
:1015C000DEB7AFE5B0E0EFE5F0E0808180688C93B6
:1015D000CF91DF910895DF93CF93CDB7DEB7AFE51D
:1015E000B0E0EFE5F0E080818F778C93CF91DF91D1
:1015F0000895DF93CF93CDB7DEB7A5E5B0E0E5E57D
:10160000F0E0808181608C93A5E5B0E0E5E5F0E055
:1016100080818D7F8C93ABE5B0E0EBE5F0E08081DD
:101620008F7B8C93CF91DF910895DF93CF93CDB7CC
:10163000DEB7A5E5B0E0E5E5F0E0808184608C935D
:10164000A5E5B0E0E5E5F0E08081877F8C93ABE530
:10165000B0E0EBE5F0E0808180688C93CF91DF9182
:101660000895DF93CF93CDB7DEB7A4E5B0E0E4E50E
:10167000F0E080818F7B8C93ABE5B0E0EBE5F0E0B0
:1016800080818F7D8C93CF91DF910895DF93CF93ED
:10169000CDB7DEB72A970FB6F894DEBF0FBECDBF29
:1016A00089836A838981282F30E03A872987898551
:1016B0009A858130910509F467C029853A852230E1
:1016C000310509F4BDC089859A85009709F0D6C017
:1016D0008A81282F30E038872F838F819885823048
:1016E000910529F12F8138852330310534F48F811C
:1016F00098858130910561F0C1C02F8138852330F4
:10170000310521F18F8198858430910571F1B6C042
:10171000A5E5B0E0E5E5F0E080818E7F8C93A5E55E
:10172000B0E0E5E5F0E080818D7F8C93A7C0A5E572
:10173000B0E0E5E5F0E0808181608C93A5E5B0E064
:10174000E5E5F0E080818D7F8C9398C0A5E5B0E061
:10175000E5E5F0E080818E7F8C93A5E5B0E0E5E5DE
:10176000F0E0808182608C9389C0A5E5B0E0E5E57A
:10177000F0E0808181608C93A5E5B0E0E5E5F0E0E4
:10178000808182608C937AC08A81282F30E03E83EA
:101790002D838D819E818230910529F12D813E819D
:1017A0002330310534F48D819E818130910561F0C3
:1017B00065C02D813E812330310521F18D819E81CF
:1017C0008430910571F15AC0A5E5B0E0E5E5F0E09F
:1017D00080818B7F8C93A5E5B0E0E5E5F0E080812A
:1017E000877F8C934BC0A5E5B0E0E5E5F0E0808114
:1017F00084608C93A5E5B0E0E5E5F0E08081877F2B
:101800008C933CC0A5E5B0E0E5E5F0E080818B7FFE
:101810008C93A5E5B0E0E5E5F0E0808188608C93ED
:101820002DC0A5E5B0E0E5E5F0E0808184608C9313
:10183000A5E5B0E0E5E5F0E0808188608C931EC00E
:101840008A81282F30E03C832B838B819C818330DD
:10185000910569F02B813C812430310579F4A4E5B0
:10186000B0E0E4E5F0E0808180648C9307C0A4E5FB
:10187000B0E0E4E5F0E080818F7B8C932A960FB690
:10188000F894DEBF0FBECDBFCF91DF910895DF93F7
:10189000CF9300D00F92CDB7DEB79A8389836B8345
:1018A00089819A81009761F08B81882F90E0880F61
:1018B000991FFC01E05AFD4F89819A8191838083B1
:1018C0000F900F900F90CF91DF9108951F920F927C
:1018D0000FB60F9211242F933F934F935F936F9303
:1018E0007F938F939F93AF93BF93EF93FF93DF9378
:1018F000CF93CDB7DEB780916002909161020097DF
:1019000029F0E0916002F09161020995CF91DF9199
:10191000FF91EF91BF91AF919F918F917F916F91C7
:101920005F914F913F912F910F900FBE0F901F909D
:1019300018951F920F920FB60F9211242F933F9379
:101940004F935F936F937F938F939F93AF93BF93C7
:10195000EF93FF93DF93CF93CDB7DEB78091620211
:1019600090916302009729F0E0916202F091630286
:101970000995CF91DF91FF91EF91BF91AF919F9129
:101980008F917F916F915F914F913F912F910F9028
:101990000FBE0F901F9018951F920F920FB60F92C7
:1019A00011242F933F934F935F936F937F938F9364
:1019B0009F93AF93BF93EF93FF93DF93CF93CDB7F5
:1019C000DEB78091640290916502009729F0E09162
:1019D0006002F09161020995CF91DF91FF91EF9143
:1019E000BF91AF919F918F917F916F915F914F9137
:1019F0003F912F910F900FBE0F901F901895DF937E
:101A0000CF93CDB7DEB727970FB6F894DEBF0FBEE2
:101A1000CDBF89836A834B838981883008F0EEC00B
:101A20008A81843008F0EAC08B81813009F06FC070
:101A30008A81282F30E03F832E838E819F818130E1
:101A4000910549F12E813F81223031052CF48E81A0
:101A50009F81009761F0D2C02E813F8122303105F5
:101A600071F18E819F8183309105E9F1C7C0AAE3AE
:101A7000B0E0EAE3F0E08081482F8981282F30E050
:101A800081E090E0022E02C0880F991F0A94E2F7CD
:101A9000842B8C93B3C0A7E3B0E0E7E3F0E0808150
:101AA000482F8981282F30E081E090E0022E02C08B
:101AB000880F991F0A94E2F7842B8C939FC0A4E3AC
:101AC000B0E0E4E3F0E08081482F8981282F30E006
:101AD00081E090E0022E02C0880F991F0A94E2F77D
:101AE000842B8C938BC0A1E3B0E0E1E3F0E0808134
:101AF000482F8981282F30E081E090E0022E02C03B
:101B0000880F991F0A94E2F7842B8C9377C08B81FE
:101B1000882309F073C08A81282F30E03D832C830D
:101B20008C819D818130910559F12C813D8122303C
:101B300031052CF48C819D81009769F05FC02C8168
:101B40003D812230310589F18C819D818330910561
:101B500009F440C053C0AAE3B0E0EAE3F0E08081BA
:101B6000482F8981282F30E081E090E0022E02C0CA
:101B7000880F991F0A94E2F7809584238C933EC0C6
:101B8000A7E3B0E0E7E3F0E08081482F8981282FC8
:101B900030E081E090E0022E02C0880F991F0A9485
:101BA000E2F7809584238C9329C0A4E3B0E0E4E3BA
:101BB000F0E08081482F8981282F30E081E090E09B
:101BC000022E02C0880F991F0A94E2F780958423A1
:101BD0008C9314C0A1E3B0E0E1E3F0E08081482FF2
:101BE0008981282F30E081E090E0022E02C0880F2A
:101BF000991F0A94E2F7809584238C9327960FB659
:101C0000F894DEBF0FBECDBFCF91DF910895DF9373
:101C1000CF93CDB7DEB727970FB6F894DEBF0FBED0
:101C2000CDBF89836A834B838981883008F0EEC0F9
:101C30008A81843008F0EAC08B81813009F06FC05E
:101C40008A81282F30E03F832E838E819F818130CF
:101C5000910549F12E813F81223031052CF48E818E
:101C60009F81009761F0D2C02E813F8122303105E3
:101C700071F18E819F8183309105E9F1C7C0ABE39B
:101C8000B0E0EBE3F0E08081482F8981282F30E03D
:101C900081E090E0022E02C0880F991F0A94E2F7BB
:101CA000842B8C93B3C0A8E3B0E0E8E3F0E080813C
:101CB000482F8981282F30E081E090E0022E02C079
:101CC000880F991F0A94E2F7842B8C939FC0A5E399
:101CD000B0E0E5E3F0E08081482F8981282F30E0F3
:101CE00081E090E0022E02C0880F991F0A94E2F76B
:101CF000842B8C938BC0A2E3B0E0E2E3F0E0808120
:101D0000482F8981282F30E081E090E0022E02C028
:101D1000880F991F0A94E2F7842B8C9377C08B81EC
:101D2000882309F073C08A81282F30E03D832C83FB
:101D30008C819D818130910559F12C813D8122302A
:101D400031052CF48C819D81009769F05FC02C8156
:101D50003D812230310589F18C819D81833091054F
:101D600009F440C053C0ABE3B0E0EBE3F0E08081A6
:101D7000482F8981282F30E081E090E0022E02C0B8
:101D8000880F991F0A94E2F7809584238C933EC0B4
:101D9000A8E3B0E0E8E3F0E08081482F8981282FB4
:101DA00030E081E090E0022E02C0880F991F0A9473
:101DB000E2F7809584238C9329C0A5E3B0E0E5E3A6
:101DC000F0E08081482F8981282F30E081E090E089
:101DD000022E02C0880F991F0A94E2F7809584238F
:101DE0008C9314C0A2E3B0E0E2E3F0E08081482FDE
:101DF0008981282F30E081E090E0022E02C0880F18
:101E0000991F0A94E2F7809584238C9327960FB646
:101E1000F894DEBF0FBECDBFCF91DF910895DF9361
:101E2000CF9300D000D0CDB7DEB789836A83898194
:101E3000883008F072C08A81843008F06EC08A81D0
:101E4000282F30E03C832B838B819C81813091054E
:101E500049F12B813C81223031052CF48B819C810E
:101E6000009761F05AC02B813C812230310571F11D
:101E70008B819C8183309105E9F14FC0ABE3B0E0E9
:101E8000EBE3F0E08081482F8981282F30E081E06A
:101E900090E0022E02C0880F991F0A94E2F784276F
:101EA0008C933BC0A8E3B0E0E8E3F0E08081482FEA
:101EB0008981282F30E081E090E0022E02C0880F57
:101EC000991F0A94E2F784278C9327C0A5E3B0E01A
:101ED000E5E3F0E08081482F8981282F30E081E020
:101EE00090E0022E02C0880F991F0A94E2F784271F
:101EF0008C9313C0A2E3B0E0E2E3F0E08081482FCE
:101F00008981282F30E081E090E0022E02C0880F06
:101F1000991F0A94E2F784278C930F900F900F90EB
:101F20000F90CF91DF910895DF93CF9300D000D031
:101F30000F92CDB7DEB78A836B838A81883008F031
:101F40006BC08B81843008F067C08B81282F30E014
:101F50003D832C834C815D814130510541F18C8161
:101F60009D818230910534F42C813D81211531050C
:101F700061F052C04C815D814230510551F18C813C
:101F80009D8183309105B9F147C0E9E3F0E080819C
:101F9000282F30E08A81882F90E0A90102C0559552
:101FA00047958A95E2F7CA018170898335C0E6E3D7
:101FB000F0E08081282F30E08A81882F90E0A9010D
:101FC00002C0559547958A95E2F7CA0181708983C9
:101FD00023C0E3E3F0E08081282F30E08A81882F5E
:101FE00090E0A90102C0559547958A95E2F7CA018C
:101FF0008170898311C0E0E3F0E08081282F30E018
:102000008A81882F90E0A90102C0559547958A954D
:10201000E2F7CA018170898389810F900F900F9038
:102020000F900F90CF91DF910895DF93CF9300D061
:1020300000D0CDB7DEB789836A838981282F30E04D
:102040003C832B838B819C8181309105D1F02B8146
:102050003C81223031052CF48B819C81009761F00A
:102060001EC02B813C812230310581F08B819C8107
:102070008330910581F013C0EAE3F0E08A81808328
:102080000EC0E7E3F0E08A81808309C0E4E3F0E07A
:102090008A81808304C0E1E3F0E08A8180830F902D
:1020A0000F900F900F90CF91DF910895DF93CF9312
:1020B00000D000D0CDB7DEB789836A838981282F0D
:1020C00030E03C832B838B819C8181309105D1F062
:1020D0002B813C81223031052CF48B819C8100972F
:1020E00061F01EC02B813C812230310581F08B8153
:1020F0009C818330910581F013C0EBE3F0E08A818D
:1021000080830EC0E8E3F0E08A81808309C0E5E3C4
:10211000F0E08A81808304C0E2E3F0E08A8180837A
:102120000F900F900F900F90CF91DF910895DF9354
:10213000CF9300D00F92CDB7DEB7898389818430E9
:1021400008F03EC08981282F30E03B832A838A81B2
:102150009B8181309105E9F02A813B812230310554
:102160002CF48A819B81009761F02AC02A813B81EF
:1021700022303105B1F08A819B8183309105C9F00D
:102180001FC0ABE3B0E0EBE3F0E0808180958C937F
:1021900017C0A8E3B0E0E8E3F0E0808180958C937D
:1021A0000FC0A5E3B0E0E5E3F0E0808180958C937B
:1021B00007C0A2E3B0E0E2E3F0E0808180958C9379
:1021C0000F900F900F90CF91DF910895DF93CF93F1
:1021D00000D000D0CDB7DEB78A838A81843090F5F5
:1021E0008A81282F30E03C832B838B819C81813036
:1021F0009105D1F02B813C81223031052CF48B816B
:102200009C81009761F01EC02B813C8122303105FA
:1022100081F08B819C818330910581F013C0E9E3CB
:10222000F0E0808189830EC0E6E3F0E0808189835D
:1022300009C0E3E3F0E08081898304C0E0E3F0E0DB
:102240008081898389810F900F900F900F90CF919B
:10225000DF910895DF93CF93CDB7DEB7A7E2B0E06B
:10226000E7E2F0E0808180648C93A7E2B0E0E7E2EF
:10227000F0E080818F778C93A7E2B0E0E7E2F0E0B6
:1022800080818F7D8C93A6E2B0E0E6E2F0E0808171
:1022900084608C93A6E2B0E0E6E2F0E080818260A8
:1022A0008C93A6E2B0E0E6E2F0E0808181608C935E
:1022B000A6E2B0E0E6E2F0E080818F7D8C930E94A0
:1022C0008412CF91DF910895DF93CF9300D00F92C6
:1022D000CDB7DEB78983E4E2F0E011821082A7E295
:1022E000B0E0E7E2F0E0808180778C9389818F70A5
:1022F00089838981282F30E03B832A838A819B81CF
:102300008330910509F470C02A813B812430310566
:1023100084F48A819B8181309105D1F12A813B81AE
:10232000223031050CF04AC08A819B810097D1F0A0
:10233000C8C02A813B812530310509F481C08A81DA
:102340009B81853091050CF465C02A813B81263044
:10235000310509F48BC08A819B818730910509F48E
:102360009BC0AFC0A7E2B0E0E7E2F0E080818E7FE3
:102370008C93A7E2B0E0E7E2F0E080818D7F8C9360
:10238000A7E2B0E0E7E2F0E080818B7F8C9399C018
:10239000A7E2B0E0E7E2F0E0808181608C93A7E201
:1023A000B0E0E7E2F0E080818D7F8C93A7E2B0E0BF
:1023B000E7E2F0E080818B7F8C9383C0A7E2B0E0FE
:1023C000E7E2F0E080818E7F8C93A7E2B0E0E7E265
:1023D000F0E0808182608C93A7E2B0E0E7E2F0E079
:1023E00080818B7F8C936DC0A7E2B0E0E7E2F0E0E4
:1023F000808181608C93A7E2B0E0E7E2F0E0808129
:1024000082608C93A7E2B0E0E7E2F0E080818B7F0E
:102410008C9357C0A7E2B0E0E7E2F0E080818E7FC6
:102420008C93A7E2B0E0E7E2F0E080818D7F8C93AF
:10243000A7E2B0E0E7E2F0E0808184608C9341C0E5
:10244000A7E2B0E0E7E2F0E0808181608C93A7E250
:10245000B0E0E7E2F0E080818D7F8C93A7E2B0E00E
:10246000E7E2F0E0808184608C932BC0A7E2B0E0CB
:10247000E7E2F0E080818E7F8C93A7E2B0E0E7E2B4
:10248000F0E0808182608C93A7E2B0E0E7E2F0E0C8
:10249000808184608C9315C0A7E2B0E0E7E2F0E0B1
:1024A000808181608C93A7E2B0E0E7E2F0E0808178
:1024B00082608C93A7E2B0E0E7E2F0E08081846084
:1024C0008C93A6E2B0E0E6E2F0E0808180648C9339
:1024D000E6E2F0E0808182958F70882F90E0817035
:1024E00090700097A9F3A6E2B0E0E6E2F0E0808108
:1024F00080618C93E4E2F0E0808191810F900F90F5
:102500000F90CF91DF910895DF93CF93CDB7DEB7D2
:10251000A6E2B0E0E6E2F0E0808180688C93CF91A3
:10252000DF910895DF93CF93CDB7DEB7A6E2B0E099
:10253000E6E2F0E080818F778C93CF91DF91089570
:10254000DF93CF9300D0CDB7DEB79A838983AFE412
:10255000B0E0EFE4F0E0808182608C93AFE4B0E023
:10256000EFE4F0E080818E7F8C93AEE4B0E0EEE4A7
:10257000F0E0808180618C93AEE4B0E0EEE4F0E0C6
:10258000808188608C93AFE4B0E0EFE4F0E080817C
:1025900080688C93AFE4B0E0EFE4F0E080818F7B63
:1025A0008C93E6E4F0E08FE19EE491838083EAE49B
:1025B000F0E089819A8191838083AEE4B0E0EEE41B
:1025C000F0E080818B7F8C93AEE4B0E0EEE4F0E04D
:1025D000808182608C93AEE4B0E0EEE4F0E0808134
:1025E0008E7F8C930F900F90CF91DF910895DF93A2
:1025F000CF9300D0CDB7DEB79A83898329813A8102
:10260000C901880F991F880F991F820F931F24EB10
:1026100030E0B9010E94CE29CB010596CC01A0E0A3
:10262000B0E0BC01CD010E94A4070F900F90CF91A4
:10263000DF910895DF93CF93CDB7DEB70E94FF07F8
:10264000CF91DF910895DF93CF93CDB7DEB70E948E
:102650001B08CF91DF910895DF93CF9300D0CDB7C2
:10266000DEB789836A8389816A8141E00E94FF0C19
:1026700089816A8140E00E94070E0F900F90CF91F0
:10268000DF910895DF93CF9300D0CDB7DEB7898374
:102690006A8389816A8141E00E94070E0F900F9042
:1026A000CF91DF910895DF93CF9300D0CDB7DEB700
:1026B00089836A8389816A8140E00E94070E0F90B6
:1026C0000F90CF91DF910895DF93CF9300D0CDB7D6
:1026D000DEB789836A8389816A810E940F0F0F9018
:1026E0000F90CF91DF9108950F931F93DF93CF93B6
:1026F000CDB7DEB7C654D0400FB6F894DEBF0FBEDC
:10270000CDBF82E06FEF0E94151080E062E041E0F3
:102710000E94FF0C81E062E041E00E94FF0C82E039
:1027200062E041E00E94FF0CFE01ED5BFF4F80E0A4
:1027300090E0A0EFB1E480839183A283B3838E0104
:10274000015C1F4FFE01ED5BFF4F60817181828153
:10275000938120E030E04AEF54E40E941F02DC0144
:10276000CB01F80180839183A283B383FE01FF969E
:10277000608171818281938120E030E040E85FE3F5
:102780000E94790388232CF481E090E09EAF8DAF06
:1027900046C0FE01FF96608171818281938120E0B5
:1027A0003FEF4FE757E40E941903181664F5FE0146
:1027B000ED5BFF4F608171818281938120E030E089
:1027C00040E251E40E941F02DC01CB01BC01CD01BB
:1027D0000E944900DC01CB019EAF8DAF0FC088EC99
:1027E00090E09CAF8BAF8BAD9CAD0197F1F79CAFA8
:1027F0008BAF8DAD9EAD01979EAF8DAF8DAD9EAD74
:10280000009769F716C0FE01FF9660817181828191
:1028100093810E944900DC01CB019EAF8DAF8DAD4D
:102820009EAD9AAF89AF89AD9AAD0197F1F79AAF96
:1028300089AF83E30E94FF1582E30E94FF1588E2BF
:102840000E94FF1580E090E0A0E8BFE38DAB9EAB57
:10285000AFABB8AF6DA97EA98FA998AD20E030E0ED
:102860004AEF54E40E941F02DC01CB0189AB9AAB12
:10287000ABABBCAB69A97AA98BA99CA920E030E0DD
:1028800040E85FE30E94790388232CF481E090E024
:1028900098AB8FA73FC069A97AA98BA99CA920E012
:1028A0003FEF4FE757E40E94190318164CF56DA946
:1028B0007EA98FA998AD20E030E040E251E40E946B
:1028C0001F02DC01CB01BC01CD010E944900DC01EB
:1028D000CB0198AB8FA70FC088EC90E09EA78DA787
:1028E0008DA59EA50197F1F79EA78DA78FA598A905
:1028F000019798AB8FA78FA598A9009769F714C087
:1029000069A97AA98BA99CA90E944900DC01CB0185
:1029100098AB8FA78FA598A99CA78BA78BA59CA5E3
:102920000197F1F79CA78BA78CE00E94FF1580E030
:1029300090E0A0E8BFE38FA398A7A9A7BAA76FA1CB
:1029400078A589A59AA520E030E04AEF54E40E94DA
:102950001F02DC01CB018BA39CA3ADA3BEA36BA183
:102960007CA18DA19EA120E030E040E85FE30E94C1
:10297000790388232CF481E090E09AA389A33FC0D7
:102980006BA17CA18DA19EA120E03FEF4FE757E412
:102990000E94190318164CF56FA178A589A59AA570
:1029A00020E030E040E251E40E941F02DC01CB0154
:1029B000BC01CD010E944900DC01CB019AA389A38F
:1029C0000FC088EC90E098A38F8F8F8D98A101970E
:1029D000F1F798A38F8F89A19AA101979AA389A350
:1029E00089A19AA1009769F714C06BA17CA18DA160
:1029F0009EA10E944900DC01CB019AA389A389A171
:102A00009AA19E8F8D8F8D8D9E8D0197F1F79E8F50
:102A10008D8F81E00E94FF1580E090E0A0E0B0E49F
:102A2000898F9A8FAB8FBC8F698D7A8D8B8D9C8DA2
:102A300020E030E04AEF54E40E941F02DC01CB01A9
:102A40008D8B9E8BAF8BB88F6D897E898F89988D8A
:102A500020E030E040E85FE30E94790388232CF413
:102A600081E090E09C8B8B8B3FC06D897E898F8944
:102A7000988D20E03FEF4FE757E40E9419031816A6
:102A80004CF5698D7A8D8B8D9C8D20E030E040E295
:102A900051E40E941F02DC01CB01BC01CD010E9468
:102AA0004900DC01CB019C8B8B8B0FC088EC90E044
:102AB0009A8B898B89899A890197F1F79A8B898BEF
:102AC0008B899C8901979C8B8B8B8B899C89009728
:102AD00069F714C06D897E898F89988D0E9449009D
:102AE000DC01CB019C8B8B8B8B899C89988B8F878E
:102AF0008F8598890197F1F7988B8F8786E00E94E0
:102B0000FF1580E090E0A0E0B0E48B879C87AD8764
:102B1000BE876B857C858D859E8520E030E04AEF01
:102B200054E40E941F02DC01CB018F839887A987A0
:102B3000BA876F81788589859A8520E030E040E802
:102B40005FE30E94790388232CF481E090E09E8368
:102B50008D833FC06F81788589859A8520E03FEF1E
:102B60004FE757E40E94190318164CF56B857C85D6
:102B70008D859E8520E030E040E251E40E941F02F6
:102B8000DC01CB01BC01CD010E944900DC01CB017D
:102B90009E838D830FC088EC90E09C838B838B8118
:102BA0009C810197F1F79C838B838D819E81019796
:102BB0009E838D838D819E81009769F714C06F81FC
:102BC000788589859A850E944900DC01CB019E8326
:102BD0008D838D819E819A83898389819A810197D2
:102BE000F1F79A838983CA5BDF4F0FB6F894DEBF93
:102BF0000FBECDBFCF91DF911F910F910895DF934D
:102C0000CF93CDB7DEB76D970FB6F894DEBF0FBE8A
:102C1000CDBF8D8F80E062E040E00E94070E81E032
:102C200062E040E00E94070E8D8D82958F70982F94
:102C3000917084E062E0492F0E94070E8D8D82958D
:102C400086958770982F917085E062E0492F0E94E9
:102C5000070E8D8D8295869586958370982F91703D
:102C600086E062E0492F0E94070E8D8D982F991FF4
:102C70009927991F87E062E0492F0E94070E82E0A2
:102C800062E041E00E94070E82E062E040E00E94C4
:102C9000070E80E090E0A0EAB0E4898F9A8FAB8FB6
:102CA000BC8F698D7A8D8B8D9C8D20E030E04AEF52
:102CB00054E40E941F02DC01CB018D8B9E8BAF8BF5
:102CC000B88F6D897E898F89988D20E030E040E84B
:102CD0005FE30E94790388232CF481E090E09C8BD1
:102CE0008B8B3FC06D897E898F89988D20E03FEF67
:102CF0004FE757E40E94190318164CF5698D7A8D39
:102D00008B8D9C8D20E030E040E251E40E941F0258
:102D1000DC01CB01BC01CD010E944900DC01CB01EB
:102D20009C8B8B8B0FC088EC90E09A8B898B898968
:102D30009A890197F1F79A8B898B8B899C890197E6
:102D40009C8B8B8B8B899C89009769F714C06D894C
:102D50007E898F89988D0E944900DC01CB019C8B74
:102D60008B8B8B899C89988B8F878F85988901970E
:102D7000F1F7988B8F878D8D982F917084E062E0AA
:102D8000492F0E94070E8D8D8695982F917085E0B2
:102D900062E0492F0E94070E8D8D86958695982FAB
:102DA000917086E062E0492F0E94070E8D8D869516
:102DB00086958695982F917087E062E0492F0E9452
:102DC000070E82E062E041E00E94070E82E062E0CE
:102DD00040E00E94070E80E090E0A0EAB0E48B871C
:102DE0009C87AD87BE876B857C858D859E8520E021
:102DF00030E04AEF54E40E941F02DC01CB018F83D4
:102E00009887A987BA876F81788589859A8520E018
:102E100030E040E85FE30E94790388232CF481E0EE
:102E200090E09E838D833FC06F81788589859A85E8
:102E300020E03FEF4FE757E40E94190318164CF5C6
:102E40006B857C858D859E8520E030E040E251E4F5
:102E50000E941F02DC01CB01BC01CD010E94490090
:102E6000DC01CB019E838D830FC088EC90E09C83B6
:102E70008B838B819C810197F1F79C838B838D8160
:102E80009E8101979E838D838D819E81009769F736
:102E900014C06F81788589859A850E944900DC017C
:102EA000CB019E838D838D819E819A8389838981C5
:102EB0009A810197F1F79A8389836D960FB6F894FA
:102EC000DEBF0FBECDBFCF91DF910895DF93CF93CB
:102ED000CDB7DEB76D970FB6F894DEBF0FBECDBF8E
:102EE0008D8F80E062E041E00E94070E81E062E0A9
:102EF00040E00E94070E8D8D82958F70982F917003
:102F000084E062E0492F0E94070E8D8D82958695A0
:102F10008770982F917085E062E0492F0E94070E1C
:102F20008D8D8295869586958370982F917086E019
:102F300062E0492F0E94070E8D8D982F991F9927C7
:102F4000991F87E062E0492F0E94070E82E062E04D
:102F500041E00E94070E82E062E040E00E94070E1E
:102F600080E090E0A0EAB0E4898F9A8FAB8FBC8FAD
:102F7000698D7A8D8B8D9C8D20E030E04AEF54E492
:102F80000E941F02DC01CB018D8B9E8BAF8BB88F13
:102F90006D897E898F89988D20E030E040E85FE37D
:102FA0000E94790388232CF481E090E09C8B8B8B2A
:102FB0003FC06D897E898F89988D20E03FEF4FE774
:102FC00057E40E94190318164CF5698D7A8D8B8D84
:102FD0009C8D20E030E040E251E40E941F02DC01C1
:102FE000CB01BC01CD010E944900DC01CB019C8BCF
:102FF0008B8B0FC088EC90E09A8B898B89899A899A
:103000000197F1F79A8B898B8B899C8901979C8B0F
:103010008B8B8B899C89009769F714C06D897E8999
:103020008F89988D0E944900DC01CB019C8B8B8B92
:103030008B899C89988B8F878F8598890197F1F769
:10304000988B8F878D8D982F917084E062E0492F47
:103050000E94070E8D8D8695982F917085E062E015
:10306000492F0E94070E8D8D86958695982F917019
:1030700086E062E0492F0E94070E8D8D8695869529
:103080008695982F917087E062E0492F0E94070E85
:1030900082E062E041E00E94070E82E062E040E0F0
:1030A0000E94070E80E090E0A0EAB0E48B879C8746
:1030B000AD87BE876B857C858D859E8520E030E061
:1030C0004AEF54E40E941F02DC01CB018F839887F2
:1030D000A987BA876F81788589859A8520E030E055
:1030E00040E85FE30E94790388232CF481E090E0BC
:1030F0009E838D833FC06F81788589859A8520E086
:103100003FEF4FE757E40E94190318164CF56B8503
:103110007C858D859E8520E030E040E251E40E9470
:103120001F02DC01CB01BC01CD010E944900DC0182
:10313000CB019E838D830FC088EC90E09C838B83B2
:103140008B819C810197F1F79C838B838D819E817C
:1031500001979E838D838D819E81009769F714C0AE
:103160006F81788589859A850E944900DC01CB01B1
:103170009E838D838D819E819A83898389819A81A3
:103180000197F1F79A8389836D960FB6F894DEBFA5
:103190000FBECDBFCF91DF910895DF93CF9300D0C5
:1031A0000F92CDB7DEB79B838A8319820FC08981C6
:1031B000282F30E08A819B81FC01E20FF31F908170
:1031C00089818F5F8983892F0E9466178981282FC3
:1031D00030E08A819B81FC01E20FF31F808188230C
:1031E00031F70F900F900F90CF91DF910895DF93FB
:1031F000CF93CDB7DEB72E970FB6F894DEBF0FBED4
:10320000CDBF81E00E94FF1580E090E0A0E0B0E437
:103210008B879C87AD87BE876B857C858D859E85DA
:1032200020E030E04AEF54E40E941F02DC01CB01B1
:103230008F839887A987BA876F81788589859A85D2
:1032400020E030E040E85FE30E94790388232CF41B
:1032500081E090E09E838D833FC06F817885898572
:103260009A8520E03FEF4FE757E40E9419031816B4
:103270004CF56B857C858D859E8520E030E040E2B5
:1032800051E40E941F02DC01CB01BC01CD010E9470
:103290004900DC01CB019E838D830FC088EC90E058
:1032A0009C838B838B819C810197F1F79C838B831B
:1032B0008D819E8101979E838D838D819E81009754
:1032C00069F714C06F81788589859A850E944900C5
:1032D000DC01CB019E838D838D819E819A838983BE
:1032E00089819A810197F1F79A8389832E960FB687
:1032F000F894DEBF0FBECDBFCF91DF910895DF936D
:10330000CF9300D000D0CDB7DEB789836A8389819F
:10331000282F30E03C832B838B819C81009731F0F8
:103320002B813C812130310531F009C08A818058E0
:103330000E94FF1504C08A8181540E94FF150F90DE
:103340000F900F900F90CF91DF9108950F931F93DF
:10335000DF93CF93CDB7DEB764970FB6F894DEBF97
:103360000FBECDBF698B7A8B8B8B9C8B1E821D828F
:103370008AE0FE013796DF01982F1D929A95E9F7B2
:1033800089899A89AB89BC89BB23DCF489899A89AC
:10339000AB89BC89B095A095909581959F4FAF4F13
:1033A000BF4F898B9A8BAB8BBC8B89899A89AB89F0
:1033B000BC8989839A83AB83BC838DE20E946617A4
:1033C0003BC089899A89AB89BC890097A105B10561
:1033D00099F580E30E9466172FC08E81082F112770
:1033E00007FD109589899A89AB89BC892AE030E06C
:1033F00040E050E0BC01CD010E94042ADC01CB0179
:10340000282FCE010796FC01E00FF11F20838E814B
:103410008F5F8E8389899A89AB89BC892AE030E0E5
:1034200040E050E0BC01CD010E94042ADA01C9014C
:10343000898B9A8BAB8BBC8B89899A89AB89BC8928
:103440000097A105B10549F68E8181508E8313C086
:103450008E81282F332727FD3095CE010796FC015A
:10346000E20FF31F8081982F905D8E8181508E83B3
:10347000892F0E9466178E81882354F764960FB6B1
:10348000F894DEBF0FBECDBFCF91DF911F910F919A
:103490000895EF92FF920F931F93DF93CF93CDB7D1
:1034A000DEB7A7970FB6F894DEBF0FBECDBF6CA3F3
:1034B0007DA38EA39FA31F861E866CA17DA18EA1D6
:1034C0009FA10E944900DC01CB018A879B87AC87C2
:1034D000BD878AE0FE017096DF01982F1D929A95B4
:1034E000E9F780E090E0A0E0B0E08E839F83A887BA
:1034F000B9876CA17DA18EA19FA120E030E040E0C2
:1035000050E00E9479038823C4F48CA19DA1AEA150
:10351000BFA1B0588CA39DA3AEA3BFA36CA17DA1F6
:103520008EA19FA10E944900DC01CB018A879B8765
:10353000AC87BD878DE20E9466176CA17DA18EA12C
:103540009FA120E030E040E85FE30E94F201DC014F
:10355000CB017C018D016A857B858C859D850E94D0
:10356000FD039B01AC01C801B7010E94C101DC0150
:10357000CB01BC01CD0120E836E948E15BE40E94C3
:103580001F02DC01CB018E839F83A887B9872FC0E0
:103590008F85082F112707FD10958A859B85AC859F
:1035A000BD852AE030E040E050E0BC01CD010E9442
:1035B000E229DC01CB01282FCE014096FC01E00F6F
:1035C000F11F20838F858F5F8F878A859B85AC85D0
:1035D000BD852AE030E040E050E0BC01CD010E9412
:1035E000E229DA01C9018A879B87AC87BD878A8572
:1035F0009B85AC85BD850097A105B10549F68F85F2
:103600008D838F8581508F8713C08F85282F332717
:1036100027FD3095CE014096FC01E20FF31F80811B
:10362000982F905D8F8581508F87892F0E94661714
:103630008F85882354F78AE0FE017A96DF01982F60
:103640001D929A95E9F71F866E817F8188859985FD
:103650000E944900DC01CB0189839A83AB83BC8340
:103660008EE20E9466172FC08F85082F112707FD55
:10367000109589819A81AB81BC812AE030E040E0DD
:1036800050E0BC01CD010E94E229DC01CB01282FD2
:10369000CE014A96FC01E00FF11F20838F858F5FDA
:1036A0008F8789819A81AB81BC812AE030E040E03C
:1036B00050E0BC01CD010E94E229DA01C9018983F1
:1036C0009A83AB83BC8389819A81AB81BC8100974B
:1036D000A105B10549F68F8582508F871E861CC0D3
:1036E0008E85282F332727FD3095CE014A96FC0181
:1036F000E20FF31F8081882349F58E85282F332719
:1037000027FD3095CE014A96FC01E20FF31F8BE6B0
:1037100080838E858F5F8E878E858A300CF316C0EE
:103720008F85282F332727FD3095CE014A96FC013F
:10373000E20FF31F8081982F905D8F8581508F87D6
:10374000892F0E9466178D818F5F8D838F85282F2B
:10375000332727FD3095CE014A96FC01E20FF31F77
:1037600080818B3619F08D818730D1F6A7960FB600
:10377000F894DEBF0FBECDBFCF91DF911F910F91A7
:10378000FF90EF900895DF93CF93CDB7DEB7A39767
:103790000FB6F894DEBF0FBECDBF8FEF8983CE0189
:1037A00005969E8B8D8BE2E3F2E0F88FEF8BF9E0CC
:1037B000F98FEF89F88D00808F89988D0196988F09
:1037C0008F8BED89FE8900828D899E8901969E8B63
:1037D0008D8B998D9150998FE98DEE2351F7CE0104
:1037E0000E969B8F8A8FEFE2F2E0FD8FEC8FF3E075
:1037F000FE8FEC8DFD8D00808C8D9D8D01969D8FB3
:103800008C8FEA8DFB8D00828A8D9B8D01969B8F1C
:103810008A8F9E8D91509E8FEE8DEE2351F7CE01B3
:10382000419698A38F8FECE2F2E0FAA3E9A3F3E0CC
:10383000FBA3E9A1FAA1008089A19AA101969AA30C
:1038400089A3EF8DF8A100828F8D98A1019698A38E
:103850008F8F9BA191509BA3EBA1EE2351F71C826C
:1038600060C08C81282F30E0CE010E96FC01E20F63
:10387000F31F808160E040E00E94070E1B823DC084
:103880008B81282F30E0CE014196FC01E20FF31F1F
:10389000808160E00E94940F8A838A81882351F599
:1038A0008B81282F30E08C81482F50E0C901880F90
:1038B000991F820F931F9E012F5F3F4F820F931F0F
:1038C000840F951FFC013496808189830DC08B8104
:1038D000282F30E0CE014196FC01E20FF31F8081DA
:1038E00060E00E94940F8A838A81882381F3F981A2
:1038F000FC8B1DC08B818F5F8B838B81833008F4A1
:10390000BFCF8C81282F30E0CE010E96FC01E20F54
:10391000F31F808160E041E00E94070E8C818F5F81
:103920008C838C81833008F49CCF89818C8B8C892B
:10393000A3960FB6F894DEBF0FBECDBFCF91DF9137
:103940000895DF93CF9300D0CDB7DEB789836A8324
:1039500089816A8141E00E94FF0C89816A8140E08F
:103960000E94070E0F900F90CF91DF910895DF9383
:10397000CF9300D0CDB7DEB789836A8389816A810E
:1039800041E00E94070E0F900F90CF91DF910895B4
:10399000DF93CF9300D0CDB7DEB789836A83898167
:1039A0006A8140E00E94070E0F900F90CF91DF9147
:1039B0000895DF93CF9300D0CDB7DEB789836A83B4
:1039C00089816A810E940F0F0F900F90CF91DF9134
:1039D0000895DF93CF93CDB7DEB760970FB6F89415
:1039E000DEBF0FBECDBF8F87688B8F85688941E0B2
:1039F0000E94070E80E090E0A8E4B3E48B879C87E8
:103A0000AD87BE876B857C858D859E8520E030E007
:103A10004AEF54E40E941F02DC01CB018F83988798
:103A2000A987BA876F81788589859A8520E030E0FB
:103A300040E85FE30E94790388232CF481E090E062
:103A40009E838D833FC06F81788589859A8520E02C
:103A50003FEF4FE757E40E94190318164CF56B85AA
:103A60007C858D859E8520E030E040E251E40E9417
:103A70001F02DC01CB01BC01CD010E944900DC0129
:103A8000CB019E838D830FC088EC90E09C838B8359
:103A90008B819C810197F1F79C838B838D819E8123
:103AA00001979E838D838D819E81009769F714C055
:103AB0006F81788589859A850E944900DC01CB0158
:103AC0009E838D838D819E819A83898389819A814A
:103AD0000197F1F79A8389838F85688940E00E9476
:103AE000070E60960FB6F894DEBF0FBECDBFCF9124
:103AF000DF910895DF93CF93CDB7DEB7AC970FB6C4
:103B0000F894DEBF0FBECDBF8BA76CA78BA56CA5AD
:103B100041E00E94070E80E090E0A8E4B3E48FA3A8
:103B200098A7A9A7BAA76FA178A589A59AA520E00B
:103B300030E04AEF54E40E941F02DC01CB018BA36A
:103B40009CA3ADA3BEA36BA17CA18DA19EA120E0EF
:103B500030E040E85FE30E94790388232CF481E0A1
:103B600090E09AA389A33FC06BA17CA18DA19EA1E7
:103B700020E03FEF4FE757E40E94190318164CF579
:103B80006FA178A589A59AA520E030E040E251E434
:103B90000E941F02DC01CB01BC01CD010E94490043
:103BA000DC01CB019AA389A30FC088EC90E098A315
:103BB0008F8F8F8D98A10197F1F798A38F8F89A18F
:103BC0009AA101979AA389A389A19AA1009769F75D
:103BD00014C06BA17CA18DA19EA10E944900DC01B3
:103BE000CB019AA389A389A19AA19E8F8D8F8D8DD8
:103BF0009E8D0197F1F79E8F8D8F8BA56CA540E070
:103C00000E94070E80E090E0A8E4B3E4898F9A8FC9
:103C1000AB8FBC8F698D7A8D8B8D9C8D20E030E0D1
:103C20004AEF54E40E941F02DC01CB018D8B9E8B76
:103C3000AF8BB88F6D897E898F89988D20E030E0B9
:103C400040E85FE30E94790388232CF481E090E050
:103C50009C8B8B8B3FC06D897E898F89988D20E0EE
:103C60003FEF4FE757E40E94190318164CF5698D92
:103C70007A8D8B8D9C8D20E030E040E251E40E94F3
:103C80001F02DC01CB01BC01CD010E944900DC0117
:103C9000CB019C8B8B8B0FC088EC90E09A8B898B2F
:103CA00089899A890197F1F79A8B898B8B899C89ED
:103CB00001979C8B8B8B8B899C89009769F714C02B
:103CC0006D897E898F89988D0E944900DC01CB0126
:103CD0009C8B8B8B8B899C89988B8F878F85988900
:103CE0000197F1F7988B8F878BA56CA541E00E9417
:103CF000070E80E090E0A8E4B3E48B879C87AD8753
:103D0000BE876B857C858D859E8520E030E04AEFFF
:103D100054E40E941F02DC01CB018F839887A9879E
:103D2000BA876F81788589859A8520E030E040E800
:103D30005FE30E94790388232CF481E090E09E8366
:103D40008D833FC06F81788589859A8520E03FEF1C
:103D50004FE757E40E94190318164CF56B857C85D4
:103D60008D859E8520E030E040E251E40E941F02F4
:103D7000DC01CB01BC01CD010E944900DC01CB017B
:103D80009E838D830FC088EC90E09C838B838B8116
:103D90009C810197F1F79C838B838D819E81019794
:103DA0009E838D838D819E81009769F714C06F81FA
:103DB000788589859A850E944900DC01CB019E8324
:103DC0008D838D819E819A83898389819A810197D0
:103DD000F1F79A8389838BA56CA540E00E94070EBA
:103DE000AC960FB6F894DEBF0FBECDBFCF91DF917A
:103DF00008950F931F93DF93CF93CDB7DEB7C854C9
:103E0000D0400FB6F894DEBF0FBECDBFFE01E95B18
:103E1000FF4F8083FE01E85BFF4F6083FE01E95B9B
:103E2000FF4FDE01A85BBF4F80816C9141E00E9493
:103E3000070EFE01ED5BFF4F80E090E0A8E4B3E4E5
:103E400080839183A283B3838E01015C1F4FFE01A7
:103E5000ED5BFF4F608171818281938120E030E0D2
:103E60004AEF54E40E941F02DC01CB01F801808379
:103E70009183A283B383FE01FF9660817181828169
:103E8000938120E030E040E85FE30E9479038823DB
:103E90002CF481E090E09EAF8DAF46C0FE01FF960E
:103EA000608171818281938120E03FEF4FE757E489
:103EB0000E941903181664F5FE01ED5BFF4F608147
:103EC00071818281938120E030E040E251E40E94E0
:103ED0001F02DC01CB01BC01CD010E944900DC01C5
:103EE000CB019EAF8DAF0FC088EC90E09CAF8BAF45
:103EF0008BAD9CAD0197F1F79CAF8BAF8DAD9EADB7
:103F000001979EAF8DAF8DAD9EAD009769F716C03E
:103F1000FE01FF9660817181828193810E94490038
:103F2000DC01CB019EAF8DAF8DAD9EAD9AAF89AF59
:103F300089AD9AAD0197F1F79AAF89AFFE01E95BC0
:103F4000FF4FDE01A85BBF4F80816C9140E00E9473
:103F5000070E80E090E0A8E4B3E48DAB9EABAFAB7E
:103F6000B8AF6DA97EA98FA998AD20E030E04AEFE7
:103F700054E40E941F02DC01CB0189AB9AABABABCE
:103F8000BCAB69A97AA98BA99CA920E030E040E8E4
:103F90005FE30E94790388232CF481E090E098ABE2
:103FA0008FA73FC069A97AA98BA99CA920E03FEF00
:103FB0004FE757E40E94190318164CF56DA97EA926
:103FC0008FA998AD20E030E040E251E40E941F024A
:103FD000DC01CB01BC01CD010E944900DC01CB0119
:103FE00098AB8FA70FC088EC90E09EA78DA78DA5FA
:103FF0009EA50197F1F79EA78DA78FA598A9019778
:1040000098AB8FA78FA598A9009769F714C069A9E5
:104010007AA98BA99CA90E944900DC01CB0198AB2D
:104020008FA78FA598A99CA78BA78BA59CA5019767
:10403000F1F79CA78BA7FE01E95BFF4FDE01A85BB0
:10404000BF4F80816C9141E00E94070E80E090E0BC
:10405000A8E4B3E48FA398A7A9A7BAA76FA178A5EE
:1040600089A59AA520E030E04AEF54E40E941F029F
:10407000DC01CB018BA39CA3ADA3BEA36BA17CA150
:104080008DA19EA120E030E040E85FE30E9479032B
:1040900088232CF481E090E09AA389A33FC06BA110
:1040A0007CA18DA19EA120E03FEF4FE757E40E9445
:1040B000190318164CF56FA178A589A59AA520E0DB
:1040C00030E040E251E40E941F02DC01CB01BC0160
:1040D000CD010E944900DC01CB019AA389A30FC046
:1040E00088EC90E098A38F8F8F8D98A10197F1F7BE
:1040F00098A38F8F89A19AA101979AA389A389A1D7
:104100009AA1009769F714C06BA17CA18DA19EA113
:104110000E944900DC01CB019AA389A389A19AA13D
:104120009E8F8D8F8D8D9E8D0197F1F79E8F8D8F38
:10413000FE01E95BFF4FDE01A85BBF4F80816C9100
:1041400040E00E94070E80E090E0A8E4B3E4898F8D
:104150009A8FAB8FBC8F698D7A8D8B8D9C8D20E073
:1041600030E04AEF54E40E941F02DC01CB018D8B4A
:104170009E8BAF8BB88F6D897E898F89988D20E05B
:1041800030E040E85FE30E94790388232CF481E06B
:1041900090E09C8B8B8B3FC06D897E898F89988D39
:1041A00020E03FEF4FE757E40E94190318164CF543
:1041B000698D7A8D8B8D9C8D20E030E040E251E45A
:1041C0000E941F02DC01CB01BC01CD010E9449000D
:1041D000DC01CB019C8B8B8B0FC088EC90E09A8B21
:1041E000898B89899A890197F1F79A8B898B8B89B9
:1041F0009C8901979C8B8B8B8B899C89009769F795
:1042000014C06D897E898F89988D0E944900DC01D8
:10421000CB019C8B8B8B8B899C89988B8F878F850F
:1042200098890197F1F7988B8F87FE01E95BFF4F23
:10423000DE01A85BBF4F80816C9141E00E94070EB8
:1042400080E090E0A8E4B3E48B879C87AD87BE87CD
:104250006B857C858D859E8520E030E04AEF54E4B7
:104260000E941F02DC01CB018F839887A987BA8740
:104270006F81788589859A8520E030E040E85FE3AA
:104280000E94790388232CF481E090E09E838D8343
:104290003FC06F81788589859A8520E03FEF4FE7A1
:1042A00057E40E94190318164CF56B857C858D85A3
:1042B0009E8520E030E040E251E40E941F02DC01D4
:1042C000CB01BC01CD010E944900DC01CB019E83E2
:1042D0008D830FC088EC90E09C838B838B819C81C5
:1042E0000197F1F79C838B838D819E8101979E833B
:1042F0008D838D819E81009769F714C06F817885C9
:1043000089859A850E944900DC01CB019E838D83BB
:104310008D819E819A83898389819A810197F1F7A2
:104320009A838983FE01E95BFF4FDE01A85BBF4FE3
:1043300080816C9140E00E94070EC85BDF4F0FB692
:10434000F894DEBF0FBECDBFCF91DF911F910F91CB
:104350000895DF93CF9300D0CDB7DEB789836A830A
:1043600089816A8141E00E94070E0F900F90CF91E2
:10437000DF910895DF93CF93CDB7DEB786E063E09A
:104380000E94A11C0E94741380E065E00E947F19C6
:1043900080E690E00E94CD1881E064E00E947F19E1
:1043A00088E690E00E94CD1880E061E00E942C1326
:1043B00081E061E00E942C1382E061E00E942C13F6
:1043C00083E061E00E942C1384E061E00E942C13E2
:1043D00085E061E00E942C1386E061E00E942C13CE
:1043E00087E061E00E942C1387E063E041E00E94D7
:1043F000FF0C80E060E040E00E94FF0C81E060E0A4
:1044000040E00E94FF0C0E942A110E94A60868EE5C
:1044100073E080E090E00E94C9080E944A0984E3AA
:1044200092E20E94E80980E06CE10E94151080E0B1
:104430006CEF0E94561083E063E040E00E94FF0CA6
:1044400083E063E041E00E94070E85E063E041E025
:104450000E94FF0C0E94150B0E94DD0A83E394E288
:1044600061E00E94470CFFCFDF93CF9300D0CDB720
:10447000DEB70E94F71880E060E00E947F1984E7B1
:1044800090E00E94CD1880E00E9464119A83898395
:1044900089819A81CC01A0E0B0E0BC01CD010E94ED
:1044A000FD03DC01CB01BC01CD0120E030E44CE98F
:1044B00050E40E941F02DC01CB01BC01CD010E942F
:1044C0004900DC01CB019A83898389819A812AE0A2
:1044D00030E0B9010E94CE29CB01CC01A0E0B0E0D0
:1044E000BC01CD010E94A61983E40E946617898150
:1044F0009A8121E08430920770F080E069E00E94A8
:104500007F198AE790E00E94CD1887E063E041E0E0
:104510000E94070E0DC080E069E00E947F1981E8CB
:1045200090E00E94CD1887E063E040E00E94070E13
:1045300089819A8121E08A39920720F086E063E040
:104540000E94D91C0E94A9220F900F90CF91DF9159
:104550000895DF93CF9300D0CDB7DEB781E060E060
:104560000E947F1989E890E00E94CD1881E00E94A6
:1045700064119A83898329813A8184E690E0AC01B1
:10458000249FC001259F900D349F900D1124892FE9
:10459000992786958695CC01A0E0B0E0BC01CD01BD
:1045A0000E94A61985E20E94661789819A81843645
:1045B000910578F581E06BE00E947F1981E990E038
:1045C0000E94CD1868E070E080E090E00E94A6199B
:1045D00080E061E00E94421381E061E00E944213AA
:1045E00082E061E00E94421383E061E00E94421396
:1045F00084E061E00E94421385E061E00E94421382
:1046000086E061E00E94421387E061E00E9442136D
:1046100025C189819A8184369105A8F189819A8181
:1046200051E08C32950778F581E06BE00E947F19AC
:1046300081E990E00E94CD1867E070E080E090E0B2
:104640000E94A61980E061E00E94421381E061E0CF
:104650000E94421382E061E00E94421383E061E025
:104660000E94421384E061E00E94421385E061E011
:104670000E94421386E061E00E94421387E061E0FD
:104680000E945313EBC089819A8121E08C329207FA
:10469000A8F189819A8141E0843F940778F581E00F
:1046A0006BE00E947F1981E990E00E94CD1866E0DE
:1046B00070E080E090E00E94A61980E061E00E9436
:1046C000421381E061E00E94421382E061E00E94B7
:1046D000421383E061E00E94421384E061E00E94A3
:1046E000421385E061E00E94421386E061E00E948F
:1046F000531387E061E00E945313B0C089819A810F
:1047000051E0843F9507A8F189819A8122E08C3B92
:10471000920778F581E06BE00E947F1981E990E0D3
:104720000E94CD1865E070E080E090E00E94A6193C
:1047300080E061E00E94421381E061E00E94421348
:1047400082E061E00E94421383E061E00E94421334
:1047500084E061E00E94421385E061E00E9453130F
:1047600086E061E00E94531387E061E00E945313EA
:1047700075C089819A8142E08C3B9407A8F18981B8
:104780009A8153E08438950778F581E06BE00E94C8
:104790007F1981E990E00E94CD1864E070E080E02C
:1047A00090E00E94A61980E061E00E94421381E03F
:1047B00061E00E94421382E061E00E94421383E0C4
:1047C00061E00E94421384E061E00E94531385E09F
:1047D00061E00E94531386E061E00E94531387E07A
:1047E00061E00E9453133AC089819A8123E08438A2
:1047F0009207A0F189819A8144E08030940770F596
:1048000081E06BE00E947F1981E990E00E94CD1861
:1048100062E070E080E090E00E94A61980E061E034
:104820000E94421381E061E00E94421382E061E055
:104830000E94531383E061E00E94531384E061E01F
:104840000E94531385E061E00E94531386E061E00B
:104850000E94531387E061E00E9453130F900F9062
:10486000CF91DF9108950F931F93DF93CF93CDB72F
:10487000DEB7C057D0400FB6F894DEBF0FBECDBF35
:1048800082E090E0A0E0B0E08093280290932902BB
:10489000A0932A02B0932B0287E990E00E94CD18E2
:1048A000FE01E359FF4F80E090E0AAE7B4E4808383
:1048B0009183A283B3838E0107591F4FFE01E359F1
:1048C000FF4F608171818281938120E030E04AEF67
:1048D00054E40E941F02DC01CB01F8018083918324
:1048E000A283B383FE01E759FF4F6081718182810A
:1048F000938120E030E040E85FE30E947903882361
:1049000044F4FE01E959FF4F81E090E091838083F8
:1049100064C0FE01E759FF4F6081718182819381FC
:1049200020E03FEF4FE757E40E94190318160CF000
:1049300043C0FE01E359FF4F608171818281938101
:1049400020E030E040E251E40E941F02DC01CB0194
:104950008E0109591F4FBC01CD010E944900DC01A5
:10496000CB01F801918380831FC0FE01EB59FF4FFB
:1049700088EC90E091838083FE01EB59FF4F8081AA
:1049800091810197F1F7FE01EB59FF4F91838083ED
:10499000DE01A959BF4FFE01E959FF4F8081918186
:1049A000019711969C938E93FE01E959FF4F8081E8
:1049B00091810097D1F627C08E0109591F4FFE0142
:1049C000E759FF4F60817181828193810E94490084
:1049D000DC01CB01F80191838083DE01AD59BF4F2B
:1049E000FE01E959FF4F808191818D939C93FE01D7
:1049F000ED59FF4F808191810197F1F7FE01ED594B
:104A0000FF4F91838083109266020E94F71882EA1A
:104A100090E00E94CD1881E061E00E947F19FCC007
:104A200080916F02833661F40E94F71882EA90E069
:104A30000E94CD1881E061E00E947F191092660209
:104A400080916F02813308F4D6C080916F02873362
:104A500008F0D1C080916F020E946617FE01E15AF2
:104A6000FF4F80E090E0A0E2B1E480839183A283D5
:104A7000B3838E01055A1F4FFE01E15AFF4F60813B
:104A800071818281938120E030E04AEF54E40E94FA
:104A90001F02DC01CB01F80180839183A283B383E1
:104AA000FE01E55AFF4F608171818281938120E090
:104AB00030E040E85FE30E947903882344F4FE017C
:104AC000E75AFF4F81E090E09183808364C0FE014C
:104AD000E55AFF4F608171818281938120E03FEF31
:104AE0004FE757E40E94190318160CF043C0FE016B
:104AF000E15AFF4F608171818281938120E030E033
:104B000040E251E40E941F02DC01CB018E01075AF2
:104B10001F4FBC01CD010E944900DC01CB01F8010F
:104B2000918380831FC0FE01E95AFF4F88EC90E01B
:104B300091838083FE01E95AFF4F80819181019723
:104B4000F1F7FE01E95AFF4F91838083DE01A75AF6
:104B5000BF4FFE01E75AFF4F808191810197119667
:104B60009C938E93FE01E75AFF4F808191810097BD
:104B7000D1F627C08E01075A1F4FFE01E55AFF4F9D
:104B800060817181828193810E944900DC01CB01A7
:104B9000F80191838083DE01AB5ABF4FFE01E75AD3
:104BA000FF4F808191818D939C93FE01EB5AFF4FC3
:104BB000808191810197F1F7FE01EB5AFF4F9183BC
:104BC000808380916602982F9F5F81E0692F0E9409
:104BD0007F198AE20E94661780916602882F90E012
:104BE00020916F02FC01E25EFD4F208380916602FE
:104BF0008F5F809366020E94C31B80936F0204C084
:104C00000E94C31B80936F0280916F028F3FC1F39C
:104C100086E063E00E94E91C80916F02853609F00E
:104C2000FFCE80916602882F90E0FC01E25EFD4F8E
:104C300010828FEF80936F020E94F71880911E02FE
:104C4000813309F0DCC180911F02823309F0D7C1A2
:104C500080912002833309F0D2C1809121028433F4
:104C600009F0CDC181EB90E00E94CD1881E060E0B9
:104C70000E947F198DEB90E00E94CD18FE01EF5A43
:104C8000FF4F80E090E0AAEFB3E480839183A2839A
:104C9000B3838E01035B1F4FFE01EF5AFF4F60810C
:104CA00071818281938120E030E04AEF54E40E94D8
:104CB0001F02DC01CB01F80180839183A283B383BF
:104CC000FE01E35BFF4F608171818281938120E06F
:104CD00030E040E85FE30E947903882344F4FE015A
:104CE000E55BFF4F81E090E09183808364C0FE012B
:104CF000E35BFF4F608171818281938120E03FEF10
:104D00004FE757E40E94190318160CF043C0FE0148
:104D1000EF5AFF4F608171818281938120E030E002
:104D200040E251E40E941F02DC01CB018E01055BD1
:104D30001F4FBC01CD010E944900DC01CB01F801ED
:104D4000918380831FC0FE01E75BFF4F88EC90E0FA
:104D500091838083FE01E75BFF4F80819181019702
:104D6000F1F7FE01E75BFF4F91838083DE01A55BD6
:104D7000BF4FFE01E55BFF4F808191810197119646
:104D80009C938E93FE01E55BFF4F8081918100979C
:104D9000D1F627C08E01055B1F4FFE01E35BFF4F7D
:104DA00060817181828193810E944900DC01CB0185
:104DB000F80191838083DE01A95BBF4FFE01E55BB3
:104DC000FF4F808191818D939C93FE01E95BFF4FA2
:104DD000808191810197F1F7FE01E95BFF4F91839B
:104DE00080830E94F71880ED90E00E94CD188CEB34
:104DF00092E00E94A012FE01ED5BFF4F80E090E088
:104E0000AAEFB4E480839183A283B3838E01015C13
:104E10001F4FFE01ED5BFF4F6081718182819381A5
:104E200020E030E04AEF54E40E941F02DC01CB0195
:104E3000F80180839183A283B383FE01FF96608192
:104E400071818281938120E030E040E85FE30E943D
:104E5000790388232CF481E090E09EAF8DAF46C0AB
:104E6000FE01FF96608171818281938120E03FEF96
:104E70004FE757E40E941903181664F5FE01ED5B35
:104E8000FF4F608171818281938120E030E040E2B8
:104E900051E40E941F02DC01CB01BC01CD010E9444
:104EA0004900DC01CB019EAF8DAF0FC088EC90E0D4
:104EB0009CAF8BAF8BAD9CAD0197F1F79CAF8BAFE7
:104EC0008DAD9EAD01979EAF8DAF8DAD9EAD009720
:104ED00069F716C0FE01FF9660817181828193811E
:104EE0000E944900DC01CB019EAF8DAF8DAD9EAD20
:104EF0009AAF89AF89AD9AAD0197F1F79AAF89AFB3
:104F00000E94F71880E496E00E94A0128CED90E0D9
:104F10000E94CD1880E090E0AAEFB4E48DAB9EAB88
:104F2000AFABB8AF6DA97EA98FA998AD20E030E0F6
:104F30004AEF54E40E941F02DC01CB0189AB9AAB1B
:104F4000ABABBCAB69A97AA98BA99CA920E030E0E6
:104F500040E85FE30E94790388232CF481E090E02D
:104F600098AB8FA73FC069A97AA98BA99CA920E01B
:104F70003FEF4FE757E40E94190318164CF56DA94F
:104F80007EA98FA998AD20E030E040E251E40E9474
:104F90001F02DC01CB01BC01CD010E944900DC01F4
:104FA000CB0198AB8FA70FC088EC90E09EA78DA790
:104FB0008DA59EA50197F1F79EA78DA78FA598A90E
:104FC000019798AB8FA78FA598A9009769F714C090
:104FD00069A97AA98BA99CA90E944900DC01CB018F
:104FE00098AB8FA78FA598A99CA78BA78BA59CA5ED
:104FF0000197F1F79CA78BA70E94F718A4C186E040
:1050000063E00E947A1D86EE90E00E94CD1880E059
:1050100090E0AAEFB3E48FA398A7A9A7BAA76FA1BE
:1050200078A589A59AA520E030E04AEF54E40E94D3
:105030001F02DC01CB018BA39CA3ADA3BEA36BA17C
:105040007CA18DA19EA120E030E040E85FE30E94BA
:10505000790388232CF481E090E09AA389A33FC0D0
:105060006BA17CA18DA19EA120E03FEF4FE757E40B
:105070000E94190318164CF56FA178A589A59AA569
:1050800020E030E040E251E40E941F02DC01CB014D
:10509000BC01CD010E944900DC01CB019AA389A388
:1050A0000FC088EC90E098A38F8F8F8D98A1019707
:1050B000F1F798A38F8F89A19AA101979AA389A349
:1050C00089A19AA1009769F714C06BA17CA18DA159
:1050D0009EA10E944900DC01CB019AA389A389A16A
:1050E0009AA19E8F8D8F8D8D9E8D0197F1F79E8F4A
:1050F0008D8F0E94F7188091280290912902A0912B
:105100002A02B0912B020097A105B10509F07BC0DE
:105110000E94F71880EF90E00E94CD1880E090E0A8
:10512000AAEFB3E4898F9A8FAB8FBC8F698D7A8D8C
:105130008B8D9C8D20E030E04AEF54E40E941F02EA
:10514000DC01CB018D8B9E8BAF8BB88F6D897E89F7
:105150008F89988D20E030E040E85FE30E9479037A
:1051600088232CF481E090E09C8B8B8B3FC06D8971
:105170007E898F89988D20E03FEF4FE757E40E94AA
:10518000190318164CF5698D7A8D8B8D9C8D20E056
:1051900030E040E251E40E941F02DC01CB01BC017F
:1051A000CD010E944900DC01CB019C8B8B8B0FC091
:1051B00088EC90E09A8B898B89899A890197F1F71D
:1051C0009A8B898B8B899C8901979C8B8B8B8B8984
:1051D0009C89009769F714C06D897E898F89988DA5
:1051E0000E944900DC01CB019C8B8B8B8B899C89B5
:1051F000988B8F878F8598890197F1F7988B8F8788
:1052000010926602A0C083E091E00E94CD1881E078
:1052100063E00E947F198091280290912902A09159
:105220002A02B0912B02BC01CD010E94A6198EE08A
:1052300091E00E94CD1880E090E0AAEFB3E48B8764
:105240009C87AD87BE876B857C858D859E8520E09C
:1052500030E04AEF54E40E941F02DC01CB018F834F
:105260009887A987BA876F81788589859A8520E094
:1052700030E040E85FE30E94790388232CF481E06A
:1052800090E09E838D833FC06F81788589859A8564
:1052900020E03FEF4FE757E40E94190318164CF542
:1052A0006B857C858D859E8520E030E040E251E471
:1052B0000E941F02DC01CB01BC01CD010E9449000C
:1052C000DC01CB019E838D830FC088EC90E09C8332
:1052D0008B838B819C810197F1F79C838B838D81DC
:1052E0009E8101979E838D838D819E81009769F7B2
:1052F00014C06F81788589859A850E944900DC01F8
:10530000CB019E838D838D819E819A838983898140
:105310009A810197F1F79A8389830E94F718809107
:10532000280290912902A0912A02B0912B020197A4
:10533000A109B1098093280290932902A0932A021F
:10534000B0932B0260CBC059DF4F0FB6F894DEBF8D
:105350000FBECDBFCF91DF911F910F910895629F36
:10536000D001739FF001829FE00DF11D649FE00D5D
:10537000F11D929FF00D839FF00D749FF00D659FBE
:10538000F00D9927729FB00DE11DF91F639FB00DBD
:10539000E11DF91FBD01CF0111240895AA1BBB1BFC
:1053A00051E107C0AA1FBB1FA617B70710F0A61B25
:1053B000B70B881F991F5A95A9F780959095BC0146
:1053C000CD010895A1E21A2EAA1BBB1BFD010DC041
:1053D000AA1FBB1FEE1FFF1FA217B307E407F507A5
:1053E00020F0A21BB30BE40BF50B661F771F881F81
:1053F000991F1A9469F760957095809590959B0117
:10540000AC01BD01CF01089597FB092E05260ED0F2
:1054100057FD04D0D7DF0AD0001C38F450954095D2
:10542000309521953F4F4F4F5F4F0895F6F7909578
:105430008095709561957F4F8F4F9F4F08952F9264
:105440003F924F925F926F927F928F929F92AF9214
:10545000BF92CF92DF92EF92FF920F931F93CF9361
:10546000DF93CDB7DEB7CA1BDB0B0FB6F894DEBFF8
:105470000FBECDBF09942A88398848885F846E841E
:105480007D848C849B84AA84B984C884DF80EE8068
:10549000FD800C811B81AA81B981CE0FD11D0FB671
:1054A000F894DEBF0FBECDBFED010895F894FFCF95
:1054B00057454C434F4D4500534D415254202048D1
:1054C0004F4D450054454D503A0046616E3A4F4E9F
:1054D0000046616E3A4F4646004272696768743A08
:1054E000004C4544533A0057656C636F6D65203A34
:1054F0002900596F75722050617373776F72643A27
:105500000053756363657373203A292000537973E0
:1055100074656D204F70656E696E672E2E2E2E009D
:10552000446F6F72204F70656E656400476F6F64E3
:1055300020427965210057726F6E67203A2820005B
:1055400053797374656D20436C6F73696E672E2E8B
:105550002E2E0054727920416761696E200020432D
:1055600068616E636500000000000000000000013B
:1055700002020303030304040404040404040505F1
:1055800005050505050505050505050505050606C9
:1055900006060606060606060606060606060606AB
:1055A0000606060606060606060606060606070799
:1055B000070707070707070707070707070707077B
:1055C000070707070707070707070707070707076B
:1055D000070707070707070707070707070707075B
:1055E0000707070707070707070707070707080849
:1055F000080808080808080808080808080808082B
:10560000080808080808080808080808080808081A
:10561000080808080808080808080808080808080A
:1056200008080808080808080808080808080808FA
:1056300008080808080808080808080808080808EA
:1056400008080808080808080808080808080808DA
:1056500008080808080808080808080808080808CA
:1056600008080808080808080808080808080000CA
:105670000000000000000000020000000506070214
:0C568000030431323334353663646500B6
:00000001FF
