:100000000C942A000C94F4070C9427080C945A08BA
:100010000C9447000C9447000C9447000C94470044
:100020000C9447000C9447000C9447000C94470034
:100030000C9447000C9447000C9447000C94470024
:100040000C9447000C9447000C9447000C94470014
:100050000C94470011241FBECFE5D8E0DEBFCDBF12
:1000600011E0A0E6B0E0E0EBF1E402C005900D92F3
:10007000A83FB107D9F711E0A8EFB1E001C01D9288
:10008000AF3FB107E1F70E949A1A0C94D6200C9466
:100090000000EF92FF920F931F937B018C0120E0F1
:1000A00030E040E05FE40E94490388238CF0C801FF
:1000B000B70120E030E040E05FE40E94C1010E940F
:1000C000A9039B01AC01205030404040504806C07D
:1000D000C801B7010E94A9039B01AC01B901CA0183
:1000E0001F910F91FF90EF900895A0E0B0E0EBE733
:1000F000F0E00C949F20DC012B01FA019C919230DE
:1001000008F439C1EB018881823008F433C194309E
:1001100069F4843009F02FC111969C91119789815F
:10012000981709F428C1A0EEB0E025C1843009F485
:1001300021C18230A9F4923009F01DC19A01AD01AC
:1001400088E0EA010990AE01E90109929E0181501F
:10015000C1F7E201898111969C918923818308C1AD
:10016000923009F407C112962D903C901397EB0141
:100170008A819B811496AD90BD90CD90DC901797AD
:10018000EC80FD800E811F819101281B390BB90184
:1001900037FF04C066277727621B730B6032710537
:1001A0000CF061C0121613066CF537014801062EDB
:1001B00004C096948794779467940A94D2F721E0C8
:1001C00030E040E050E004C0220F331F441F551FB1
:1001D0006A95D2F721503040404050402E213F21B7
:1001E00040235123211531054105510521F021E01E
:1001F00030E040E050E079018A01E628F72808293C
:1002000019293CC0232BD1F1260E371E350146019A
:10021000062E04C096948794779467940A94D2F734
:1002200021E030E040E050E004C0220F331F441FC3
:10023000551F6A95D2F721503040404050402A2146
:100240003B214C215D21211531054105510521F04E
:1002500021E030E040E050E059016A01A628B728CB
:10026000C828D9280BC0821593052CF01C01AA249C
:10027000BB24650103C0EE24FF24870111969C91E5
:10028000D20111968C91981709F445C0992339F041
:10029000A80197012A193B094C095D0906C0A6016E
:1002A00095012E193F09400B510B57FD08C01182D3
:1002B0003382228224833583468357831DC081E0A5
:1002C00081833382228288279927DC01821B930B4A
:1002D000A40BB50B84839583A683B7830DC0220F2F
:1002E000331F441F551F24833583468357838281E0
:1002F000938101979383828324813581468157813D
:10030000DA01C9010197A109B1098F5F9F4FAF4F72
:10031000BF4328F30BC0918333822282EA0CFB1C7B
:100320000C1D1D1DE482F5820683178383E0808304
:10033000248135814681578157FF1AC0C901AA27F8
:1003400097FDA095BA2F81709070A070B0705695EF
:10035000479537952795822B932BA42BB52B848318
:100360009583A683B7838281938101969383828349
:10037000DF0101C0D201CD01CDB7DEB7E2E10C94BF
:10038000BB20A0E2B0E0E7ECF1E00C94AB20698385
:100390007A838B839C832D833E834F835887E9E048
:1003A000EE2EF12CEC0EFD1ECE010196B7010E943F
:1003B0009A058E010F5E1F4FCE010596B8010E946F
:1003C0009A058A8991E089278A8BC701B801AE0115
:1003D000475E5F4F0E9475000E94C504A096E6E04C
:1003E0000C94C720A0E2B0E0E8EFF1E00C94AB2061
:1003F00069837A838B839C832D833E834F835887C5
:10040000F9E0EF2EF12CEC0EFD1ECE010196B701A6
:100410000E949A058E010F5E1F4FCE010596B8010E
:100420000E949A05C701B801AE01475E5F4F0E9466
:1004300075000E94C504A096E6E00C94C720A0E2D7
:10044000B0E0E5E2F2E00C949F2069837A838B832D
:100450009C832D833E834F835887CE010196BE0136
:10046000675F7F4F0E949A05CE010596BE016F5EC1
:100470007F4F0E949A059985923088F08989823051
:10048000C8F0943019F4823051F404C0843029F457
:10049000923081F480EE90E0C6C0923049F420E0C2
:1004A0009A858A89981321E02A87CE010996BBC0D4
:1004B000823049F420E09A858A89981321E02A8BBA
:1004C000CE014196B0C02D843E844F8458886D88FB
:1004D0007E888F88988CEE24FF248701AA24BB2471
:1004E000650140E050E060E070E0E0E0F0E0C10174
:1004F00081709070892BE9F0E60CF71C081D191D1E
:100500009A01AB012A0D3B1D4C1D5D1D80E090E062
:10051000A0E0B0E0E614F7040805190520F481E036
:1005200090E0A0E0B0E0BA01A901480F591F6A1F8E
:100530007B1FAA0CBB1CCC1CDD1C97FE08C081E0F5
:1005400090E0A0E0B0E0A82AB92ACA2ADB2A3196B6
:10055000E032F10549F0660C771C881C991C569412
:10056000479437942794C3CFFA85EA892B893C892D
:100570008B859C85280F391F2E5F3F4F17C0CA01FE
:1005800081709070892B61F016950795F794E79428
:1005900080E090E0A0E0B0E8E82AF92A0A2B1B2BC3
:1005A00076956795579547952F5F3F4F77FDE7CF36
:1005B0000CC0440F551F661F771F17FD4160EE0CDE
:1005C000FF1C001F111F21503040403090E05907A0
:1005D00090E0690790E4790760F32B8F3C8FDB0193
:1005E000CA018F779070A070B07080349105A1051A
:1005F000B10561F447FD0AC0E114F10401051105DC
:1006000029F0405C5F4F6F4F7F4F40781A8EFE1786
:1006100011F081E08A8F4D8F5E8F6F8F78A383E01A
:10062000898FCE0149960E94C504A096E2E10C9400
:10063000BB20A8E1B0E0EFE1F3E00C94AB206983CC
:100640007A838B839C832D833E834F83588789E0F5
:10065000E82EF12CEC0EFD1ECE010196B7010E9492
:100660009A058E010F5E1F4FCE010596B8010E94BC
:100670009A058985823040F08989823028F0C70147
:10068000B8010E94120601C08FEF6896E6E00C9454
:10069000C720A8E1B0E0EFE4F3E00C94AB2069835D
:1006A0007A838B839C832D833E834F83588789E095
:1006B000E82EF12CEC0EFD1ECE010196B7010E9432
:1006C0009A058E010F5E1F4FCE010596B8010E945C
:1006D0009A058985823040F08989823028F0C701E7
:1006E000B8010E94120601C08FEF6896E6E00C94F4
:1006F000C720A8E1B0E0EFE7F3E00C94AB206983FA
:100700007A838B839C832D833E834F83588789E034
:10071000E82EF12CEC0EFD1ECE010196B7010E94D1
:100720009A058E010F5E1F4FCE010596B8010E94FB
:100730009A058985823040F08989823028F0C70186
:10074000B8010E94120601C081E06896E6E00C94B0
:10075000C720ACE0B0E0EFEAF3E00C94AF2069838F
:100760007A838B839C83CE010196BE016B5F7F4FA2
:100770000E949A058D81823061F1823050F184307F
:1007800021F48E81882351F12EC02F81388537FDC9
:1007900020C06E812F3131051CF06623F9F023C093
:1007A0008EE190E0821B930B29853A854B855C8511
:1007B00004C056954795379527958A95D2F76623B5
:1007C000B1F050954095309521953F4F4F4F5F4F79
:1007D0000EC020E030E040E050E009C02FEF3FEFD6
:1007E0004FEF5FE704C020E030E040E050E8B9019F
:1007F000CA012C96E2E00C94CB20A8E0B0E0E3E044
:10080000F4E00C94A7207B018C0161157105810532
:10081000910519F482E0898360C083E089838EE1C9
:10082000C82ED12CDC82CB82ED82FE820F8318870A
:10083000C801B7010E947604FC013197F7FF3BC065
:10084000222733272E1B3F0B57016801022E04C0BD
:10085000D694C794B794A7940A94D2F740E050E096
:1008600060E070E081E090E0A0E0B0E004C0880FBC
:10087000991FAA1FBB1F2A95D2F70197A109B10999
:100880008E219F21A023B1230097A105B10521F05E
:1008900041E050E060E070E04A295B296C297D2945
:1008A0004D835E836F8378878EE190E08E1B9F0B74
:1008B0009C838B8312C0309781F00E2E04C0EE0C07
:1008C000FF1C001F111F0A94D2F7ED82FE820F83D6
:1008D0001887CE1ADF0ADC82CB821A82CE010196FB
:1008E0000E94C5042896EAE00C94C320EF92FF9280
:1008F0000F931F937B018C0180E0E81680E0F806DF
:1009000081E0080780E0180788F48FEFE816F1040B
:100910000105110531F028F088E090E0A0E0B0E09A
:1009200017C080E090E0A0E0B0E012C080E0E816E0
:1009300080E0F80680E0080781E0180728F088E1E9
:1009400090E0A0E0B0E004C080E190E0A0E0B0E082
:1009500020E230E040E050E0281B390B4A0B5B0BF3
:1009600004C016950795F794E7948A95D2F7F70196
:10097000E851FF4F8081281B310941095109C90104
:100980001F910F91FF90EF900895DF92EF92FF92E9
:100990000F931F93FC01E480F58006811781D180BD
:1009A0008081823048F480E090E0A0E1B0E0E82A65
:1009B000F92A0A2B1B2BA5C0843009F49FC0823072
:1009C00021F4EE24FF24870105C0E114F1040105A0
:1009D000110519F4E0E0F0E096C0628173819FEFA9
:1009E000623879070CF05BC022E83FEF261B370B1B
:1009F0002A3131052CF020E030E040E050E02AC000
:100A0000B801A701022E04C07695679557954795C2
:100A10000A94D2F781E090E0A0E0B0E004C0880F33
:100A2000991FAA1FBB1F2A95D2F70197A109B109E7
:100A30008E219F21A023B1230097A105B10521F0AC
:100A400081E090E0A0E0B0E09A01AB01282B392BC7
:100A50004A2B5B2BDA01C9018F779070A070B070C0
:100A600080349105A105B10539F427FF09C0205C48
:100A70003F4F4F4F5F4F04C0215C3F4F4F4F5F4F81
:100A8000E0E0F0E02030A0E03A07A0E04A07A0E470
:100A90005A0710F0E1E0F0E079018A0127C06038E0
:100AA000710564F5FB01E158FF4FD801C7018F774D
:100AB0009070A070B07080349105A105B10539F433
:100AC000E7FE0DC080E490E0A0E0B0E004C08FE35A
:100AD00090E0A0E0B0E0E80EF91E0A1F1B1F17FF10
:100AE00005C016950795F794E794319687E016951B
:100AF0000795F794E7948A95D1F705C0EE24FF2473
:100B00008701EFEFF0E06E2F679566276795902FCE
:100B10009F77D794DD24D7948E2F8695492F462B27
:100B2000582F5D29B701CA011F910F91FF90EF90D7
:100B3000DF900895FC01DB01408151812281622F09
:100B40006F7770E0221F2227221F9381892F880F41
:100B5000822B282F30E0991F9927991F11969C937B
:100B6000119721153105A9F541155105610571054B
:100B700011F482E037C082E89FEF13969C938E9326
:100B800012979A01AB0167E0220F331F441F551FD4
:100B90006A95D1F783E08C930DC0220F331F441F59
:100BA000551F12968D919C911397019713969C93C4
:100BB0008E931297203080E0380780E0480780E469
:100BC000580758F314962D933D934D935C931797C4
:100BD00008952F3F310579F44115510561057105DF
:100BE00019F484E08C93089564FF03C081E08C9332
:100BF00012C01C9210C02F57304013963C932E9376
:100C0000129783E08C9387E0440F551F661F771F70
:100C10008A95D1F7706414964D935D936D937C9390
:100C2000179708951F93DC01FB019C91923008F403
:100C300047C08081823008F443C0943051F411964B
:100C40001C91843099F58181682F70E0611B7109D6
:100C50003FC0843021F0923031F48230B9F181818B
:100C6000882389F12DC011961C9111978230F1F0E3
:100C700081811817D9F412962D913C911397828196
:100C800093818217930794F028173907BCF01496C4
:100C90008D919D910D90BC91A02D2481358146812F
:100CA0005781281739074A075B0718F4112341F0C9
:100CB0000AC082179307A407B50740F4112319F05F
:100CC00061E070E005C06FEF7FEF02C060E070E0B0
:100CD000CB011F910895DF93CF93CDB7DEB7AFE57A
:100CE000B0E0EFE5F0E0808180688C93CF91DF91F8
:100CF0000895DF93CF93CDB7DEB7AFE5B0E0EFE572
:100D0000F0E080818F778C93CF91DF910895DF930E
:100D1000CF93CDB7DEB7A5E5B0E0E5E5F0E08081A3
:100D200081608C93A5E5B0E0E5E5F0E080818D7F02
:100D30008C93ABE5B0E0EBE5F0E080818F7B8C93AA
:100D4000CF91DF910895DF93CF93CDB7DEB7A5E5BF
:100D5000B0E0E5E5F0E0808184608C93A5E5B0E04B
:100D6000E5E5F0E08081877F8C93ABE5B0E0EBE5D3
:100D7000F0E0808180688C93CF91DF910895DF93BC
:100D8000CF93CDB7DEB7A4E5B0E0E4E5F0E0808135
:100D90008F7B8C93ABE5B0E0EBE5F0E080818F7D5D
:100DA0008C93CF91DF910895DF93CF93CDB7DEB7CA
:100DB0002A970FB6F894DEBF0FBECDBF89836A8332
:100DC0008981282F30E03A87298789859A85813063
:100DD000910509F467C029853A852230310509F467
:100DE000BDC089859A85009709F0D6C08A81282FD1
:100DF00030E038872F838F8198858230910529F1E3
:100E00002F8138852330310534F48F8198858130E6
:100E1000910561F0C1C02F8138852330310521F162
:100E20008F8198858430910571F1B6C0A5E5B0E059
:100E3000E5E5F0E080818E7F8C93A5E5B0E0E5E507
:100E4000F0E080818D7F8C93A7C0A5E5B0E0E5E55B
:100E5000F0E0808181608C93A5E5B0E0E5E5F0E00D
:100E600080818D7F8C9398C0A5E5B0E0E5E5F0E04A
:100E700080818E7F8C93A5E5B0E0E5E5F0E0808190
:100E800082608C9389C0A5E5B0E0E5E5F0E0808163
:100E900081608C93A5E5B0E0E5E5F0E080818260BB
:100EA0008C937AC08A81282F30E03E832D838D81F8
:100EB0009E818230910529F12D813E8123303105BB
:100EC00034F48D819E818130910561F065C02D8162
:100ED0003E812330310521F18D819E818430910541
:100EE00071F15AC0A5E5B0E0E5E5F0E080818B7FC7
:100EF0008C93A5E5B0E0E5E5F0E08081877F8C93F9
:100F00004BC0A5E5B0E0E5E5F0E0808184608C931E
:100F1000A5E5B0E0E5E5F0E08081877F8C933CC0FB
:100F2000A5E5B0E0E5E5F0E080818B7F8C93A5E559
:100F3000B0E0E5E5F0E0808188608C932DC0A5E508
:100F4000B0E0E5E5F0E0808184608C93A5E5B0E059
:100F5000E5E5F0E0808188608C931EC08A81282FAF
:100F600030E03C832B838B819C818330910569F039
:100F70002B813C812430310579F4A4E5B0E0E4E52F
:100F8000F0E0808180648C9307C0A4E5B0E0E4E5E4
:100F9000F0E080818F7B8C932A960FB6F894DEBFA9
:100FA0000FBECDBFCF91DF910895DF93CF9300D0D7
:100FB0000F92CDB7DEB79A8389836B8389819A813B
:100FC000009761F08B81882F90E0880F991FFC01BA
:100FD000E850FE4F89819A81918380830F900F9012
:100FE0000F90CF91DF9108951F920F920FB60F923D
:100FF00011242F933F934F935F936F937F938F931E
:101000009F93AF93BF93EF93FF93DF93CF93CDB7AE
:10101000DEB78091F8019091F901009729F0E091F5
:10102000F801F091F9010995CF91DF91FF91EF91CE
:10103000BF91AF919F918F917F916F915F914F91F0
:101040003F912F910F900FBE0F901F9018951F92F8
:101050000F920FB60F9211242F933F934F935F93EC
:101060006F937F938F939F93AF93BF93EF93FF9370
:10107000DF93CF93CDB7DEB78091FA019091FB015A
:10108000009729F0E091FA01F091FB010995CF91C9
:10109000DF91FF91EF91BF91AF919F918F917F91E0
:1010A0006F915F914F913F912F910F900FBE0F90D5
:1010B0001F9018951F920F920FB60F9211242F9325
:1010C0003F934F935F936F937F938F939F93AF93D0
:1010D000BF93EF93FF93DF93CF93CDB7DEB78091AC
:1010E000FC019091FD01009729F0E091F801F09149
:1010F000F9010995CF91DF91FF91EF91BF91AF91E8
:101100009F918F917F916F915F914F913F912F911F
:101110000F900FBE0F901F901895DF93CF93CDB710
:10112000DEB727970FB6F894DEBF0FBECDBF898319
:101130006A834B838981883008F0EEC08A818430CD
:1011400008F0EAC08B81813009F06FC08A81282FB6
:1011500030E03F832E838E819F818130910549F15C
:101160002E813F81223031052CF48E819F810097A2
:1011700061F0D2C02E813F812230310571F18E8124
:101180009F8183309105E9F1C7C0AAE3B0E0EAE3AB
:10119000F0E08081482F8981282F30E081E090E0C5
:1011A000022E02C0880F991F0A94E2F7842B8C93B9
:1011B000B3C0A7E3B0E0E7E3F0E08081482F898186
:1011C000282F30E081E090E0022E02C0880F991FA6
:1011D0000A94E2F7842B8C939FC0A4E3B0E0E4E38D
:1011E000F0E08081482F8981282F30E081E090E075
:1011F000022E02C0880F991F0A94E2F7842B8C9369
:101200008BC0A1E3B0E0E1E3F0E08081482F898169
:10121000282F30E081E090E0022E02C0880F991F55
:101220000A94E2F7842B8C9377C08B81882309F092
:1012300073C08A81282F30E03D832C838C819D816F
:101240008130910559F12C813D81223031052CF4FA
:101250008C819D81009769F05FC02C813D81223097
:10126000310589F18C819D818330910509F440C05D
:1012700053C0AAE3B0E0EAE3F0E08081482F89811F
:10128000282F30E081E090E0022E02C0880F991FE5
:101290000A94E2F7809584238C933EC0A7E3B0E0E4
:1012A000E7E3F0E08081482F8981282F30E081E05A
:1012B00090E0022E02C0880F991F0A94E2F78095F1
:1012C00084238C9329C0A4E3B0E0E4E3F0E08081C0
:1012D000482F8981282F30E081E090E0022E02C063
:1012E000880F991F0A94E2F7809584238C9314C089
:1012F000A1E3B0E0E1E3F0E08081482F8981282F6D
:1013000030E081E090E0022E02C0880F991F0A941D
:10131000E2F7809584238C9327960FB6F894DEBF6E
:101320000FBECDBFCF91DF910895DF93CF93CDB79F
:10133000DEB727970FB6F894DEBF0FBECDBF898307
:101340006A834B838981883008F0EEC08A818430BB
:1013500008F0EAC08B81813009F06FC08A81282FA4
:1013600030E03F832E838E819F818130910549F14A
:101370002E813F81223031052CF48E819F81009790
:1013800061F0D2C02E813F812230310571F18E8112
:101390009F8183309105E9F1C7C0ABE3B0E0EBE397
:1013A000F0E08081482F8981282F30E081E090E0B3
:1013B000022E02C0880F991F0A94E2F7842B8C93A7
:1013C000B3C0A8E3B0E0E8E3F0E08081482F898172
:1013D000282F30E081E090E0022E02C0880F991F94
:1013E0000A94E2F7842B8C939FC0A5E3B0E0E5E379
:1013F000F0E08081482F8981282F30E081E090E063
:10140000022E02C0880F991F0A94E2F7842B8C9356
:101410008BC0A2E3B0E0E2E3F0E08081482F898155
:10142000282F30E081E090E0022E02C0880F991F43
:101430000A94E2F7842B8C9377C08B81882309F080
:1014400073C08A81282F30E03D832C838C819D815D
:101450008130910559F12C813D81223031052CF4E8
:101460008C819D81009769F05FC02C813D81223085
:10147000310589F18C819D818330910509F440C04B
:1014800053C0ABE3B0E0EBE3F0E08081482F89810B
:10149000282F30E081E090E0022E02C0880F991FD3
:1014A0000A94E2F7809584238C933EC0A8E3B0E0D1
:1014B000E8E3F0E08081482F8981282F30E081E047
:1014C00090E0022E02C0880F991F0A94E2F78095DF
:1014D00084238C9329C0A5E3B0E0E5E3F0E08081AC
:1014E000482F8981282F30E081E090E0022E02C051
:1014F000880F991F0A94E2F7809584238C9314C077
:10150000A2E3B0E0E2E3F0E08081482F8981282F58
:1015100030E081E090E0022E02C0880F991F0A940B
:10152000E2F7809584238C9327960FB6F894DEBF5C
:101530000FBECDBFCF91DF910895DF93CF9300D041
:1015400000D0CDB7DEB789836A838981883008F0FF
:1015500072C08A81843008F06EC08A81282F30E002
:101560003C832B838B819C818130910549F12B81B8
:101570003C81223031052CF48B819C81009761F0F5
:101580005AC02B813C812230310571F18B819C81C5
:1015900083309105E9F14FC0ABE3B0E0EBE3F0E05D
:1015A0008081482F8981282F30E081E090E0022E51
:1015B00002C0880F991F0A94E2F784278C933BC0DE
:1015C000A8E3B0E0E8E3F0E08081482F8981282F8C
:1015D00030E081E090E0022E02C0880F991F0A944B
:1015E000E2F784278C9327C0A5E3B0E0E5E3F0E0C1
:1015F0008081482F8981282F30E081E090E0022E01
:1016000002C0880F991F0A94E2F784278C9313C0B5
:10161000A2E3B0E0E2E3F0E08081482F8981282F47
:1016200030E081E090E0022E02C0880F991F0A94FA
:10163000E2F784278C930F900F900F900F90CF912B
:10164000DF910895DF93CF9300D000D00F92CDB7F4
:10165000DEB78A836B838A81883008F06AC08B8109
:10166000843008F066C08B81282F30E03D832C83C6
:101670008C819D818130910539F12C813D81223011
:1016800031052CF48C819D81009761F052C02C8132
:101690003D812230310551F18C819D81833091054E
:1016A000B9F147C0E9E3F0E08081482F8A81282F13
:1016B00030E081E090E0022E02C0880F991F0A946A
:1016C000E2F78423898335C0E6E3F0E08081482F88
:1016D0008A81282F30E081E090E0022E02C0880F3E
:1016E000991F0A94E2F78423898323C0E3E3F0E09F
:1016F0008081482F8A81282F30E081E090E0022EFF
:1017000002C0880F991F0A94E2F78423898311C0CD
:10171000E0E3F0E08081482F8A81282F30E081E0EB
:1017200090E0022E02C0880F991F0A94E2F78423EA
:10173000898389810F900F900F900F900F90CF9118
:10174000DF910895DF93CF9300D000D0CDB7DEB7FF
:1017500089836A838981843090F58981282F30E0DC
:101760003C832B838B819C8181309105D1F02B812F
:101770003C81223031052CF48B819C81009761F0F3
:101780001EC02B813C812230310581F08B819C81F0
:101790008330910581F013C0EAE3F0E08A81808311
:1017A0000EC0E7E3F0E08A81808309C0E4E3F0E063
:1017B0008A81808304C0E1E3F0E08A8180830F9016
:1017C0000F900F900F90CF91DF910895DF93CF93FB
:1017D00000D000D0CDB7DEB789836A838981843099
:1017E00090F58981282F30E03C832B838B819C816D
:1017F00081309105D1F02B813C81223031052CF4D0
:101800008B819C81009761F01EC02B813C8122302E
:10181000310581F08B819C818330910581F013C06B
:10182000EBE3F0E08A8180830EC0E8E3F0E08A8198
:10183000808309C0E5E3F0E08A81808304C0E2E3AD
:10184000F0E08A8180830F900F900F900F90CF91DE
:10185000DF910895DF93CF9300D00F92CDB7DEB71D
:1018600089838981843008F03EC08981282F30E047
:101870003B832A838A819B8181309105E9F02A810B
:101880003B81223031052CF48A819B81009761F0E5
:101890002AC02A813B8122303105B1F08A819B81A7
:1018A00083309105C9F01FC0ABE3B0E0EBE3F0E09B
:1018B000808180958C9317C0A8E3B0E0E8E3F0E066
:1018C000808180958C930FC0A5E3B0E0E5E3F0E064
:1018D000808180958C9307C0A2E3B0E0E2E3F0E062
:1018E000808180958C930F900F900F90CF91DF9116
:1018F0000895DF93CF9300D000D0CDB7DEB78A83B1
:101900008A81843090F58A81282F30E03C832B83B4
:101910008B819C8181309105D1F02B813C812230DB
:1019200031052CF48B819C81009761F01EC02B81C6
:101930003C812230310581F08B819C81833091057F
:1019400081F013C0E9E3F0E0808189830EC0E6E313
:10195000F0E08081898309C0E3E3F0E0808189833E
:1019600004C0E0E3F0E08081898389810F900F90CB
:101970000F900F90CF91DF9108950F931F93DF93F6
:10198000CF93CDB7DEB7C654D0400FB6F894DEBFC4
:101990000FBECDBFFE01ED5BFF4F80E090E0A0EFFA
:1019A000B1E480839183A283B3838E01015C1F4FD6
:1019B000FE01ED5BFF4F608171818281938120E0A8
:1019C00030E04AEF54E40E941F02DC01CB01F80131
:1019D00080839183A283B383FE01FF96608171812E
:1019E0008281938120E030E040E85FE30E94790348
:1019F00088232CF481E090E09EAF8DAF46C0FE01BD
:101A0000FF96608171818281938120E03FEF4FE7F3
:101A100057E40E941903181664F5FE01ED5BFF4FB1
:101A2000608171818281938120E030E040E251E465
:101A30000E941F02DC01CB01BC01CD010E944900C4
:101A4000DC01CB019EAF8DAF0FC088EC90E09CAF66
:101A50008BAF8BAD9CAD0197F1F79CAF8BAF8DAD8C
:101A60009EAD01979EAF8DAF8DAD9EAD009769F78E
:101A700016C0FE01FF9660817181828193810E9470
:101A80004900DC01CB019EAF8DAF8DAD9EAD9AAF0D
:101A900089AF89AD9AAD0197F1F79AAF89AF83E32A
:101AA0000E94350F82E30E94350F88E20E94350FB5
:101AB00080E090E0A0E8BFE38DAB9EABAFABB8AFEA
:101AC0006DA97EA98FA998AD20E030E04AEF54E4DB
:101AD0000E941F02DC01CB0189AB9AABABABBCAB64
:101AE00069A97AA98BA99CA920E030E040E85FE3CE
:101AF0000E94790388232CF481E090E098AB8FA7B3
:101B00003FC069A97AA98BA99CA920E03FEF4FE7C4
:101B100057E40E94190318164CF56DA97EA98FA9E8
:101B200098AD20E030E040E251E40E941F02DC0169
:101B3000CB01BC01CD010E944900DC01CB0198AB77
:101B40008FA70FC088EC90E09EA78DA78DA59EA5BE
:101B50000197F1F79EA78DA78FA598A9019798AB3C
:101B60008FA78FA598A9009769F714C069A97AA9CA
:101B70008BA99CA90E944900DC01CB0198AB8FA7DF
:101B80008FA598A99CA78BA78BA59CA50197F1F77A
:101B90009CA78BA78CE00E94350F80E090E0A0E826
:101BA000BFE38FA398A7A9A7BAA76FA178A589A516
:101BB0009AA520E030E04AEF54E40E941F02DC01C5
:101BC000CB018BA39CA3ADA3BEA36BA17CA18DA1D4
:101BD0009EA120E030E040E85FE30E947903882383
:101BE0002CF481E090E09AA389A33FC06BA17CA173
:101BF0008DA19EA120E03FEF4FE757E40E9419031B
:101C000018164CF56FA178A589A59AA520E030E0BB
:101C100040E251E40E941F02DC01CB01BC01CD0176
:101C20000E944900DC01CB019AA389A30FC088EC74
:101C300090E098A38F8F8F8D98A10197F1F798A3CB
:101C40008F8F89A19AA101979AA389A389A19AA1AB
:101C5000009769F714C06BA17CA18DA19EA10E9481
:101C60004900DC01CB019AA389A389A19AA19E8F87
:101C70008D8F8D8D9E8D0197F1F79E8F8D8F81E0D9
:101C80000E94350F80E090E0A0E0B0E4898F9A8F49
:101C9000AB8FBC8F698D7A8D8B8D9C8D20E030E071
:101CA0004AEF54E40E941F02DC01CB018D8B9E8B16
:101CB000AF8BB88F6D897E898F89988D20E030E059
:101CC00040E85FE30E94790388232CF481E090E0F0
:101CD0009C8B8B8B3FC06D897E898F89988D20E08E
:101CE0003FEF4FE757E40E94190318164CF5698D32
:101CF0007A8D8B8D9C8D20E030E040E251E40E9493
:101D00001F02DC01CB01BC01CD010E944900DC01B6
:101D1000CB019C8B8B8B0FC088EC90E09A8B898BCE
:101D200089899A890197F1F79A8B898B8B899C898C
:101D300001979C8B8B8B8B899C89009769F714C0CA
:101D40006D897E898F89988D0E944900DC01CB01C5
:101D50009C8B8B8B8B899C89988B8F878F8598899F
:101D60000197F1F7988B8F8786E00E94350F80E00E
:101D700090E0A0E0B0E48B879C87AD87BE876B8541
:101D80007C858D859E8520E030E04AEF54E40E94FA
:101D90001F02DC01CB018F839887A987BA876F81E7
:101DA000788589859A8520E030E040E85FE30E94ED
:101DB000790388232CF481E090E09E838D833FC0DB
:101DC0006F81788589859A8520E03FEF4FE757E45A
:101DD0000E94190318164CF56B857C858D859E85B0
:101DE00020E030E040E251E40E941F02DC01CB0120
:101DF000BC01CD010E944900DC01CB019E838D8393
:101E00000FC088EC90E09C838B838B819C81019731
:101E1000F1F79C838B838D819E8101979E838D83B7
:101E20008D819E81009769F714C06F8178858985BF
:101E30009A850E944900DC01CB019E838D838D81B0
:101E40009E819A83898389819A810197F1F79A8388
:101E50008983CA5BDF4F0FB6F894DEBF0FBECDBFDC
:101E6000CF91DF911F910F910895DF93CF93CDB75D
:101E7000DEB76D970FB6F894DEBF0FBECDBF8D8F66
:101E800080E063E040E00E94950981E063E040E08B
:101E90000E9495098D8D982F907180E062E0492F06
:101EA0000E9495098D8D982F907281E062E0492FF4
:101EB0000E9495098D8D982F907482E062E0492FE1
:101EC0000E9495098D8D982F907883E062E0492FCC
:101ED0000E94950982E063E041E00E94950982E05A
:101EE00063E040E00E94950980E090E0A0EAB0E461
:101EF000898F9A8FAB8FBC8F698D7A8D8B8D9C8DDE
:101F000020E030E04AEF54E40E941F02DC01CB01E4
:101F10008D8B9E8BAF8BB88F6D897E898F89988DC5
:101F200020E030E040E85FE30E94790388232CF44E
:101F300081E090E09C8B8B8B3FC06D897E898F897F
:101F4000988D20E03FEF4FE757E40E9419031816E1
:101F50004CF5698D7A8D8B8D9C8D20E030E040E2D0
:101F600051E40E941F02DC01CB01BC01CD010E94A3
:101F70004900DC01CB019C8B8B8B0FC088EC90E07F
:101F80009A8B898B89899A890197F1F79A8B898B2A
:101F90008B899C8901979C8B8B8B8B899C89009763
:101FA00069F714C06D897E898F89988D0E944900D8
:101FB000DC01CB019C8B8B8B8B899C89988B8F87C9
:101FC0008F8598890197F1F7988B8F878D8D982F42
:101FD000917080E062E0492F0E9495098D8D982FC5
:101FE000927081E062E0492F0E9495098D8D982FB3
:101FF000947082E062E0492F0E9495098D8D982FA0
:10200000987083E062E0492F0E94950982E063E0C6
:1020100041E00E94950982E063E040E00E9495095A
:1020200080E090E0A0EAB0E48B879C87AD87BE8714
:102030006B857C858D859E8520E030E04AEF54E4F9
:102040000E941F02DC01CB018F839887A987BA8782
:102050006F81788589859A8520E030E040E85FE3EC
:102060000E94790388232CF481E090E09E838D8385
:102070003FC06F81788589859A8520E03FEF4FE7E3
:1020800057E40E94190318164CF56B857C858D85E5
:102090009E8520E030E040E251E40E941F02DC0116
:1020A000CB01BC01CD010E944900DC01CB019E8324
:1020B0008D830FC088EC90E09C838B838B819C8107
:1020C0000197F1F79C838B838D819E8101979E837D
:1020D0008D838D819E81009769F714C06F8178850B
:1020E00089859A850E944900DC01CB019E838D83FE
:1020F0008D819E819A83898389819A810197F1F7E5
:102100009A8389836D960FB6F894DEBF0FBECDBF5C
:10211000CF91DF910895DF93CF93CDB7DEB76D9761
:102120000FB6F894DEBF0FBECDBF8D8F80E063E0A9
:1021300041E00E94950981E063E040E00E9495093A
:102140008D8D982F907180E062E0492F0E94950953
:102150008D8D982F907281E062E0492F0E94950941
:102160008D8D982F907482E062E0492F0E9495092E
:102170008D8D982F907883E062E0492F0E94950919
:1021800082E063E041E00E94950982E063E040E084
:102190000E94950980E090E0A0EAB0E4898F9A8FD0
:1021A000AB8FBC8F698D7A8D8B8D9C8D20E030E05C
:1021B0004AEF54E40E941F02DC01CB018D8B9E8B01
:1021C000AF8BB88F6D897E898F89988D20E030E044
:1021D00040E85FE30E94790388232CF481E090E0DB
:1021E0009C8B8B8B3FC06D897E898F89988D20E079
:1021F0003FEF4FE757E40E94190318164CF5698D1D
:102200007A8D8B8D9C8D20E030E040E251E40E947D
:102210001F02DC01CB01BC01CD010E944900DC01A1
:10222000CB019C8B8B8B0FC088EC90E09A8B898BB9
:1022300089899A890197F1F79A8B898B8B899C8977
:1022400001979C8B8B8B8B899C89009769F714C0B5
:102250006D897E898F89988D0E944900DC01CB01B0
:102260009C8B8B8B8B899C89988B8F878F8598898A
:102270000197F1F7988B8F878D8D982F917080E063
:1022800062E0492F0E9495098D8D982F927081E010
:1022900062E0492F0E9495098D8D982F947082E0FD
:1022A00062E0492F0E9495098D8D982F987083E0E8
:1022B00062E0492F0E94950982E063E041E00E94BC
:1022C000950982E063E040E00E94950980E090E09B
:1022D000A0EAB0E48B879C87AD87BE876B857C8541
:1022E0008D859E8520E030E04AEF54E40E941F0275
:1022F000DC01CB018F839887A987BA876F817885A6
:1023000089859A8520E030E040E85FE30E94790308
:1023100088232CF481E090E09E838D833FC06F8101
:10232000788589859A8520E03FEF4FE757E40E9442
:10233000190318164CF56B857C858D859E8520E0EC
:1023400030E040E251E40E941F02DC01CB01BC01FD
:10235000CD010E944900DC01CB019E838D830FC01B
:1023600088EC90E09C838B838B819C810197F1F7B3
:102370009C838B838D819E8101979E838D838D812C
:102380009E81009769F714C06F81788589859A8549
:102390000E944900DC01CB019E838D838D819E814B
:1023A0009A83898389819A810197F1F79A83898336
:1023B0006D960FB6F894DEBF0FBECDBFCF91DF9103
:1023C0000895DF93CF9300D00F92CDB7DEB79B83F4
:1023D0008A8319820FC08981282F30E08A819B81EE
:1023E000FC01E20FF31F908189818F5F8983892F20
:1023F0000E948B108981282F30E08A819B81FC010B
:10240000E20FF31F8081882331F70F900F900F9018
:10241000CF91DF910895DF93CF93CDB7DEB72E979D
:102420000FB6F894DEBF0FBECDBF80E00E94350F1F
:1024300080E10E94350F80E090E0A0E0B0E48B875F
:102440009C87AD87BE876B857C858D859E8520E0CA
:1024500030E04AEF54E40E941F02DC01CB018F837D
:102460009887A987BA876F81788589859A8520E0C2
:1024700030E040E85FE30E94790388232CF481E098
:1024800090E09E838D833FC06F81788589859A8592
:1024900020E03FEF4FE757E40E94190318164CF570
:1024A0006B857C858D859E8520E030E040E251E49F
:1024B0000E941F02DC01CB01BC01CD010E9449003A
:1024C000DC01CB019E838D830FC088EC90E09C8360
:1024D0008B838B819C810197F1F79C838B838D810A
:1024E0009E8101979E838D838D819E81009769F7E0
:1024F00014C06F81788589859A850E944900DC0126
:10250000CB019E838D838D819E819A83898389816E
:102510009A810197F1F79A8389832E960FB6F894E2
:10252000DEBF0FBECDBFCF91DF910895DF93CF9374
:1025300000D000D0CDB7DEB789836A838981282F88
:1025400030E03C832B838B819C81009731F02B8181
:102550003C812130310531F009C08A8180580E94C8
:10256000350F04C08A8181540E94350F0F900F905F
:102570000F900F90CF91DF910895EF92FF920F93FC
:102580001F93DF93CF93CDB7DEB7A7970FB6F8941D
:10259000DEBF0FBECDBF6CA37DA38EA39FA31F86FE
:1025A0001E866CA17DA18EA19FA10E944900DC0125
:1025B000CB018A879B87AC87BD878AE0FE01709636
:1025C000DF01982F1D929A95E9F780E090E0A0E056
:1025D000B0E08E839F83A887B9876CA17DA18EA16F
:1025E0009FA120E030E040E050E00E947903882382
:1025F000C4F48CA19DA1AEA1BFA1B0588CA39DA392
:10260000AEA3BFA36CA17DA18EA19FA10E94490092
:10261000DC01CB018A879B87AC87BD878DE20E9456
:102620008B106CA17DA18EA19FA120E030E040E83D
:102630005FE30E94F201DC01CB017C018D016A8520
:102640007B858C859D850E94FD039B01AC01C801A3
:10265000B7010E94C101DC01CB01BC01CD0120E822
:1026600036E948E15BE40E941F02DC01CB018E8366
:102670009F83A887B9872FC08F85082F112707FD53
:1026800010958A859B85AC85BD852AE030E040E0C9
:1026900050E0BC01CD010E947D20DC01CB01282F40
:1026A000CE014096FC01E00FF11F20838F858F5FE4
:1026B0008F878A859B85AC85BD852AE030E040E028
:1026C00050E0BC01CD010E947D20DA01C9018A875A
:1026D0009B87AC87BD878A859B85AC85BD85009728
:1026E000A105B10549F68F858D838F8581508F8730
:1026F00013C08F85282F332727FD3095CE014096B4
:10270000FC01E20FF31F8081982F905D8F8581502F
:102710008F87892F0E948B108F85882354F78AE03A
:10272000FE017A96DF01982F1D929A95E9F71F8690
:102730006E817F81888599850E944900DC01CB01EB
:1027400089839A83AB83BC838EE20E948B102FC057
:102750008F85082F112707FD109589819A81AB81FC
:10276000BC812AE030E040E050E0BC01CD010E9495
:102770007D20DC01CB01282FCE014A96FC01E00F21
:10278000F11F20838F858F5F8F8789819A81AB812D
:10279000BC812AE030E040E050E0BC01CD010E9465
:1027A0007D20DA01C90189839A83AB83BC83898147
:1027B0009A81AB81BC810097A105B10549F68F854F
:1027C00082508F871E861CC08E85282F332727FDB9
:1027D0003095CE014A96FC01E20FF31F80818823D9
:1027E00049F58E85282F332727FD3095CE014A964F
:1027F000FC01E20FF31F8BE680838E858F5F8E874F
:102800008E858A300CF316C08F85282F332727FD3D
:102810003095CE014A96FC01E20FF31F8081982F7C
:10282000905D8F8581508F87892F0E948B108D81BD
:102830008F5F8D838F85282F332727FD3095CE011D
:102840004A96FC01E20FF31F80818B3619F08D81CF
:102850008730D1F6A7960FB6F894DEBF0FBECDBF76
:10286000CF91DF911F910F91FF90EF900895DF932B
:10287000CF93CDB7DEB7A3970FB6F894DEBF0FBEE8
:10288000CDBF8FEF8983CE0105969E8B8D8BEEEEAB
:10289000F1E0F88FEF8BF9E0F98FEF89F88D008088
:1028A0008F89988D0196988F8F8BED89FE89008294
:1028B0008D899E8901969E8B8D8B998D9150998FD4
:1028C000E98DEE2351F7CE010E969B8F8A8FEBEEAA
:1028D000F1E0FD8FEC8FF3E0FE8FEC8DFD8D00803D
:1028E0008C8D9D8D01969D8F8C8FEA8DFB8D008246
:1028F0008A8D9B8D01969B8F8A8F9E8D91509E8F86
:10290000EE8DEE2351F7CE01419698A38F8FE8EE1E
:10291000F1E0FAA3E9A3F3E0FBA3E9A1FAA10080A7
:1029200089A19AA101969AA389A3EF8DF8A10082AB
:102930008F8D98A1019698A38F8F9BA191509BA3F7
:10294000EBA1EE2351F71C8260C08C81282F30E070
:10295000CE010E96FC01E20FF31F808160E040E0A3
:102960000E9495091B823DC08B81282F30E0CE014B
:102970004196FC01E20FF31F808160E00E94220B70
:102980008A838A81882351F58B81282F30E08C81BE
:10299000482F50E0C901880F991F820F931F9E0195
:1029A0002F5F3F4F820F931F840F951FFC013496BA
:1029B000808189830DC08B81282F30E0CE01419624
:1029C000FC01E20FF31F808160E00E94220B8A83EA
:1029D0008A81882381F3F981FC8B1DC08B818F5FF5
:1029E0008B838B81833008F4BFCF8C81282F30E01C
:1029F000CE010E96FC01E20FF31F808160E041E002
:102A00000E9495098C818F5F8C838C81833008F4C0
:102A10009CCF89818C8B8C89A3960FB6F894DEBFEE
:102A20000FBECDBFCF91DF910895DF93CF93CDB788
:102A3000DEB7E8970FB6F894DEBF0FBECDBF80E0DB
:102A400090E0ACE0B2E48DAB9EABAFABB8AF6DA99C
:102A50007EA98FA998AD20E030E04AEF54E40E94AF
:102A60001F02DC01CB0189AB9AABABABBCAB69A954
:102A70007AA98BA99CA920E030E040E85FE30E949E
:102A8000790388232CF481E090E098AB8FA73FC0B6
:102A900069A97AA98BA99CA920E03FEF4FE757E4E9
:102AA0000E94190318164CF56DA97EA98FA998AD3F
:102AB00020E030E040E251E40E941F02DC01CB0143
:102AC000BC01CD010E944900DC01CB0198AB8FA76E
:102AD0000FC088EC90E09EA78DA78DA59EA50197BD
:102AE000F1F79EA78DA78FA598A9019798AB8FA7FF
:102AF0008FA598A9009769F714C069A97AA98BA92D
:102B00009CA90E944900DC01CB0198AB8FA78FA53F
:102B100098A99CA78BA78BA59CA50197F1F79CA7CB
:102B20008BA788E30E94811780E090E0A0E8BFE3D4
:102B30008FA398A7A9A7BAA76FA178A589A59AA5D9
:102B400020E030E04AEF54E40E941F02DC01CB0198
:102B50008BA39CA3ADA3BEA36BA17CA18DA19EA1C1
:102B600020E030E040E85FE30E94790388232CF402
:102B700081E090E09AA389A33FC06BA17CA18DA1C5
:102B80009EA120E03FEF4FE757E40E94190318167B
:102B90004CF56FA178A589A59AA520E030E040E228
:102BA00051E40E941F02DC01CB01BC01CD010E9457
:102BB0004900DC01CB019AA389A30FC088EC90E007
:102BC00098A38F8F8F8D98A10197F1F798A38F8F7E
:102BD00089A19AA101979AA389A389A19AA1009793
:102BE00069F714C06BA17CA18DA19EA10E94490030
:102BF000DC01CB019AA389A389A19AA19E8F8D8F15
:102C00008D8D9E8D0197F1F79E8F8D8F8CE00E94A8
:102C1000811780E090E0A0E8BFE3898F9A8FAB8FA7
:102C2000BC8F698D7A8D8B8D9C8D20E030E04AEFD2
:102C300054E40E941F02DC01CB018D8B9E8BAF8B75
:102C4000B88F6D897E898F89988D20E030E040E8CB
:102C50005FE30E94790388232CF481E090E09C8B51
:102C60008B8B3FC06D897E898F89988D20E03FEFE7
:102C70004FE757E40E94190318164CF5698D7A8DB9
:102C80008B8D9C8D20E030E040E251E40E941F02D9
:102C9000DC01CB01BC01CD010E944900DC01CB016C
:102CA0009C8B8B8B0FC088EC90E09A8B898B8989E9
:102CB0009A890197F1F79A8B898B8B899C89019767
:102CC0009C8B8B8B8B899C89009769F714C06D89CD
:102CD0007E898F89988D0E944900DC01CB019C8BF5
:102CE0008B8B8B899C89988B8F878F85988901978F
:102CF000F1F7988B8F8781E00E94811780E090E048
:102D0000A0E0B0E48B879C87AD87BE876B857C8510
:102D10008D859E8520E030E04AEF54E40E941F023A
:102D2000DC01CB018F839887A987BA876F8178856B
:102D300089859A8520E030E040E85FE30E947903CE
:102D400088232CF481E090E09E838D833FC06F81C7
:102D5000788589859A8520E03FEF4FE757E40E9408
:102D6000190318164CF56B857C858D859E8520E0B2
:102D700030E040E251E40E941F02DC01CB01BC01C3
:102D8000CD010E944900DC01CB019E838D830FC0E1
:102D900088EC90E09C838B838B819C810197F1F779
:102DA0009C838B838D819E8101979E838D838D81F2
:102DB0009E81009769F714C06F81788589859A850F
:102DC0000E944900DC01CB019E838D838D819E8111
:102DD0009A83898389819A810197F1F79A838983FC
:102DE000E8960FB6F894DEBF0FBECDBFCF91DF914E
:102DF0000895DF93CF93CDB7DEB72E970FB6F89433
:102E0000DEBF0FBECDBF81E00E94811780E090E061
:102E1000A0E0B0E48B879C87AD87BE876B857C85FF
:102E20008D859E8520E030E04AEF54E40E941F0229
:102E3000DC01CB018F839887A987BA876F8178855A
:102E400089859A8520E030E040E85FE30E947903BD
:102E500088232CF481E090E09E838D833FC06F81B6
:102E6000788589859A8520E03FEF4FE757E40E94F7
:102E7000190318164CF56B857C858D859E8520E0A1
:102E800030E040E251E40E941F02DC01CB01BC01B2
:102E9000CD010E944900DC01CB019E838D830FC0D0
:102EA00088EC90E09C838B838B819C810197F1F768
:102EB0009C838B838D819E8101979E838D838D81E1
:102EC0009E81009769F714C06F81788589859A85FE
:102ED0000E944900DC01CB019E838D838D819E8100
:102EE0009A83898389819A810197F1F79A838983EB
:102EF0002E960FB6F894DEBF0FBECDBFCF91DF91F7
:102F00000895DF93CF93CDB7DEB72F970FB6F89420
:102F1000DEBF0FBECDBF8F8782E063E040E00E943E
:102F2000950980E063E040E00E94950981E063E05C
:102F300040E00E94950982E06F850E94E60B82E0E6
:102F400063E041E00E94950980E090E0A0E8BFE3E3
:102F50008B879C87AD87BE876B857C858D859E859D
:102F600020E030E04AEF54E40E941F02DC01CB0174
:102F70008F839887A987BA876F81788589859A8595
:102F800020E030E040E85FE30E94790388232CF4DE
:102F900081E090E09E838D833FC06F817885898535
:102FA0009A8520E03FEF4FE757E40E941903181677
:102FB0004CF56B857C858D859E8520E030E040E278
:102FC00051E40E941F02DC01CB01BC01CD010E9433
:102FD0004900DC01CB019E838D830FC088EC90E01B
:102FE0009C838B838B819C810197F1F79C838B83DE
:102FF0008D819E8101979E838D838D819E81009717
:1030000069F714C06F81788589859A850E94490087
:10301000DC01CB019E838D838D819E819A83898380
:1030200089819A810197F1F79A83898382E063E02D
:1030300040E00E9495092F960FB6F894DEBF0FBEB0
:10304000CDBFCF91DF910895DF93CF93CDB7DEB79A
:103050002F970FB6F894DEBF0FBECDBF8F8782E0EB
:1030600063E040E00E94950980E063E041E00E9457
:10307000950981E063E040E00E94950982E06F8558
:103080000E94E60B82E063E041E00E94950980E047
:1030900090E0A0E8BFE38B879C87AD87BE876B85F8
:1030A0007C858D859E8520E030E04AEF54E40E94C7
:1030B0001F02DC01CB018F839887A987BA876F81B4
:1030C000788589859A8520E030E040E85FE30E94BA
:1030D000790388232CF481E090E09E838D833FC0A8
:1030E0006F81788589859A8520E03FEF4FE757E427
:1030F0000E94190318164CF56B857C858D859E857D
:1031000020E030E040E251E40E941F02DC01CB01EC
:10311000BC01CD010E944900DC01CB019E838D835F
:103120000FC088EC90E09C838B838B819C810197FE
:10313000F1F79C838B838D819E8101979E838D8384
:103140008D819E81009769F714C06F81788589858C
:103150009A850E944900DC01CB019E838D838D817D
:103160009E819A83898389819A810197F1F79A8355
:10317000898382E063E040E00E9495092F960FB6B4
:10318000F894DEBF0FBECDBFCF91DF910895DF93DE
:10319000CF9300D00F92CDB7DEB79B838A8319827D
:1031A0000EC08981282F30E08A819B81FC01E20FCB
:1031B000F31F80810E94241889818F5F8983898110
:1031C000282F30E08A819B81FC01E20FF31F808170
:1031D000882339F70F900F900F90CF91DF910895CA
:1031E000DF93CF9300D00F92CDB7DEB78A836B8386
:1031F00019828B81882321F48A818058898306C0B3
:103200008B81813019F48A818054898389810E945D
:1032100081170F900F900F90CF91DF910895DF935A
:10322000CF93CDB7DEB727970FB6F894DEBF0FBEAA
:10323000CDBF9C838B836D834E832F838D81882F9D
:1032400090E00896880F991F880F991F880F991F83
:103250008A838A810E94811719820EC08981282F52
:1032600030E08B819C81FC01E20FF31F80810E9482
:10327000241889818F5F89838981883078F38E81D2
:103280006F810E94F0188D810E94241827960FB636
:10329000F894DEBF0FBECDBFCF91DF910895DF93CD
:1032A000CF93CDB7DEB72A970FB6F894DEBF0FBE27
:1032B000CDBF6F83788789879A878F819885A98505
:1032C000BA8520EA36E841E050E0BC01CD010E9419
:1032D0007D20DA01C9018E838F819885A985BA8501
:1032E00020EA36E841E050E0BC01CD010E947D209B
:1032F000DC01CB018F839887A987BA878F81988556
:10330000A985BA8520E137E240E050E0BC01CD015B
:103310000E947D20DA01C9018D838F819885A9855E
:10332000BA8520E137E240E050E0BC01CD010E94C7
:103330007D20DC01CB018F839887A987BA878F8195
:103340009885A985BA8528EE33E040E050E0BC01BD
:10335000CD010E947D20DA01C9018C838F8198857F
:10336000A985BA8528EE33E040E050E0BC01CD01EC
:103370000E947D20DC01CB018F839887A987BA87C3
:103380008F819885A985BA8524E630E040E050E039
:10339000BC01CD010E947D20DA01C9018B838F81A0
:1033A0009885A985BA8524E630E040E050E0BC016C
:1033B000CD010E947D20DC01CB018F839887A987F6
:1033C000BA878F819885A985BA852AE030E040E0E8
:1033D00050E0BC01CD010E947D20DA01C9018A8341
:1033E0008F819885A985BA852AE030E040E050E0D9
:1033F000BC01CD010E947D20DC01CB018F83988729
:10340000A987BA878F8189831F82188619861A86B1
:103410008E81882389F48D81882371F48C8188239F
:1034200059F48B81882341F48A81882329F4898186
:10343000805D0E94241875C08E81882391F48D814F
:10344000882379F48C81882361F48B81882349F463
:103450008A81805D0E9424188981805D0E942418E1
:1034600060C08E81882399F48D81882381F48C81BA
:10347000882369F48B81805D0E9424188A81805D95
:103480000E9424188981805D0E9424184AC08E8180
:103490008823A1F48D81882389F48C81805D0E942A
:1034A00024188B81805D0E9424188A81805D0E948F
:1034B00024188981805D0E94241833C08E8188235E
:1034C000A9F48D81805D0E9424188C81805D0E940A
:1034D00024188B81805D0E9424188A81805D0E945F
:1034E00024188981805D0E9424181BC08E81882346
:1034F000C1F08E81805D0E9424188D81805D0E94C4
:1035000024188C81805D0E9424188B81805D0E942C
:1035100024188A81805D0E9424188981805D0E9420
:1035200024182A960FB6F894DEBF0FBECDBFCF91F8
:10353000DF9108950F931F93DF93CF93CDB7DEB73D
:10354000C058D0400FB6F894DEBF0FBECDBFFE010D
:10355000E958FF4F108211821282138286E034965E
:10356000DF01982F1D929A95E9F7FE01EB58FF4F66
:103570001082FE01EF58FF4F82E090E0A0E0B0E043
:1035800080839183A283B38382E06FEF0E94A20BBA
:1035900083E067E00E94A20B80E06CE10E94A20B36
:1035A00080E06CEF0E94E60B83E063E040E00E9465
:1035B0008D0883E063E041E00E9495090E941515A3
:1035C0000E94BD0C0E94A3060E946B0683E790E256
:1035D00061E00E94D5078091FE01813009F00AC5A3
:1035E00080E690E00E94C718FE01E359FF4F80E09B
:1035F00090E0A8ECB2E480839183A283B3838E0130
:1036000007591F4FFE01E359FF4F6081718182818D
:10361000938120E030E04AEF54E40E941F02DC0175
:10362000CB01F80180839183A283B383FE01E75924
:10363000FF4F608171818281938120E030E040E81A
:103640005FE30E947903882344F4FE01E959FF4FA8
:1036500081E090E09183808364C0FE01E759FF4FD1
:10366000608171818281938120E03FEF4FE757E4D1
:103670000E94190318160CF043C0FE01E359FF4FD6
:10368000608171818281938120E030E040E251E4E9
:103690000E941F02DC01CB018E0109591F4FBC01A2
:1036A000CD010E944900DC01CB01F80191838083A8
:1036B0001FC0FE01EB59FF4F88EC90E0918380839F
:1036C000FE01EB59FF4F808191810197F1F7FE01D7
:1036D000EB59FF4F91838083DE01A959BF4FFE0153
:1036E000E959FF4F80819181019711969C938E93A8
:1036F000FE01E959FF4F808191810097D1F627C0E3
:103700008E0109591F4FFE01E759FF4F60817181FA
:10371000828193810E944900DC01CB01F8019183F1
:103720008083DE01AD59BF4FFE01E959FF4F808113
:1037300091818D939C93FE01ED59FF4F8081918182
:103740000197F1F7FE01ED59FF4F91838083FE0150
:10375000EB58FF4F10820E94F9168BE690E00E9412
:10376000C71881E061E00E94F01813C1FE01EA5819
:10377000FF4F8081833671F40E94F9168BE690E04A
:103780000E94C71881E061E00E94F018FE01EB582A
:10379000FF4F1082FE01EA58FF4F8081813308F409
:1037A000E5C0FE01EA58FF4F8081873308F0DEC094
:1037B000FE01EA58FF4F80810E942418FE01E15A61
:1037C000FF4F80E090E0A0E2B1E480839183A28388
:1037D000B3838E01055A1F4FFE01E15AFF4F6081EE
:1037E00071818281938120E030E04AEF54E40E94AD
:1037F0001F02DC01CB01F80180839183A283B38394
:10380000FE01E55AFF4F608171818281938120E042
:1038100030E040E85FE30E947903882344F4FE012E
:10382000E75AFF4F81E090E09183808364C0FE01FE
:10383000E55AFF4F608171818281938120E03FEFE3
:103840004FE757E40E94190318160CF043C0FE011D
:10385000E15AFF4F608171818281938120E030E0E5
:1038600040E251E40E941F02DC01CB018E01075AA5
:103870001F4FBC01CD010E944900DC01CB01F801C2
:10388000918380831FC0FE01E95AFF4F88EC90E0CE
:1038900091838083FE01E95AFF4F808191810197D6
:1038A000F1F7FE01E95AFF4F91838083DE01A75AA9
:1038B000BF4FFE01E75AFF4F80819181019711961A
:1038C0009C938E93FE01E75AFF4F80819181009770
:1038D000D1F627C08E01075A1F4FFE01E55AFF4F50
:1038E00060817181828193810E944900DC01CB015A
:1038F000F80191838083DE01AB5ABF4FFE01E75A86
:10390000FF4F808191818D939C93FE01EB5AFF4F75
:10391000808191810197F1F7FE01EB5AFF4F91836E
:103920008083FE01EB58FF4F80818F5F61E00E9432
:10393000F0188AE20E942418FE01EB58FF4F8081A4
:10394000282F30E0CE0189589F4FDC01A20FB31F12
:10395000FE01EA58FF4F80818C93DE01AB58BF4FC8
:10396000FE01EB58FF4F80818F5F8C930E943714CC
:10397000FE01EA58FF4F808306C00E943714FE0103
:10398000EA58FF4F8083FE01EA58FF4F80818F3F46
:10399000A1F3FE01EA58FF4F8081853609F0E6CE9B
:1039A000FE01EB58FF4F8081282F30E0CE0189586F
:1039B0009F4FFC01E20FF31F1082FE01EA58FF4FF8
:1039C0008FEF80830E94F916FE01E958FF4F808136
:1039D000813309F062C1FE01E958FF4F81818233D2
:1039E00009F05BC1FE01E958FF4F8281833309F082
:1039F00054C1FE01E958FF4F8381843309F04DC162
:103A00008AE790E00E94C71880E061E00E94F01809
:103A100086E890E00E94C718FE01EF5AFF4F80E051
:103A200090E0A8ECB2E480839183A283B3838E01FB
:103A3000035B1F4FFE01EF5AFF4F6081718182814E
:103A4000938120E030E04AEF54E40E941F02DC0141
:103A5000CB01F80180839183A283B383FE01E35BF2
:103A6000FF4F608171818281938120E030E040E8E6
:103A70005FE30E947903882344F4FE01E55BFF4F76
:103A800081E090E09183808364C0FE01E35BFF4F9F
:103A9000608171818281938120E03FEF4FE757E49D
:103AA0000E94190318160CF043C0FE01EF5AFF4F95
:103AB000608171818281938120E030E040E251E4B5
:103AC0000E941F02DC01CB018E01055B1F4FBC0170
:103AD000CD010E944900DC01CB01F8019183808374
:103AE0001FC0FE01E75BFF4F88EC90E0918380836D
:103AF000FE01E75BFF4F808191810197F1F7FE01A5
:103B0000E75BFF4F91838083DE01A55BBF4FFE0122
:103B1000E55BFF4F80819181019711969C938E9375
:103B2000FE01E55BFF4F808191810097D1F627C0B0
:103B30008E01055B1F4FFE01E35BFF4F60817181CA
:103B4000828193810E944900DC01CB01F8019183BD
:103B50008083DE01A95BBF4FFE01E55BFF4F8081E3
:103B600091818D939C93FE01E95BFF4F8081918150
:103B70000197F1F7FE01E95BFF4F918380830E947B
:103B8000F91689E990E00E94C718FE01ED5BFF4F2E
:103B900080E090E0A8ECB2E480839183A283B383B9
:103BA0008E01015C1F4FFE01ED5BFF4F6081718153
:103BB0008281938120E030E04AEF54E40E941F02AA
:103BC000DC01CB01F80180839183A283B383FE01E2
:103BD000FF96608171818281938120E030E040E82E
:103BE0005FE30E94790388232CF481E090E09EAF8C
:103BF0008DAF46C0FE01FF96608171818281938105
:103C000020E03FEF4FE757E40E941903181664F5D0
:103C1000FE01ED5BFF4F608171818281938120E025
:103C200030E040E251E40E941F02DC01CB01BC0104
:103C3000CD010E944900DC01CB019EAF8DAF0FC0CA
:103C400088EC90E09CAF8BAF8BAD9CAD0197F1F70A
:103C50009CAF8BAF8DAD9EAD01979EAF8DAF8DADFF
:103C60009EAD009769F716C0FE01FF9660817181D5
:103C7000828193810E944900DC01CB019EAF8DAF10
:103C80008DAD9EAD9AAF89AF89AD9AAD0197F1F731
:103C90009AAF89AF0E94F9169FC185EA90E00E9411
:103CA000C71880E090E0A8ECB2E48DAB9EABAFAB60
:103CB000B8AF6DA97EA98FA998AD20E030E04AEF9A
:103CC00054E40E941F02DC01CB0189AB9AABABAB81
:103CD000BCAB69A97AA98BA99CA920E030E040E897
:103CE0005FE30E94790388232CF481E090E098AB95
:103CF0008FA73FC069A97AA98BA99CA920E03FEFB3
:103D00004FE757E40E94190318164CF56DA97EA9D8
:103D10008FA998AD20E030E040E251E40E941F02FC
:103D2000DC01CB01BC01CD010E944900DC01CB01CB
:103D300098AB8FA70FC088EC90E09EA78DA78DA5AC
:103D40009EA50197F1F79EA78DA78FA598A901972A
:103D500098AB8FA78FA598A9009769F714C069A998
:103D60007AA98BA99CA90E944900DC01CB0198ABE0
:103D70008FA78FA598A99CA78BA78BA59CA501971A
:103D8000F1F79CA78BA70E94F916FE01EF58FF4F91
:103D900080819181A281B3810097A105B10509F0CD
:103DA0007DC00E94F9168FEA90E00E94C71880E05B
:103DB00090E0A8ECB2E48FA398A7A9A7BAA76FA137
:103DC00078A589A59AA520E030E04AEF54E40E9446
:103DD0001F02DC01CB018BA39CA3ADA3BEA36BA1EF
:103DE0007CA18DA19EA120E030E040E85FE30E942D
:103DF000790388232CF481E090E09AA389A33FC043
:103E00006BA17CA18DA19EA120E03FEF4FE757E47D
:103E10000E94190318164CF56FA178A589A59AA5DB
:103E200020E030E040E251E40E941F02DC01CB01BF
:103E3000BC01CD010E944900DC01CB019AA389A3FA
:103E40000FC088EC90E098A38F8F8F8D98A1019779
:103E5000F1F798A38F8F89A19AA101979AA389A3BB
:103E600089A19AA1009769F714C06BA17CA18DA1CB
:103E70009EA10E944900DC01CB019AA389A389A1DC
:103E80009AA19E8F8D8F8D8D9E8D0197F1F79E8FBC
:103E90008D8FFE01EB58FF4F10829EC082EC90E0A8
:103EA0000E94C71883E061E00E94F018FE01EF58FD
:103EB000FF4F80819181A281B381BC01CD010E941D
:103EC0004F198DEC90E00E94C71880E090E0A8ECBC
:103ED000B2E4898F9A8FAB8FBC8F698D7A8D8B8D71
:103EE0009C8D20E030E04AEF54E40E941F02DC0188
:103EF000CB018D8B9E8BAF8BB88F6D897E898F891F
:103F0000988D20E030E040E85FE30E947903882349
:103F10002CF481E090E09C8B8B8B3FC06D897E8977
:103F20008F89988D20E03FEF4FE757E40E941903F7
:103F300018164CF5698D7A8D8B8D9C8D20E030E0C4
:103F400040E251E40E941F02DC01CB01BC01CD0123
:103F50000E944900DC01CB019C8B8B8B0FC088EC4D
:103F600090E09A8B898B89899A890197F1F79A8BCE
:103F7000898B8B899C8901979C8B8B8B8B899C89E6
:103F8000009769F714C06D897E898F89988D0E948A
:103F90004900DC01CB019C8B8B8B8B899C89988B96
:103FA0008F878F8598890197F1F7988B8F870E946B
:103FB000F9169E012F583F4FFE01EF58FF4F8081A9
:103FC0009181A281B3810197A109B109F90180838F
:103FD0009183A283B383BBCB1092FE01FE01EF5805
:103FE000FF4F82E090E0A0E0B0E080839183A28365
:103FF000B383ECCA85ED90E00E94C71880E090E0A2
:10400000A8E4B2E48B879C87AD87BE876B857C85EF
:104010008D859E8520E030E04AEF54E40E941F0227
:10402000DC01CB018F839887A987BA876F81788558
:1040300089859A8520E030E040E85FE30E947903BB
:1040400088232CF481E090E09E838D833FC06F81B4
:10405000788589859A8520E03FEF4FE757E40E94F5
:10406000190318164CF56B857C858D859E8520E09F
:1040700030E040E251E40E941F02DC01CB01BC01B0
:10408000CD010E944900DC01CB019E838D830FC0CE
:1040900088EC90E09C838B838B819C810197F1F766
:1040A0009C838B838D819E8101979E838D838D81DF
:1040B0009E81009769F714C06F81788589859A85FC
:1040C0000E944900DC01CB019E838D838D819E81FE
:1040D0009A83898389819A810197F1F79A838983E9
:1040E0000E94F91673CADF93CF93CDB7DEB781E094
:1040F0008093FE01CF91DF910895A1E21A2EAA1BB1
:10410000BB1BFD010DC0AA1FBB1FEE1FFF1FA21787
:10411000B307E407F50720F0A21BB30BE40BF50B84
:10412000661F771F881F991F1A9469F7609570950D
:10413000809590959B01AC01BD01CF0108952F9210
:104140003F924F925F926F927F928F929F92AF9227
:10415000BF92CF92DF92EF92FF920F931F93CF9374
:10416000DF93CDB7DEB7CA1BDB0B0FB6F894DEBF0B
:104170000FBECDBF09942A88398848885F846E8431
:104180007D848C849B84AA84B984C884DF80EE807B
:10419000FD800C811B81AA81B981CE0FD11D0FB684
:1041A000F894DEBF0FBECDBFED010895F894FFCFA8
:1041B00057656C636F6D65203A2900596F757220E1
:1041C00050617373776F72643A00537563636573FC
:1041D00073203A29200053797374656D204F706500
:1041E0006E696E672E2E2E2E00446F6F72204F70F8
:1041F000656E65640057726F6E67203A2820005321
:10420000797374656D20436C6F73696E672E2E2E03
:104210002E0054727920416761696E200020436846
:10422000616E6365004669727374204D6F6465004A
:10423000000000000000000000010202030303036D
:104240000404040404040404050505050505050526
:104250000505050505050505060606060606060606
:1042600006060606060606060606060606060606EE
:1042700006060606060606060707070707070707D6
:1042800007070707070707070707070707070707BE
:1042900007070707070707070707070707070707AE
:1042A000070707070707070707070707070707079E
:1042B0000707070707070707080808080808080886
:1042C000080808080808080808080808080808086E
:1042D000080808080808080808080808080808085E
:1042E000080808080808080808080808080808084E
:1042F000080808080808080808080808080808083E
:10430000080808080808080808080808080808082D
:10431000080808080808080808080808080808081D
:10432000080808080808080808080808080808080D
:1043300008080808080808080506070203043132BF
:08434000333435366364650077
:00000001FF
