:100000000C942A000C94EF080C9418090C944109E4
:100010000C9447000C9447000C9447000C94FB068A
:100020000C9447000C9447000C94CD070C941C08CA
:100030000C9447000C9447000C9447000C94470024
:100040000C9447000C9447000C9447000C94470014
:100050000C94470011241FBECFE5D8E0DEBFCDBF12
:1000600012E0A0E6B0E0E8EEF6E202C005900D92E4
:10007000AC33B107D9F712E0ACE3B2E001C01D9296
:10008000AC36B107E1F70E9455120C9472130C9430
:100090000000EF92FF920F931F937B018C0120E0F1
:1000A00030E040E05FE40E94190388238CF0C8012F
:1000B000B70120E030E040E05FE40E94C1010E940F
:1000C00079039B01AC01205030404040504806C0AD
:1000D000C801B7010E9479039B01AC01B901CA01B3
:1000E0001F910F91FF90EF900895A0E0B0E0EBE733
:1000F000F0E00C943B13DC012B01FA019C9192304F
:1001000008F439C1EB018881823008F433C194309E
:1001100069F4843009F02FC111969C91119789815F
:10012000981709F428C1A6E1B1E025C1843009F48B
:1001300021C18230A9F4923009F01DC19A01AD01AC
:1001400088E0EA010990AE01E90109929E0181501F
:10015000C1F7E201898111969C918923818308C1AD
:10016000923009F407C112962D903C901397EB0141
:100170008A819B811496AD90BD90CD90DC901797AD
:10018000EC80FD800E811F819101281B390BB90184
:1001900037FF04C066277727621B730B6032710537
:1001A0000CF061C0121613066CF537014801062EDB
:1001B00004C096948794779467940A94D2F721E0C8
:1001C00030E040E050E004C0220F331F441F551FB1
:1001D0006A95D2F721503040404050402E213F21B7
:1001E00040235123211531054105510521F021E01E
:1001F00030E040E050E079018A01E628F72808293C
:1002000019293CC0232BD1F1260E371E350146019A
:10021000062E04C096948794779467940A94D2F734
:1002200021E030E040E050E004C0220F331F441FC3
:10023000551F6A95D2F721503040404050402A2146
:100240003B214C215D21211531054105510521F04E
:1002500021E030E040E050E059016A01A628B728CB
:10026000C828D9280BC0821593052CF01C01AA249C
:10027000BB24650103C0EE24FF24870111969C91E5
:10028000D20111968C91981709F445C0992339F041
:10029000A80197012A193B094C095D0906C0A6016E
:1002A00095012E193F09400B510B57FD08C01182D3
:1002B0003382228224833583468357831DC081E0A5
:1002C00081833382228288279927DC01821B930B4A
:1002D000A40BB50B84839583A683B7830DC0220F2F
:1002E000331F441F551F24833583468357838281E0
:1002F000938101979383828324813581468157813D
:10030000DA01C9010197A109B1098F5F9F4FAF4F72
:10031000BF4328F30BC0918333822282EA0CFB1C7B
:100320000C1D1D1DE482F5820683178383E0808304
:10033000248135814681578157FF1AC0C901AA27F8
:1003400097FDA095BA2F81709070A070B0705695EF
:10035000479537952795822B932BA42BB52B848318
:100360009583A683B7838281938101969383828349
:10037000DF0101C0D201CD01CDB7DEB7E2E10C94BF
:100380005713A0E2B0E0E7ECF1E00C944713698367
:100390007A838B839C832D833E834F835887E9E048
:1003A000EE2EF12CEC0EFD1ECE010196B7010E943F
:1003B0006A058E010F5E1F4FCE010596B8010E949F
:1003C0006A058A8991E089278A8BC701B801AE0145
:1003D000475E5F4F0E9475000E949504A096E6E07C
:1003E0000C946313A0E2B0E0E8EFF1E00C94471343
:1003F00069837A838B839C832D833E834F835887C5
:10040000F9E0EF2EF12CEC0EFD1ECE010196B701A6
:100410000E946A058E010F5E1F4FCE010596B8013E
:100420000E946A05C701B801AE01475E5F4F0E9496
:1004300075000E949504A096E6E00C946313A0E278
:10044000B0E0E5E2F2E00C943B1369837A838B839E
:100450009C832D833E834F835887CE010196BE0136
:10046000675F7F4F0E946A05CE010596BE016F5EF1
:100470007F4F0E946A059985923088F08989823081
:10048000C8F0943019F4823051F404C0843029F457
:10049000923081F486E191E0C6C0923049F420E0C8
:1004A0009A858A89981321E02A87CE010996BBC0D4
:1004B000823049F420E09A858A89981321E02A8BBA
:1004C000CE014196B0C02D843E844F8458886D88FB
:1004D0007E888F88988CEE24FF248701AA24BB2471
:1004E000650140E050E060E070E0E0E0F0E0C10174
:1004F00081709070892BE9F0E60CF71C081D191D1E
:100500009A01AB012A0D3B1D4C1D5D1D80E090E062
:10051000A0E0B0E0E614F7040805190520F481E036
:1005200090E0A0E0B0E0BA01A901480F591F6A1F8E
:100530007B1FAA0CBB1CCC1CDD1C97FE08C081E0F5
:1005400090E0A0E0B0E0A82AB92ACA2ADB2A3196B6
:10055000E032F10549F0660C771C881C991C569412
:10056000479437942794C3CFFA85EA892B893C892D
:100570008B859C85280F391F2E5F3F4F17C0CA01FE
:1005800081709070892B61F016950795F794E79428
:1005900080E090E0A0E0B0E8E82AF92A0A2B1B2BC3
:1005A00076956795579547952F5F3F4F77FDE7CF36
:1005B0000CC0440F551F661F771F17FD4160EE0CDE
:1005C000FF1C001F111F21503040403090E05907A0
:1005D00090E0690790E4790760F32B8F3C8FDB0193
:1005E000CA018F779070A070B07080349105A1051A
:1005F000B10561F447FD0AC0E114F10401051105DC
:1006000029F0405C5F4F6F4F7F4F40781A8EFE1786
:1006100011F081E08A8F4D8F5E8F6F8F78A383E01A
:10062000898FCE0149960E949504A096E2E10C9430
:100630005713A8E1B0E0EFE1F3E00C9447136983AE
:100640007A838B839C832D833E834F83588789E0F5
:10065000E82EF12CEC0EFD1ECE010196B7010E9492
:100660006A058E010F5E1F4FCE010596B8010E94EC
:100670006A058985823040F08989823028F0C70177
:10068000B8010E94E20501C08FEF6896E6E00C9485
:100690006313A8E1B0E0EFE4F3E00C94471369833F
:1006A0007A838B839C832D833E834F83588789E095
:1006B000E82EF12CEC0EFD1ECE010196B7010E9432
:1006C0006A058E010F5E1F4FCE010596B8010E948C
:1006D0006A058985823040F08989823028F0C70117
:1006E000B8010E94E20501C081E06896E6E00C9442
:1006F0006313ACE0B0E0EFE7F3E00C944B136983D5
:100700007A838B839C83CE010196BE016B5F7F4F02
:100710000E946A058D81823061F1823050F184300F
:1007200021F48E81882351F12EC02F81388537FD29
:1007300020C06E812F3131051CF06623F9F023C0F3
:100740008EE190E0821B930B29853A854B855C8571
:1007500004C056954795379527958A95D2F7662315
:10076000B1F050954095309521953F4F4F4F5F4FD9
:100770000EC020E030E040E050E009C02FEF3FEF36
:100780004FEF5FE704C020E030E040E050E8B901FF
:10079000CA012C96E2E00C946713A8E0B0E0E3ED08
:1007A000F3E00C9443137B018C0161157105810505
:1007B000910519F482E0898360C083E089838EE12A
:1007C000C82ED12CDC82CB82ED82FE820F8318876B
:1007D000C801B7010E944604FC013197F7FF3BC0F6
:1007E000222733272E1B3F0B57016801022E04C01E
:1007F000D694C794B794A7940A94D2F740E050E0F7
:1008000060E070E081E090E0A0E0B0E004C0880F1C
:10081000991FAA1FBB1F2A95D2F70197A109B109F9
:100820008E219F21A023B1230097A105B10521F0BE
:1008300041E050E060E070E04A295B296C297D29A5
:100840004D835E836F8378878EE190E08E1B9F0BD4
:100850009C838B8312C0309781F00E2E04C0EE0C67
:10086000FF1C001F111F0A94D2F7ED82FE820F8336
:100870001887CE1ADF0ADC82CB821A82CE0101965B
:100880000E9495042896EAE00C945F13EF92FF9281
:100890000F931F937B018C0180E0E81680E0F8063F
:1008A00081E0080780E0180788F48FEFE816F1046C
:1008B0000105110531F028F088E090E0A0E0B0E0FB
:1008C00017C080E090E0A0E0B0E012C080E0E81641
:1008D00080E0F80680E0080781E0180728F088E14A
:1008E00090E0A0E0B0E004C080E190E0A0E0B0E0E3
:1008F00020E230E040E050E0281B390B4A0B5B0B54
:1009000004C016950795F794E7948A95D2F7F701F6
:10091000E25EFE4F8081281B310941095109C9015E
:100920001F910F91FF90EF900895DF92EF92FF9249
:100930000F931F93FC01E480F58006811781D1801D
:100940008081823048F480E090E0A0E1B0E0E82AC5
:10095000F92A0A2B1B2BA5C0843009F49FC08230D2
:1009600021F4EE24FF24870105C0E114F104010500
:10097000110519F4E0E0F0E096C0628173819FEF09
:10098000623879070CF05BC022E83FEF261B370B7B
:100990002A3131052CF020E030E040E050E02AC060
:1009A000B801A701022E04C0769567955795479523
:1009B0000A94D2F781E090E0A0E0B0E004C0880F94
:1009C000991FAA1FBB1F2A95D2F70197A109B10948
:1009D0008E219F21A023B1230097A105B10521F00D
:1009E00081E090E0A0E0B0E09A01AB01282B392B28
:1009F0004A2B5B2BDA01C9018F779070A070B07021
:100A000080349105A105B10539F427FF09C0205CA8
:100A10003F4F4F4F5F4F04C0215C3F4F4F4F5F4FE1
:100A2000E0E0F0E02030A0E03A07A0E04A07A0E4D0
:100A30005A0710F0E1E0F0E079018A0127C0603840
:100A4000710564F5FB01E158FF4FD801C7018F77AD
:100A50009070A070B07080349105A105B10539F493
:100A6000E7FE0DC080E490E0A0E0B0E004C08FE3BA
:100A700090E0A0E0B0E0E80EF91E0A1F1B1F17FF70
:100A800005C016950795F794E794319687E016957B
:100A90000795F794E7948A95D1F705C0EE24FF24D3
:100AA0008701EFEFF0E06E2F679566276795902F2F
:100AB0009F77D794DD24D7948E2F8695492F462B88
:100AC000582F5D29B701CA011F910F91FF90EF9038
:100AD000DF900895FC01DB01408151812281622F6A
:100AE0006F7770E0221F2227221F9381892F880FA2
:100AF000822B282F30E0991F9927991F11969C93DC
:100B0000119721153105A9F54115510561057105AB
:100B100011F482E037C082E89FEF13969C938E9386
:100B200012979A01AB0167E0220F331F441F551F34
:100B30006A95D1F783E08C930DC0220F331F441FB9
:100B4000551F12968D919C911397019713969C9324
:100B50008E931297203080E0380780E0480780E4C9
:100B6000580758F314962D933D934D935C93179724
:100B700008952F3F310579F441155105610571053F
:100B800019F484E08C93089564FF03C081E08C9392
:100B900012C01C9210C02F57304013963C932E93D6
:100BA000129783E08C9387E0440F551F661F771FD1
:100BB0008A95D1F7706414964D935D936D937C93F1
:100BC000179708951F93DC01FB019C91923008F464
:100BD00047C08081823008F443C0943051F41196AC
:100BE0001C91843099F58181682F70E0611B710937
:100BF0003FC0843021F0923031F48230B9F18181EC
:100C0000882389F12DC011961C9111978230F1F043
:100C100081811817D9F412962D913C9113978281F6
:100C200093818217930794F028173907BCF0149624
:100C30008D919D910D90BC91A02D2481358146818F
:100C40005781281739074A075B0718F4112341F029
:100C50000AC082179307A407B50740F4112319F0BF
:100C600061E070E005C06FEF7FEF02C060E070E010
:100C7000CB011F9108958FB58E7F8FBD8FB58D7F6E
:100C80008FBD8EB588608EBD8EB58F7E8EBD8FB5C3
:100C90008F7B8FBD8FB580688FBD89B7806189BF1D
:100CA0008FB780688FBF0895AF92BF92CF92DF92C7
:100CB000EF92FF920F931F93CF93DF9328EE33E0D1
:100CC00040E050E00E94CB127B018C0182E016953F
:100CD0000795F794E7948A95D1F7E0924402F09251
:100CE00045020093460210934702CFEFDFEF5E010B
:100CF000CC24DD24C801B701A60195010E94FE1293
:100D00002197611571058105910589F7C801B70122
:100D1000A60195010E94FE1220933C0230933D02F1
:100D200040933E0250933F02DBBDCABDDF91CF919D
:100D30001F910F91FF90EF90DF90CF90BF90AF90F9
:100D400008958EB581608EBD8EB58D7F8EBD8EB5BA
:100D500084608EBD08958EB58E7F8EBD8EB58D7FDD
:100D60008EBD8EB58B7F8EBD08958FB58E7F8FBD66
:100D70008FB582608FBD8EB582608EBD8EB582606C
:100D80008EBD8FB58F7B8FBD8FB580688FBD089569
:100D900028E331E040E050E00E94CB1224E630E04E
:100DA00040E050E00E94FE12215030403BBD2ABD81
:100DB000089520E930ED43E050E00E94CB1277BD6A
:100DC00066BD08958EB581608EBD8EB58D7F8EBD5A
:100DD0008EB584608EBD08958EB58E7F8EBD8EB526
:100DE0008D7F8EBD8EB58B7F8EBD089590936402EE
:100DF0008093630208951F920F920FB60F921124F1
:100E00002F933F934F935F936F937F938F939F9312
:100E1000AF93BF93EF93FF93809140029091410273
:100E2000A0914202B09143020196A11DB11D809391
:100E3000400290934102A0934202B093430220915A
:100E40003C0230913D0240913E0250913F02821798
:100E50009307A407B50769F4E0916302F091640277
:100E60000995109240021092410210924202109293
:100E70004302FF91EF91BF91AF919F918F917F912D
:100E80006F915F914F913F912F910F900FBE0F90F7
:100E90001F90189583B78F7B83BF83B7877F83BFEE
:100EA00089B7816089BF8FB780688FBF089528EEAA
:100EB00033E040E050E00E94CB1236E096958795F3
:100EC000779567953A95D1F76093500270935102E8
:100ED0008093520290935302272F382F492F552782
:100EE00020934C0230934D0240934E0250934F0298
:100EF000662379F0862F819582BF2F5F3F4F4F4F3A
:100F00005F4F20934C0230934D0240934E0250931A
:100F10004F02089583B7816083BF83B78D7F83BFFE
:100F200083B7846083BF089583B78E7F83BF83B701
:100F30008D7F83BF83B78B7F83BF089583B7806422
:100F400083BF83B7877F83BF83B78F7E83BF83B71A
:100F5000806283BF08952FEF30E040E050E00E94B0
:100F6000CB1224E630E040E050E00E94FE122CBF9D
:100F700008950E948A0708950E9494070895909307
:100F8000680280936702089590936A0280936902D1
:100F9000709366026093650208951F920F920FB6D8
:100FA0000F9211242F933F934F935F936F937F93EF
:100FB0008F939F93AF93BF93EF93FF9380915802CA
:100FC00090915902A0915A02B0915B020196A11D25
:100FD000B11D8093580290935902A0935A02B09386
:100FE0005B02209148023091490240914A0250919F
:100FF0004B0282179307A407B50769F4E0916702D3
:10100000F0916802099510925802109259021092BC
:101010005A0210925B02FF91EF91BF91AF919F91A5
:101020008F917F916F915F914F913F912F910F9091
:101030000FBE0F901F9018951F920F920FB60F9230
:1010400011242F933F934F935F936F937F938F93CD
:101050009F93AF93BF93EF93FF938091540290912E
:101060005502A0915602B09157020196A11DB11DE3
:101070008093540290935502A0935602B093570266
:1010800020914C0230914D0240914E0250914F02FE
:1010900082179307A407B50789F4E0916702F091DE
:1010A000680209951092540210925502109256024D
:1010B0001092570280915002819582BFFF91EF916B
:1010C000BF91AF919F918F917F916F915F914F9160
:1010D0003F912F910F900FBE0F901F9018958FB7D3
:1010E00080688FBF08958FB78F778FBF089585B7BA
:1010F000816085BF85B78D7F85BF8BB78F7B8BBFA9
:10110000089585B7846085BF85B7877F85BF8BB716
:1011100080688BBF089584B78F7B84BF8BB78F7D2A
:101120008BBF0895813029F1813020F0823009F0A1
:101130004AC03EC0623071F0633020F4613009F083
:1011400042C005C0633061F06430E9F50CC085B77A
:101150008E7F02C085B7816085BF85B78D7F26C031
:1011600085B78E7F02C085B7816085BF85B78260F5
:101170001DC0623069F0633018F4613021F505C09C
:10118000633061F06430F9F40CC085B78B7F02C026
:1011900085B7846085BF85B7877F08C085B78B7F9B
:1011A00002C085B7846085BF85B7886085BF089514
:1011B000633031F0643039F484B7806484BF0895BB
:1011C00084B78F7B84BF0895009741F0E62FF0E04D
:1011D000EE0FFF1FE45AFD4F9183808308951F9205
:1011E0000F920FB60F9211242F933F934F935F935B
:1011F0006F937F938F939F93AF93BF93EF93FF93DF
:10120000E0915C02F0915D02309709F00995FF9141
:10121000EF91BF91AF919F918F917F916F915F916E
:101220004F913F912F910F900FBE0F901F901895E7
:101230001F920F920FB60F9211242F933F934F934B
:101240005F936F937F938F939F93AF93BF93EF932E
:10125000FF93E0915E02F0915F02309709F00995EB
:10126000FF91EF91BF91AF919F918F917F916F917E
:101270005F914F913F912F910F900FBE0F901F9054
:1012800018951F920F920FB60F9211242F933F9330
:101290004F935F936F937F938F939F93AF93BF937E
:1012A000EF93FF938091600290916102892B29F066
:1012B000E0915C02F0915D020995FF91EF91BF9181
:1012C000AF919F918F917F916F915F914F913F91DE
:1012D0002F910F900FBE0F901F901895382F8830C8
:1012E00008F075C0643008F072C04130B1F561306B
:1012F00099F0613030F06230D1F0633009F067C0AE
:1013000021C02AB381E090E002C0880F991F3A956E
:10131000E2F7282B2ABB089527B381E090E002C0B2
:10132000880F991F3A95E2F7282B27BB089524B31D
:1013300081E090E002C0880F991F3A95E2F7282BD0
:1013400024BB089521B381E090E002C0880F991F6B
:101350003A95E2F7282B21BB08954423C1F561306B
:1013600099F0613028F06230D9F0633081F524C003
:101370002AB381E090E002C0880F991F3A95E2F706
:10138000809582238ABB089527B381E090E002C054
:10139000880F991F3A95E2F78095822387BB0895BD
:1013A00024B381E090E002C0880F991F3A95E2F7DC
:1013B0008095822384BB089521B381E090E002C030
:1013C000880F991F3A95E2F78095822381BB089593
:1013D000382F883008F075C0643008F072C0413092
:1013E000B1F5613099F0613030F06230D1F06330A6
:1013F00009F067C021C02BB381E090E002C0880FE4
:10140000991F3A95E2F7282B2BBB089528B381E06A
:1014100090E002C0880F991F3A95E2F7282B28BB6D
:10142000089525B381E090E002C0880F991F3A9596
:10143000E2F7282B25BB089522B381E090E002C09B
:10144000880F991F3A95E2F7282B22BB0895442371
:10145000C1F5613099F0613028F06230D9F0633025
:1014600081F524C02BB381E090E002C0880F991F62
:101470003A95E2F7809582238BBB089528B381E0EB
:1014800090E002C0880F991F3A95E2F78095822379
:1014900088BB089525B381E090E002C0880F991FB2
:1014A0003A95E2F78095822385BB089522B381E0C7
:1014B00090E002C0880F991F3A95E2F78095822349
:1014C00082BB0895382F8830B0F56430A0F56130C4
:1014D00091F0613028F06230C9F0633061F521C0CD
:1014E0002BB381E090E002C0880F991F3A95E2F794
:1014F00028272BBB089528B381E090E002C0880F15
:10150000991F3A95E2F7282728BB089525B381E073
:1015100090E002C0880F991F3A95E2F7282725BB73
:10152000089522B381E090E002C0880F991F3A9598
:10153000E2F7282722BB0895382F8830D0F4643092
:10154000C0F4613049F0613028F0623039F0633026
:1015500081F406C029B305C026B303C023B301C07C
:1015600020B381E090E002C0880F991F3A95E2F71E
:101570002823822F0895843080F4813049F081300F
:1015800028F0823039F0833041F406C06ABB0895F8
:1015900067BB089564BB089561BB0895843080F4EF
:1015A000813049F0813028F0823039F0833041F4C5
:1015B00006C06BBB089568BB089565BB089562BB08
:1015C00008958430C0F4813059F0813028F08230A1
:1015D00059F0833081F40CC08BB380958BBB089598
:1015E00088B3809588BB089585B3809585BB0895A1
:1015F00082B3809582BB0895843080F4813049F0B5
:10160000813028F0823039F0833041F406C089B34C
:10161000089586B3089583B3089580B308953E9ADC
:101620003F983D98329A319A309A3598379A089572
:1016300015B814B897B1907797B98F708330C1F00F
:10164000843028F4813071F0823080F409C0853014
:10165000A1F0853080F0863099F08730B1F412C067
:10166000389801C0389A39983A980FC0389801C014
:10167000389A399AF9CF389801C0389A399804C005
:10168000389801C0389A399A3A9A369A349BFECFE4
:10169000349A24B135B1C9010895379A089537981D
:1016A00008952FB522602FBD2FB52E7F2FBD2EB5EB
:1016B00020612EBD2EB528602EBD2FB520682FBD10
:1016C0002FB52F7B2FBD2FE13EE437BD26BD9BBD3F
:1016D0008ABD8EB58B7F8EBD8EB582608EBD8EB578
:1016E0008E7F8EBD08950E94EC0608950E94E2064A
:1016F00008959C01220F331F220F331F820F931F67
:1017000064EB70E00E94EA126B5F7F4F80E090E034
:101710000E94C80608950E94620A089540E00E944F
:10172000E809089541E00E94E80908950F931F9386
:10173000182F062F41E00E946E09812F602F40E094
:101740000E94E8091F910F910895EF92FF921F9355
:10175000182F80E062E041E00E94E80981E062E049
:1017600040E00E94E809412F407184E062E00E945D
:10177000E809412F407285E062E00E94E809412FAC
:10178000407486E062E00E94E809412F407887E0DB
:1017900062E00E94E80982E062E041E00E94E8091C
:1017A00082E062E040E00E94E80980E1E82E87E202
:1017B000F82EC7010197F1F7412F417084E062E0F4
:1017C0000E94E809412F427085E062E00E94E8092A
:1017D000412F447086E062E00E94E809187087E0BB
:1017E00062E0412F0E94E80982E062E041E00E944D
:1017F000E80982E062E040E00E94E809C701019741
:10180000F1F71F91FF90EF9008952F923F924F9222
:101810005F926F927F928F929F92AF92BF92CF9280
:10182000DF92EF92FF920F931F93DF93CF93CDB789
:10183000DEB766970FB6F894DEBF0FBECDBF4B0183
:101840005C0120E030E040E050E00E94490387FD69
:1018500007C0C501B4010E9449002B013C010DC025
:10186000B7FAB094B7F8B094C501B4010E9449002A
:101870002B013C018DE20E94A50BCE0101969E8BAF
:101880008D8B8AE0ED89FE8911928A95E9F78301B3
:1018900072011E010894211C311C17C0C801B70138
:1018A0002AE030E040E050E00E94FE12F101619336
:1018B0001F01C801B7012AE030E040E050E00E947B
:1018C000FE12C901DA017C018D01D22CFD89DF1ADB
:1018D000E114F1040105110509F7DA948D2D99271A
:1018E00087FD9095D3948E010F5F1F4F080F191F2E
:1018F0007801ED18F10807C0F8018081805D0E9431
:10190000A50B01501040CD2C0E151F05A9F79BE02B
:10191000292E312C2C0E3D1E8AE0F10111928A9560
:10192000E9F7C501B40120E030E040E85FE30E9440
:10193000F2017B018C01C301B2010E94CD039B0126
:10194000AC01C801B7010E94C10120E836E948E1B5
:101950005BE40E941F020E9449007B018C018EE221
:101960000E94A50B4101510117C0C801B7012AE02F
:1019700030E040E050E00E94FE12F50161935F010B
:10198000C801B7012AE030E040E050E00E94FE12BA
:10199000C901DA017C018D019A2D9219E114F1043B
:1019A0000105110511F74BE69E012B5E3F4FF40137
:1019B0008081882359F092508E01055F1F4F892F37
:1019C000992787FD9095080F191F0BC0F4014193CB
:1019D0004F01E217F30759F7EECF805D0E94A50B88
:1019E000C394F80180818B3629F001501040F7E054
:1019F000CF1699F766960FB6F894DEBF0FBECDBF2F
:101A0000CF91DF911F910F91FF90EF90DF90CF90DA
:101A1000BF90AF909F908F907F906F905F904F900E
:101A20003F902F900895AF92BF92CF92DF92EF92A6
:101A3000FF920F931F93DF93CF93CDB7DEB72A9713
:101A40000FB6F894DEBF0FBECDBF7B018C0197FFB0
:101A500016C010950095F094E094E11CF11C011D56
:101A6000111D8DE20E94A50B5E010894A11CB11C02
:101A70008AE0F50111928A95E9F765011EC06115AA
:101A800071058105910581F780E3ECCFC801B701AD
:101A90002AE030E040E050E00E942013F60161931C
:101AA0006F01C801B7012AE030E040E050E00E9439
:101AB0002013C901DA017C018D012C2D2A19E114B2
:101AC000F1040105110511F72150822F992787FD97
:101AD00090952F5F8E010F5F1F4F080F191F780120
:101AE000E21AF10807C0F8018081805D0E94A50B11
:101AF000015010400E151F05B1F72A960FB6F89445
:101B0000DEBF0FBECDBFCF91DF911F910F91FF9030
:101B1000EF90DF90CF90BF90AF9008951F93CF9339
:101B2000DF93EC0110E003C01F5F0E94A50BFE01D4
:101B3000E10FF11D80818823B9F7DF91CF911F91CB
:101B40000895EF92FF921F93182F80E062E040E02B
:101B50000E94E80981E062E040E00E94E809412F2C
:101B6000407184E062E00E94E809412F407285E004
:101B700062E00E94E809412F407486E062E00E9422
:101B8000E809412F407887E062E00E94E80982E09E
:101B900062E041E00E94E80982E062E040E00E94E9
:101BA000E80920E1E22E27E2F22EC7010197F1F7C2
:101BB000412F417084E062E00E94E809412F4270A9
:101BC00085E062E00E94E809412F447086E062E00F
:101BD0000E94E809187087E062E0412F0E94E8093E
:101BE00082E062E041E00E94E80982E062E040E0D9
:101BF0000E94E809C7010197F1F71F91FF90EF904C
:101C00000895882319F0813051F405C0862F80583B
:101C10000E94A10D0895862F81540E94A10D089560
:101C200081E00E94A10D80EA9FE00197F1F70895FD
:101C30000F931F9382E06FEF0E94BB0A80E062E087
:101C400041E00E946E0981E062E041E00E946E097D
:101C500082E062E041E00E946E0980E69AEE019720
:101C6000F1F783E30E94A10D82E30E94A10D88E2B7
:101C70000E94A10D00ED17E0C8010197F1F78CE07B
:101C80000E94A10DC8010197F1F781E00E94A10D0A
:101C900000EA1FE0C8010197F1F786E00E94A10D5C
:101CA000C8010197F1F71F910F910895CF92DF922C
:101CB000EF92FF920F931F93DF93CF93CDB7DEB7D1
:101CC0002F970FB6F894DEBF0FBECDBFDE0117967B
:101CD000E2E3F2E089E001900D928150E1F7DE014C
:101CE0001196EFE2F2E083E001900D928150E1F76E
:101CF000DE011496ECE2F2E083E001900D92815057
:101D0000E1F700E010E06E010894C11CD11CF6015F
:101D1000E00FF11FE0808E2D60E040E00E94E809B6
:101D2000FC808F2D60E00E949C0A882319F420E03B
:101D300030E013C0FD808F2D60E00E949C0A882354
:101D400019F421E030E009C0FE808F2D60E00E9490
:101D50009C0A8823A9F422E030E0C901880F991F6A
:101D6000820F931FFE013196E80FF91FE00FF11F5C
:101D700016818F2D60E00E949C0A8823D1F30CC04D
:101D80008E2D60E041E00E94E8090F5F1F4F033095
:101D9000110509F0BCCF1FEF812F2F960FB6F894D5
:101DA000DEBF0FBECDBFCF91DF911F910F91FF908E
:101DB000EF90DF90CF90089541E00E94E8090895E8
:101DC0000F931F93182F062F41E00E94E80980ED22
:101DD00097E028EC30E0F9013197F1F70197D9F756
:101DE000812F602F40E00E94E80980ED97E028EC09
:101DF00030E0F9013197F1F70197D9F7812F602F82
:101E000041E00E94E80980ED97E028EC30E0F9011C
:101E10003197F1F70197D9F7812F602F40E00E94A9
:101E2000E80980ED97E028EC30E0F9013197F1F70F
:101E30000197D9F7812F602F41E00E94E80980EDDA
:101E400097E028EC30E0F9013197F1F70197D9F7E5
:101E5000812F602F40E00E94E8091F910F910895A3
:101E60000F931F93182F062F41E00E94E80980ED81
:101E700097E028EC30E0F9013197F1F70197D9F7B5
:101E8000812F602F40E00E94E80980ED97E028EC68
:101E900030E0F9013197F1F70197D9F7812F602FE1
:101EA00041E00E94E80980ED97E028EC30E0F9017C
:101EB0003197F1F70197D9F7812F602F40E00E9409
:101EC000E8091F910F9108950F931F93182F062F64
:101ED00041E00E94E80980ED97E028EC30E0F9014C
:101EE0003197F1F70197D9F7812F602F40E00E94D9
:101EF000E8091F910F91089540E00E94E8090895B4
:101F000041E00E94E80908950E94620A08950F9333
:101F10001F93182F062F41E00E946E09812F602F1A
:101F200040E00E94E8091F910F910895FF920F93DE
:101F30001F93CF93DF9382E090E0A0E0B0E0809326
:101F4000280290932902A0932A02B0932B0280E6E4
:101F500090E00E948E0D80E197E228EC30E0F901DC
:101F60003197F1F70197D9F700E21EE4FF24FA94C4
:101F7000C8ECD0E0109262020E94100E8BE690E056
:101F80000E948E0D81E061E00E94010E3BC083360D
:101F900061F40E94100E8BE690E00E948E0D81E0AD
:101FA00061E00E94010E1092620290916B02892FF3
:101FB00081538630D8F4892F0E94A50BC801019760
:101FC000F1F7609162026F5F81E00E94010E8AE288
:101FD0000E94A50B90916202E92FF0E0E25EFD4FB6
:101FE00080916B0280839F5F909362020E94560EE5
:101FF00080936B0280916B028F3FC1F386E063E0B8
:102000000E94640F80916B02853609F0C0CFE09189
:102010006202F0E0E25EFD4F1082F0926B020E94DD
:10202000100E80911E02813309F04DC080911F0275
:10203000823309F048C080912002833309F043C005
:1020400080912102843309F03EC08AE790E00E942B
:102050008E0D81E060E00E94010E86E890E00E9413
:102060008E0D88E893E128EC30E0F9013197F1F723
:102070000197D9F70E94100E89E990E00E948E0D19
:102080008CEB92E00E94510B80E29EE428EC30E061
:10209000F9013197F1F70197D9F70E94100E80E40A
:1020A00096E00E94510B85EA90E00E948E0D80E23E
:1020B0009EE428EC30E0F9013197F1F70197D9F768
:1020C0000E94100E62C086E063E00E94300F8FEA2B
:1020D00090E00E948E0D88E893E1FE013197F1F7C0
:1020E0000197D9F70E94100E809128029091290241
:1020F000A0912A02B0912B020097A105B10591F49D
:102100000E94100E89EB90E00E948E0D88E893E10A
:1021100028EC30E0F9013197F1F70197D9F71092E7
:10212000620233C08CEC90E00E948E0D81E063E08F
:102130000E94010E609128027091290280912A026A
:1021400090912B020E94130D87ED90E00E948E0D5E
:1021500088E893E1FE013197F1F70197D9F70E94E2
:10216000100E8091280290912902A0912A02B0912C
:102170002B020197A109B1098093280290932902AB
:10218000A0932A02B0932B02F5CEDF91CF911F913D
:102190000F91FF900895CF93DF9381E060E00E945C
:1021A000010E8FED90E00E948E0D81E00E94180BD1
:1021B000EC0184E690E0C89FB001C99F700DD89FE4
:1021C000700D1124672F77276695669580E090E063
:1021D0000E94130D85E20E94A50BC436D10578F547
:1021E00081E06BE00E94010E87EE90E00E948E0D70
:1021F00068E070E080E090E00E94130D80E061E014
:102200000E94920B81E061E00E94920B82E061E00B
:102210000E94920B83E061E00E94920B84E061E0F7
:102220000E94920B85E061E00E94920B86E061E0E3
:102230000E94920B87E061E00E94920BDFC0CE010A
:1022400084569040883C910558F581E06BE00E94EF
:10225000010E87EE90E00E948E0D67E070E080E056
:1022600090E00E94130D80E061E00E94920B81E0FB
:1022700061E00E94920B82E061E00E94920B83E099
:1022800061E00E94920B84E061E00E94920B85E085
:1022900061E00E94920B86E061E00E94920BAAC06E
:1022A000CE018C529140883C910538F581E06BE07D
:1022B0000E94010E87EE90E00E948E0D66E070E0B5
:1022C00080E090E00E94130D80E061E00E94920B9C
:1022D00081E061E00E94920B82E061E00E94920B3B
:1022E00083E061E00E94920B84E061E00E94920B27
:1022F00085E061E00E94920B79C0CE01845F91403D
:10230000883C910518F581E06BE00E94010E87EE94
:1023100090E00E948E0D65E070E080E090E00E9409
:10232000130D80E061E00E94920B81E061E00E9469
:10233000920B82E061E00E94920B83E061E00E94D8
:10234000920B84E061E00E94920B4CC0CE018C5B4A
:102350009240883C9105F8F481E06BE00E94010E08
:1023600087EE90E00E948E0D64E070E080E090E0E7
:102370000E94130D80E061E00E94920B81E061E019
:102380000E94920B82E061E00E94920B83E061E088
:102390000E94920B23C0C458D340CC37D10570F5AE
:1023A00081E06BE00E94010E87EE90E00E948E0DAE
:1023B00062E070E080E090E00E94130D80E061E058
:1023C0000E94920B81E061E00E94920B82E061E04A
:1023D0000E948E0B83E061E00E948E0B84E061E03E
:1023E0000E948E0B85E061E00E948E0B86E061E02A
:1023F0000E948E0B87E061E00E948E0BDF91CF91EF
:102400000895CF93DF930E94100E80E060E00E9459
:10241000010E8DEE90E00E948E0D80E00E94180B60
:10242000A0E0B0E0BC01CD010E94CD0320E030E48B
:102430004CE950E40E941F020E944900DC01CB01DC
:10244000EC016AE070E00E94EA1280E090E00E94F5
:10245000130D83E40E94A50B81E0C430D80760F01F
:1024600080E069E00E94010E83EF90E00E948E0DF3
:1024700087E063E041E00BC080E069E00E94010E6C
:102480008AEF90E00E948E0D87E063E040E00E94BA
:10249000E809CA59D14020F086E063E00E94840F29
:1024A0000E94CB10DF91CF91089586E063E00E94F7
:1024B000870F0E94180E80E065E00E94010E82E006
:1024C00091E00E948E0D81E064E00E94010E8AE09E
:1024D00091E00E948E0D80E061E00E94960B81E009
:1024E00061E00E94960B82E061E00E94960B83E01F
:1024F00061E00E94960B84E061E00E94960B85E00B
:1025000061E00E94960B86E061E00E94960B87E0F6
:1025100061E00E94960B87E063E041E00E946E0953
:1025200080E060E040E00E946E0981E060E040E011
:102530000E946E090E940F0B0E944A0768EE73E02A
:1025400080E090E00E9457070E948A0781E092E1B4
:102550000E94BF0780E06CE10E94BB0A80E06CEF44
:102560000E94CE0A83E063E040E00E946E0983E0AF
:1025700063E041E00E94E80985E063E041E00E94F9
:102580006E090E9481080E946F0886E99FE061E061
:102590000E94E408FFCF629FD001739FF001829FE9
:1025A000E00DF11D649FE00DF11D929FF00D839FE2
:1025B000F00D749FF00D659FF00D9927729FB00D7F
:1025C000E11DF91F639FB00DE11DF91FBD01CF0192
:1025D00011240895AA1BBB1B51E107C0AA1FBB1FF2
:1025E000A617B70710F0A61BB70B881F991F5A959F
:1025F000A9F780959095BC01CD010895A1E21A2E0E
:10260000AA1BBB1BFD010DC0AA1FBB1FEE1FFF1F96
:10261000A217B307E407F50720F0A21BB30BE40BE6
:10262000F50B661F771F881F991F1A9469F760952D
:102630007095809590959B01AC01BD01CF010895E7
:1026400097FB092E05260ED057FD04D0D7DF0AD000
:10265000001C38F450954095309521953F4F4F4FD1
:102660005F4F0895F6F790958095709561957F4F2F
:102670008F4F9F4F08952F923F924F925F926F928C
:102680007F928F929F92AF92BF92CF92DF92EF9202
:10269000FF920F931F93CF93DF93CDB7DEB7CA1B83
:1026A000DB0B0FB6F894DEBF0FBECDBF09942A88AE
:1026B000398848885F846E847D848C849B84AA8456
:1026C000B984C884DF80EE80FD800C811B81AA81E3
:1026D000B981CE0FD11D0FB6F894DEBF0FBECDBFAE
:0826E000ED010895F894FFCF0D
:1026E80057656C636F6D65203A2900596F757220C4
:1026F80050617373776F72643A00537563636573DF
:1027080073203A29200053797374656D204F7065E2
:102718006E696E672E2E2E2E00446F6F72204F70DA
:10272800656E656400476F6F6420427965210057C4
:10273800726F6E67203A28200053797374656D2094
:10274800436C6F73696E672E2E2E2E00547279209B
:10275800416761696E2000204368616E63650042CD
:1027680072696768743A004C4544533A0054454DC1
:10277800503A0046616E3A4F4E0046616E3A4F46F7
:10278800460057454C434F4D4500534D4152542048
:1027980020484F4D450000000000000000000001E7
:1027A80002020303030304040404040404040505E7
:1027B80005050505050505050505050505050606BF
:1027C80006060606060606060606060606060606A1
:1027D800060606060606060606060606060607078F
:1027E8000707070707070707070707070707070771
:1027F8000707070707070707070707070707070761
:102808000707070707070707070707070707070750
:10281800070707070707070707070707070708083E
:102828000808080808080808080808080808080820
:102838000808080808080808080808080808080810
:102848000808080808080808080808080808080800
:1028580008080808080808080808080808080808F0
:1028680008080808080808080808080808080808E0
:1028780008080808080808080808080808080808D0
:1028880008080808080808080808080808080808C0
:1028980008080808080808080808080808080000C0
:1028A800000000000000000002000000050607020A
:0C28B800030431323334353663646500AC
:00000001FF
