:100000000C942A000C94BB060C94E4060C940D0787
:100010000C9447000C9447000C9447000C94470044
:100020000C9447000C9447000C9447000C94470034
:100030000C9447000C9447000C9447000C94470024
:100040000C9447000C9447000C9447000C94470014
:100050000C94470011241FBECFE5D8E0DEBFCDBF12
:1000600011E0A0E6B0E0E4EEFAE102C005900D92E6
:10007000A038B107D9F711E0A0E8B1E001C01D92A6
:10008000A738B107E1F70E94F60C0C94700D0C94A0
:100090000000EF92FF920F931F937B018C0120E0F1
:1000A00030E040E05FE40E94190388238CF0C8012F
:1000B000B70120E030E040E05FE40E94C1010E940F
:1000C00079039B01AC01205030404040504806C0AD
:1000D000C801B7010E9479039B01AC01B901CA01B3
:1000E0001F910F91FF90EF900895A0E0B0E0EBE733
:1000F000F0E00C94390DDC012B01FA019C91923057
:1001000008F439C1EB018881823008F433C194309E
:1001100069F4843009F02FC111969C91119789815F
:10012000981709F428C1A8E6B0E025C1843009F485
:1001300021C18230A9F4923009F01DC19A01AD01AC
:1001400088E0EA010990AE01E90109929E0181501F
:10015000C1F7E201898111969C918923818308C1AD
:10016000923009F407C112962D903C901397EB0141
:100170008A819B811496AD90BD90CD90DC901797AD
:10018000EC80FD800E811F819101281B390BB90184
:1001900037FF04C066277727621B730B6032710537
:1001A0000CF061C0121613066CF537014801062EDB
:1001B00004C096948794779467940A94D2F721E0C8
:1001C00030E040E050E004C0220F331F441F551FB1
:1001D0006A95D2F721503040404050402E213F21B7
:1001E00040235123211531054105510521F021E01E
:1001F00030E040E050E079018A01E628F72808293C
:1002000019293CC0232BD1F1260E371E350146019A
:10021000062E04C096948794779467940A94D2F734
:1002200021E030E040E050E004C0220F331F441FC3
:10023000551F6A95D2F721503040404050402A2146
:100240003B214C215D21211531054105510521F04E
:1002500021E030E040E050E059016A01A628B728CB
:10026000C828D9280BC0821593052CF01C01AA249C
:10027000BB24650103C0EE24FF24870111969C91E5
:10028000D20111968C91981709F445C0992339F041
:10029000A80197012A193B094C095D0906C0A6016E
:1002A00095012E193F09400B510B57FD08C01182D3
:1002B0003382228224833583468357831DC081E0A5
:1002C00081833382228288279927DC01821B930B4A
:1002D000A40BB50B84839583A683B7830DC0220F2F
:1002E000331F441F551F24833583468357838281E0
:1002F000938101979383828324813581468157813D
:10030000DA01C9010197A109B1098F5F9F4FAF4F72
:10031000BF4328F30BC0918333822282EA0CFB1C7B
:100320000C1D1D1DE482F5820683178383E0808304
:10033000248135814681578157FF1AC0C901AA27F8
:1003400097FDA095BA2F81709070A070B0705695EF
:10035000479537952795822B932BA42BB52B848318
:100360009583A683B7838281938101969383828349
:10037000DF0101C0D201CD01CDB7DEB7E2E10C94BF
:10038000550DA0E2B0E0E7ECF1E00C94450D698377
:100390007A838B839C832D833E834F835887E9E048
:1003A000EE2EF12CEC0EFD1ECE010196B7010E943F
:1003B0006A058E010F5E1F4FCE010596B8010E949F
:1003C0006A058A8991E089278A8BC701B801AE0145
:1003D000475E5F4F0E9475000E949504A096E6E07C
:1003E0000C94610DA0E2B0E0E8EFF1E00C94450D53
:1003F00069837A838B839C832D833E834F835887C5
:10040000F9E0EF2EF12CEC0EFD1ECE010196B701A6
:100410000E946A058E010F5E1F4FCE010596B8013E
:100420000E946A05C701B801AE01475E5F4F0E9496
:1004300075000E949504A096E6E00C94610DA0E280
:10044000B0E0E5E2F2E00C94390D69837A838B83A6
:100450009C832D833E834F835887CE010196BE0136
:10046000675F7F4F0E946A05CE010596BE016F5EF1
:100470007F4F0E946A059985923088F08989823081
:10048000C8F0943019F4823051F404C0843029F457
:10049000923081F488E690E0C6C0923049F420E0C2
:1004A0009A858A89981321E02A87CE010996BBC0D4
:1004B000823049F420E09A858A89981321E02A8BBA
:1004C000CE014196B0C02D843E844F8458886D88FB
:1004D0007E888F88988CEE24FF248701AA24BB2471
:1004E000650140E050E060E070E0E0E0F0E0C10174
:1004F00081709070892BE9F0E60CF71C081D191D1E
:100500009A01AB012A0D3B1D4C1D5D1D80E090E062
:10051000A0E0B0E0E614F7040805190520F481E036
:1005200090E0A0E0B0E0BA01A901480F591F6A1F8E
:100530007B1FAA0CBB1CCC1CDD1C97FE08C081E0F5
:1005400090E0A0E0B0E0A82AB92ACA2ADB2A3196B6
:10055000E032F10549F0660C771C881C991C569412
:10056000479437942794C3CFFA85EA892B893C892D
:100570008B859C85280F391F2E5F3F4F17C0CA01FE
:1005800081709070892B61F016950795F794E79428
:1005900080E090E0A0E0B0E8E82AF92A0A2B1B2BC3
:1005A00076956795579547952F5F3F4F77FDE7CF36
:1005B0000CC0440F551F661F771F17FD4160EE0CDE
:1005C000FF1C001F111F21503040403090E05907A0
:1005D00090E0690790E4790760F32B8F3C8FDB0193
:1005E000CA018F779070A070B07080349105A1051A
:1005F000B10561F447FD0AC0E114F10401051105DC
:1006000029F0405C5F4F6F4F7F4F40781A8EFE1786
:1006100011F081E08A8F4D8F5E8F6F8F78A383E01A
:10062000898FCE0149960E949504A096E2E10C9430
:10063000550DA8E1B0E0EFE1F3E00C94450D6983BE
:100640007A838B839C832D833E834F83588789E0F5
:10065000E82EF12CEC0EFD1ECE010196B7010E9492
:100660006A058E010F5E1F4FCE010596B8010E94EC
:100670006A058985823040F08989823028F0C70177
:10068000B8010E94E20501C08FEF6896E6E00C9485
:10069000610DA8E1B0E0EFE4F3E00C94450D69834F
:1006A0007A838B839C832D833E834F83588789E095
:1006B000E82EF12CEC0EFD1ECE010196B7010E9432
:1006C0006A058E010F5E1F4FCE010596B8010E948C
:1006D0006A058985823040F08989823028F0C70117
:1006E000B8010E94E20501C081E06896E6E00C9442
:1006F000610DACE0B0E0EFE7F3E00C94490D6983E5
:100700007A838B839C83CE010196BE016B5F7F4F02
:100710000E946A058D81823061F1823050F184300F
:1007200021F48E81882351F12EC02F81388537FD29
:1007300020C06E812F3131051CF06623F9F023C0F3
:100740008EE190E0821B930B29853A854B855C8571
:1007500004C056954795379527958A95D2F7662315
:10076000B1F050954095309521953F4F4F4F5F4FD9
:100770000EC020E030E040E050E009C02FEF3FEF36
:100780004FEF5FE704C020E030E040E050E8B901FF
:10079000CA012C96E2E00C94650DA8E0B0E0E3ED10
:1007A000F3E00C94410D7B018C016115710581050D
:1007B000910519F482E0898360C083E089838EE12A
:1007C000C82ED12CDC82CB82ED82FE820F8318876B
:1007D000C801B7010E944604FC013197F7FF3BC0F6
:1007E000222733272E1B3F0B57016801022E04C01E
:1007F000D694C794B794A7940A94D2F740E050E0F7
:1008000060E070E081E090E0A0E0B0E004C0880F1C
:10081000991FAA1FBB1F2A95D2F70197A109B109F9
:100820008E219F21A023B1230097A105B10521F0BE
:1008300041E050E060E070E04A295B296C297D29A5
:100840004D835E836F8378878EE190E08E1B9F0BD4
:100850009C838B8312C0309781F00E2E04C0EE0C67
:10086000FF1C001F111F0A94D2F7ED82FE820F8336
:100870001887CE1ADF0ADC82CB821A82CE0101965B
:100880000E9495042896EAE00C945D0DEF92FF9289
:100890000F931F937B018C0180E0E81680E0F8063F
:1008A00081E0080780E0180788F48FEFE816F1046C
:1008B0000105110531F028F088E090E0A0E0B0E0FB
:1008C00017C080E090E0A0E0B0E012C080E0E81641
:1008D00080E0F80680E0080781E0180728F088E14A
:1008E00090E0A0E0B0E004C080E190E0A0E0B0E0E3
:1008F00020E230E040E050E0281B390B4A0B5B0B54
:1009000004C016950795F794E7948A95D2F7F701F6
:10091000E059FF4F8081281B310941095109C90164
:100920001F910F91FF90EF900895DF92EF92FF9249
:100930000F931F93FC01E480F58006811781D1801D
:100940008081823048F480E090E0A0E1B0E0E82AC5
:10095000F92A0A2B1B2BA5C0843009F49FC08230D2
:1009600021F4EE24FF24870105C0E114F104010500
:10097000110519F4E0E0F0E096C0628173819FEF09
:10098000623879070CF05BC022E83FEF261B370B7B
:100990002A3131052CF020E030E040E050E02AC060
:1009A000B801A701022E04C0769567955795479523
:1009B0000A94D2F781E090E0A0E0B0E004C0880F94
:1009C000991FAA1FBB1F2A95D2F70197A109B10948
:1009D0008E219F21A023B1230097A105B10521F00D
:1009E00081E090E0A0E0B0E09A01AB01282B392B28
:1009F0004A2B5B2BDA01C9018F779070A070B07021
:100A000080349105A105B10539F427FF09C0205CA8
:100A10003F4F4F4F5F4F04C0215C3F4F4F4F5F4FE1
:100A2000E0E0F0E02030A0E03A07A0E04A07A0E4D0
:100A30005A0710F0E1E0F0E079018A0127C0603840
:100A4000710564F5FB01E158FF4FD801C7018F77AD
:100A50009070A070B07080349105A105B10539F493
:100A6000E7FE0DC080E490E0A0E0B0E004C08FE3BA
:100A700090E0A0E0B0E0E80EF91E0A1F1B1F17FF70
:100A800005C016950795F794E794319687E016957B
:100A90000795F794E7948A95D1F705C0EE24FF24D3
:100AA0008701EFEFF0E06E2F679566276795902F2F
:100AB0009F77D794DD24D7948E2F8695492F462B88
:100AC000582F5D29B701CA011F910F91FF90EF9038
:100AD000DF900895FC01DB01408151812281622F6A
:100AE0006F7770E0221F2227221F9381892F880FA2
:100AF000822B282F30E0991F9927991F11969C93DC
:100B0000119721153105A9F54115510561057105AB
:100B100011F482E037C082E89FEF13969C938E9386
:100B200012979A01AB0167E0220F331F441F551F34
:100B30006A95D1F783E08C930DC0220F331F441FB9
:100B4000551F12968D919C911397019713969C9324
:100B50008E931297203080E0380780E0480780E4C9
:100B6000580758F314962D933D934D935C93179724
:100B700008952F3F310579F441155105610571053F
:100B800019F484E08C93089564FF03C081E08C9392
:100B900012C01C9210C02F57304013963C932E93D6
:100BA000129783E08C9387E0440F551F661F771FD1
:100BB0008A95D1F7706414964D935D936D937C93F1
:100BC000179708951F93DC01FB019C91923008F464
:100BD00047C08081823008F443C0943051F41196AC
:100BE0001C91843099F58181682F70E0611B710937
:100BF0003FC0843021F0923031F48230B9F18181EC
:100C0000882389F12DC011961C9111978230F1F043
:100C100081811817D9F412962D913C9113978281F6
:100C200093818217930794F028173907BCF0149624
:100C30008D919D910D90BC91A02D2481358146818F
:100C40005781281739074A075B0718F4112341F029
:100C50000AC082179307A407B50740F4112319F0BF
:100C600061E070E005C06FEF7FEF02C060E070E010
:100C7000CB011F9108958FB780688FBF08958FB7FC
:100C80008F778FBF089585B7816085BF85B78D7FCA
:100C900085BF8BB78F7B8BBF089585B7846085BF79
:100CA00085B7877F85BF8BB780688BBF089584B772
:100CB0008F7B84BF8BB78F7D8BBF0895813029F1E7
:100CC000813020F0823009F04AC03EC0623071F0BD
:100CD000633020F4613009F042C005C0633061F038
:100CE0006430E9F50CC085B78E7F02C085B781609E
:100CF00085BF85B78D7F26C085B78E7F02C085B73B
:100D0000816085BF85B782601DC0623069F0633045
:100D100018F4613021F505C0633061F06430F9F4F6
:100D20000CC085B78B7F02C085B7846085BF85B74F
:100D3000877F08C085B78B7F02C085B7846085BF79
:100D400085B7886085BF0895633031F0643039F429
:100D500084B7806484BF089584B78F7B84BF08956F
:100D6000009741F0E62FF0E0EE0FFF1FE058FE4F36
:100D70009183808308951F920F920FB60F921124D2
:100D80002F933F934F935F936F937F938F939F9393
:100D9000AF93BF93EF93FF93E0918001F0918101B6
:100DA000309709F00995FF91EF91BF91AF919F9115
:100DB0008F917F916F915F914F913F912F910F9004
:100DC0000FBE0F901F9018951F920F920FB60F92A3
:100DD00011242F933F934F935F936F937F938F9340
:100DE0009F93AF93BF93EF93FF93E0918201F091B4
:100DF0008301309709F00995FF91EF91BF91AF9171
:100E00009F918F917F916F915F914F913F912F9122
:100E10000F900FBE0F901F9018951F920F920FB654
:100E20000F9211242F933F934F935F936F937F9370
:100E30008F939F93AF93BF93EF93FF938091840120
:100E400090918501892B29F0E0918001F091810139
:100E50000995FF91EF91BF91AF919F918F917F91F4
:100E60006F915F914F913F912F910F900FBE0F9017
:100E70001F901895382F883008F075C0643008F03E
:100E800072C04130B1F5613099F0613030F06230BC
:100E9000D1F0633009F067C021C02AB381E090E04F
:100EA00002C0880F991F3A95E2F7282B2ABB0895B4
:100EB00027B381E090E002C0880F991F3A95E2F7CE
:100EC000282B27BB089524B381E090E002C0880F4F
:100ED000991F3A95E2F7282B24BB089521B381E0AE
:100EE00090E002C0880F991F3A95E2F7282B21BBAA
:100EF00008954423C1F5613099F0613028F06230E3
:100F0000D9F0633081F524C02AB381E090E002C0BB
:100F1000880F991F3A95E2F7809582238ABB08953E
:100F200027B381E090E002C0880F991F3A95E2F75D
:100F30008095822387BB089524B381E090E002C0AE
:100F4000880F991F3A95E2F78095822384BB089514
:100F500021B381E090E002C0880F991F3A95E2F733
:100F60008095822381BB0895382F883008F075C0A2
:100F7000643008F072C04130B1F5613099F06130F1
:100F800030F06230D1F0633009F067C021C02BB37C
:100F900081E090E002C0880F991F3A95E2F7282B74
:100FA0002BBB089528B381E090E002C0880F991F01
:100FB0003A95E2F7282B28BB089525B381E090E00D
:100FC00002C0880F991F3A95E2F7282B25BB089598
:100FD00022B381E090E002C0880F991F3A95E2F7B2
:100FE000282B22BB08954423C1F5613099F061306C
:100FF00028F06230D9F0633081F524C02BB381E052
:1010000090E002C0880F991F3A95E2F780958223FD
:101010008BBB089528B381E090E002C0880F991F30
:101020003A95E2F78095822388BB089525B381E045
:1010300090E002C0880F991F3A95E2F780958223CD
:1010400085BB089522B381E090E002C0880F991F0C
:101050003A95E2F78095822382BB0895382F883035
:10106000B0F56430A0F5613091F0613028F0623065
:10107000C9F0633061F521C02BB381E090E002C07C
:10108000880F991F3A95E2F728272BBB089528B3BC
:1010900081E090E002C0880F991F3A95E2F7282777
:1010A00028BB089525B381E090E002C0880F991F06
:1010B0003A95E2F7282725BB089522B381E090E016
:1010C00002C0880F991F3A95E2F7282722BB08959E
:1010D000382F8830D0F46430C0F4613049F061308A
:1010E00028F0623039F0633081F406C029B305C0BE
:1010F00026B303C023B301C020B381E090E002C057
:10110000880F991F3A95E2F72823822F089584309B
:1011100080F4813049F0813028F0823039F083301A
:1011200041F406C06ABB089567BB089564BB089587
:1011300061BB0895843080F4813049F0813028F01B
:10114000823039F0833041F406C06BBB089568BB30
:10115000089565BB089562BB08958430C0F4813062
:1011600059F0813028F0823059F0833081F40CC07E
:101170008BB380958BBB089588B3809588BB089509
:1011800085B3809585BB089582B3809582BB089511
:10119000843080F4813049F0813028F0823039F099
:1011A000833041F406C089B3089586B3089583B3AC
:1011B000089580B30895EF92FF921F93182F80E057
:1011C00063E041E00E94B40781E063E040E00E94F8
:1011D000B407412F407180E062E00E94B407412FC4
:1011E000407281E062E00E94B407412F407482E0C7
:1011F00062E00E94B407412F407883E062E00E94E1
:10120000B40782E063E041E00E94B40782E063E05B
:1012100040E00E94B40780E1E82E87E2F82EC70183
:101220000197F1F7412F417080E062E00E94B4071E
:10123000412F427081E062E00E94B407412F447068
:1012400082E062E00E94B407187083E062E0412F00
:101250000E94B40782E063E041E00E94B40782E0AC
:1012600063E040E00E94B407C7010197F1F71F91C6
:10127000FF90EF9008952F923F924F925F926F925E
:101280007F928F929F92AF92BF92CF92DF92EF9216
:10129000FF920F931F93DF93CF93CDB7DEB766977F
:1012A0000FB6F894DEBF0FBECDBF4B015C0120E04E
:1012B00030E040E050E00E94490387FD07C0C501CF
:1012C000B4010E9449002B013C010DC0B7FAB09453
:1012D000B7F8B094C501B4010E9449002B013C014C
:1012E0008DE20E94DB08CE0101969E8B8D8B8AE0F9
:1012F000ED89FE8911928A95E9F7830172011E0139
:101300000894211C311C17C0C801B7012AE030E045
:1013100040E050E00E94170DF10161931F01C801E8
:10132000B7012AE030E040E050E00E94170DC9010B
:10133000DA017C018D01D22CFD89DF1AE114F10460
:101340000105110509F7DA948D2D992787FD9095F0
:10135000D3948E010F5F1F4F080F191F7801ED18EE
:10136000F10807C0F8018081805D0E94DB08015010
:101370001040CD2C0E151F05A9F79BE0292E312C0E
:101380002C0E3D1E8AE0F10111928A95E9F7C50104
:10139000B40120E030E040E85FE30E94F2017B010D
:1013A0008C01C301B2010E94CD039B01AC01C801B5
:1013B000B7010E94C10120E836E948E15BE40E94E0
:1013C0001F020E9449007B018C018EE20E94DB0813
:1013D0004101510117C0C801B7012AE030E040E0E7
:1013E00050E00E94170DF50161935F01C801B7013C
:1013F0002AE030E040E050E00E94170DC901DA0118
:101400007C018D019A2D9219E114F1040105110559
:1014100011F74BE69E012B5E3F4FF401808188233C
:1014200059F092508E01055F1F4F892F992787FD34
:101430009095080F191F0BC0F40141934F01E2175B
:10144000F30759F7EECF805D0E94DB08C394F801E3
:1014500080818B3629F001501040F7E0CF1699F7C4
:1014600066960FB6F894DEBF0FBECDBFCF91DF9169
:101470001F910F91FF90EF90DF90CF90BF90AF90B2
:101480009F908F907F906F905F904F903F902F90A4
:1014900008951F93CF93DF93EC0110E003C01F5F0B
:1014A0000E94DB08FE01E10FF11D80818823B9F75E
:1014B000DF91CF911F910895EF92FF921F93182F04
:1014C00080E063E040E00E94B40781E063E040E038
:1014D0000E94B407412F407180E062E00E94B4078F
:1014E000412F407281E062E00E94B407412F4074B6
:1014F00082E062E00E94B407412F407883E062E01E
:101500000E94B40782E063E041E00E94B40782E0F9
:1015100063E040E00E94B40720E1E22E27E2F22ED1
:10152000C7010197F1F7412F417080E062E00E940E
:10153000B407412F427081E062E00E94B407412F5E
:10154000447082E062E00E94B407187083E062E0B9
:10155000412F0E94B40782E063E041E00E94B4079B
:1015600082E063E040E00E94B407C7010197F1F711
:101570001F91FF90EF900895882319F0813051F466
:1015800005C0862F80580E945C0A0895862F8154DA
:101590000E945C0A089580E00E945C0A80E10E943B
:1015A0005C0A80EA9FE00197F1F708950F931F937B
:1015B00080E69AEE0197F1F783E30E945C0A82E3EA
:1015C0000E945C0A88E20E945C0A00ED17E0C801F4
:1015D0000197F1F78CE00E945C0AC8010197F1F7CE
:1015E00081E00E945C0A00EA1FE0C8010197F1F760
:1015F00086E00E945C0AC8010197F1F71F910F91E4
:101600000895CF92DF92EF92FF920F931F93DF9393
:10161000CF93CDB7DEB72F970FB6F894DEBF0FBECE
:10162000CDBFDE011796E6E7F1E089E001900D926B
:101630008150E1F7DE011196E3E7F1E083E00190EC
:101640000D928150E1F7DE011496E0E7F1E083E0CE
:1016500001900D928150E1F700E010E06E010894D6
:10166000C11CD11CF601E00FF11FE0808E2D60E05F
:1016700040E00E94B407FC808F2D60E00E94680863
:10168000882319F420E030E013C0FD808F2D60E046
:101690000E946808882319F421E030E009C0FE8028
:1016A0008F2D60E00E9468088823A9F422E030E0D2
:1016B000C901880F991F820F931FFE013196E80F11
:1016C000F91FE00FF11F16818F2D60E00E9468085E
:1016D0008823D1F30CC08E2D60E041E00E94B40756
:1016E0000F5F1F4F0330110509F0BCCF1FEF812F93
:1016F0002F960FB6F894DEBF0FBECDBFCF91DF910E
:101700001F910F91FF90EF90DF90CF9008951F935E
:10171000182F82E063E040E00E94B40780E063E0BD
:1017200041E00E94B40781E063E040E00E94B4071A
:1017300082E0612F0E949A0882E063E041E00E940B
:10174000B40780ED97E00197F1F782E063E040E0B5
:101750000E94B4071F9108959F92AF92BF92CF92BB
:10176000DF92EF92FF920F931F937B018C0120EA8F
:1017700036E841E050E00E94170D922EC801B701F3
:1017800020EA36E841E050E00E94170D162F072F9F
:10179000F82EE92E20E137E240E050E00E94170DDC
:1017A000A22E612F702F8F2D9E2D20E137E240E079
:1017B00050E00E94170D162F072FF82EE92E28EE65
:1017C00033E040E050E00E94170DB22E612F702FE1
:1017D0008F2D9E2D28EE33E040E050E00E94170D43
:1017E000162F072FF82EE92E24E630E040E050E0D7
:1017F0000E94170DC22E612F702F8F2D9E2D24E673
:1018000030E040E050E00E94170D162F072FF82E11
:10181000E92E2AE030E040E050E00E94170DD22E81
:10182000612F702F8F2D9E2D2AE030E040E050E098
:101830000E94170D162F9920B9F4AA20C9F4BB20D5
:10184000D9F4CC2011F4DD2019F1012F005D1D2DFC
:10185000105DCC2021F08C2D805D0E94870B812FA4
:101860000E94870B802F16C0892D805D0E94870BF8
:101870008A2D805D0E94870B8B2D805D0E94870BD7
:101880008C2D805D0E94870B8D2D805D0E94870BC3
:10189000812F805D0E94870B1F910F91FF90EF9029
:1018A000DF90CF90BF90AF909F9008951F93CF93FC
:1018B000DF93EC0110E003C00E94870B1F5FFE0165
:1018C000E10FF11D80818823B9F7DF91CF911F913E
:1018D00008951F93182F82E063E040E00E94B40750
:1018E00080E063E040E00E94B40781E063E040E014
:1018F0000E94B40782E0612F0E949A0882E063E0B0
:1019000041E00E94B40780ED97E00197F1F782E093
:1019100063E040E00E94B4071F910895662311F42C
:10192000805805C0613011F080E001C080540E94F1
:10193000690C0895DF92EF92FF920F931F93CF935C
:10194000DF938C01F62EE42ED22E862F880F880F7F
:10195000880F805C0E94690CC0E0D0E0F801EC0FB9
:10196000FD1F80810E94870B2196C830D105B1F7F9
:101970008E2D6D2D0E948E0C8F2D0E94870BDF9176
:10198000CF911F910F91FF90EF90DF90089581E02C
:101990000E94690C80EA9FE00197F1F708950F9388
:1019A0001F938EE591E028EC30E0F9013197F1F7D3
:1019B0000197D9F788E30E94690C00ED17E0C80190
:1019C0000197F1F78CE00E94690CC8010197F1F7CB
:1019D00081E00E94690C80EA9FE00197F1F71F9176
:1019E0000F91089581E080938601089582E06FE071
:1019F0000E94870883E067E00E94870880E06FE02C
:101A00000E94870880E06FEF0E949A0883E063E0FD
:101A100040E00E943A0783E063E041E00E94B4079F
:101A20000E94D60A80E690E00E94490AFBCFA1E21C
:101A30001A2EAA1BBB1BFD010DC0AA1FBB1FEE1F48
:101A4000FF1FA217B307E407F50720F0A21BB30B93
:101A5000E40BF50B661F771F881F991F1A9469F70F
:101A600060957095809590959B01AC01BD01CF016B
:101A700008952F923F924F925F926F927F928F9232
:101A80009F92AF92BF92CF92DF92EF92FF920F930D
:101A90001F93CF93DF93CDB7DEB7CA1BDB0B0FB617
:101AA000F894DEBF0FBECDBF09942A8839884888D4
:101AB0005F846E847D848C849B84AA84B984C8846A
:101AC000DF80EE80FD800C811B81AA81B981CE0F61
:101AD000D11D0FB6F894DEBF0FBECDBFED01089546
:041AE000F894FFCFA8
:101AE40077656C636F6D6500000000000000000006
:101AF40000010202030303030404040404040404B1
:101B04000505050505050505050505050505050581
:101B14000606060606060606060606060606060661
:101B24000606060606060606060606060606060651
:101B34000707070707070707070707070707070731
:101B44000707070707070707070707070707070721
:101B54000707070707070707070707070707070711
:101B64000707070707070707070707070707070701
:101B740008080808080808080808080808080808E1
:101B840008080808080808080808080808080808D1
:101B940008080808080808080808080808080808C1
:101BA40008080808080808080808080808080808B1
:101BB40008080808080808080808080808080808A1
:101BC4000808080808080808080808080808080891
:101BD4000808080808080808080808080808080881
:101BE4000808080808080808080808080808080871
:101BF400040506010203313233343536636465006B
:00000001FF
